{
	"contracts/CrowdFunding.sol": {
		"CrowdFunding": {
			"abi": [
				{
					"inputs": [
						{
							"internalType": "uint256",
							"name": "_target",
							"type": "uint256"
						},
						{
							"internalType": "uint256",
							"name": "_deadline",
							"type": "uint256"
						}
					],
					"stateMutability": "nonpayable",
					"type": "constructor"
				},
				{
					"inputs": [
						{
							"internalType": "address",
							"name": "",
							"type": "address"
						}
					],
					"name": "contributors",
					"outputs": [
						{
							"internalType": "uint256",
							"name": "",
							"type": "uint256"
						}
					],
					"stateMutability": "view",
					"type": "function"
				},
				{
					"inputs": [
						{
							"internalType": "string",
							"name": "_description",
							"type": "string"
						},
						{
							"internalType": "address payable",
							"name": "_recipient",
							"type": "address"
						},
						{
							"internalType": "uint256",
							"name": "_value",
							"type": "uint256"
						}
					],
					"name": "creteRequests",
					"outputs": [],
					"stateMutability": "nonpayable",
					"type": "function"
				},
				{
					"inputs": [],
					"name": "deadline",
					"outputs": [
						{
							"internalType": "uint256",
							"name": "",
							"type": "uint256"
						}
					],
					"stateMutability": "view",
					"type": "function"
				},
				{
					"inputs": [],
					"name": "getContractBalance",
					"outputs": [
						{
							"internalType": "uint256",
							"name": "",
							"type": "uint256"
						}
					],
					"stateMutability": "view",
					"type": "function"
				},
				{
					"inputs": [
						{
							"internalType": "uint256",
							"name": "_requestNo",
							"type": "uint256"
						}
					],
					"name": "makePayment",
					"outputs": [],
					"stateMutability": "nonpayable",
					"type": "function"
				},
				{
					"inputs": [],
					"name": "manager",
					"outputs": [
						{
							"internalType": "address",
							"name": "",
							"type": "address"
						}
					],
					"stateMutability": "view",
					"type": "function"
				},
				{
					"inputs": [],
					"name": "minimumContribution",
					"outputs": [
						{
							"internalType": "uint256",
							"name": "",
							"type": "uint256"
						}
					],
					"stateMutability": "view",
					"type": "function"
				},
				{
					"inputs": [],
					"name": "noOfContributors",
					"outputs": [
						{
							"internalType": "uint256",
							"name": "",
							"type": "uint256"
						}
					],
					"stateMutability": "view",
					"type": "function"
				},
				{
					"inputs": [],
					"name": "numRequests",
					"outputs": [
						{
							"internalType": "uint256",
							"name": "",
							"type": "uint256"
						}
					],
					"stateMutability": "view",
					"type": "function"
				},
				{
					"inputs": [],
					"name": "raisedAmount",
					"outputs": [
						{
							"internalType": "uint256",
							"name": "",
							"type": "uint256"
						}
					],
					"stateMutability": "view",
					"type": "function"
				},
				{
					"inputs": [],
					"name": "refund",
					"outputs": [],
					"stateMutability": "nonpayable",
					"type": "function"
				},
				{
					"inputs": [
						{
							"internalType": "uint256",
							"name": "",
							"type": "uint256"
						}
					],
					"name": "requests",
					"outputs": [
						{
							"internalType": "string",
							"name": "description",
							"type": "string"
						},
						{
							"internalType": "address payable",
							"name": "recipient",
							"type": "address"
						},
						{
							"internalType": "uint256",
							"name": "value",
							"type": "uint256"
						},
						{
							"internalType": "bool",
							"name": "completed",
							"type": "bool"
						},
						{
							"internalType": "uint256",
							"name": "noOfVotors",
							"type": "uint256"
						}
					],
					"stateMutability": "view",
					"type": "function"
				},
				{
					"inputs": [],
					"name": "sendEth",
					"outputs": [],
					"stateMutability": "payable",
					"type": "function"
				},
				{
					"inputs": [],
					"name": "target",
					"outputs": [
						{
							"internalType": "uint256",
							"name": "",
							"type": "uint256"
						}
					],
					"stateMutability": "view",
					"type": "function"
				},
				{
					"inputs": [
						{
							"internalType": "uint256",
							"name": "_requestNo",
							"type": "uint256"
						}
					],
					"name": "voteRequest",
					"outputs": [],
					"stateMutability": "nonpayable",
					"type": "function"
				}
			],
			"devdoc": {
				"kind": "dev",
				"methods": {},
				"version": 1
			},
			"evm": {
				"assembly": "    /* \"contracts/CrowdFunding.sol\":66:2775  contract CrowdFunding{... */\n  mstore(0x40, 0x80)\n    /* \"contracts/CrowdFunding.sol\":594:784  constructor (uint _target, uint _deadline){... */\n  callvalue\n  dup1\n  iszero\n  tag_1\n  jumpi\n  0x00\n  dup1\n  revert\ntag_1:\n  pop\n  mload(0x40)\n  sub(codesize, bytecodeSize)\n  dup1\n  bytecodeSize\n  dup4\n  codecopy\n  dup2\n  dup2\n  add\n  0x40\n  mstore\n  dup2\n  add\n  swap1\n  tag_2\n  swap2\n  swap1\n  tag_3\n  jump\t// in\ntag_2:\n    /* \"contracts/CrowdFunding.sol\":655:662  _target */\n  dup2\n    /* \"contracts/CrowdFunding.sol\":646:652  target */\n  0x04\n    /* \"contracts/CrowdFunding.sol\":646:662  target = _target */\n  dup2\n  swap1\n  sstore\n  pop\n    /* \"contracts/CrowdFunding.sol\":699:708  _deadline */\n  dup1\n    /* \"contracts/CrowdFunding.sol\":683:698  block.timestamp */\n  timestamp\n    /* \"contracts/CrowdFunding.sol\":683:708  block.timestamp+_deadline */\n  tag_6\n  swap2\n  swap1\n  tag_7\n  jump\t// in\ntag_6:\n    /* \"contracts/CrowdFunding.sol\":672:680  deadline */\n  0x03\n    /* \"contracts/CrowdFunding.sol\":672:708  deadline = block.timestamp+_deadline */\n  dup2\n  swap1\n  sstore\n  pop\n    /* \"contracts/CrowdFunding.sol\":740:747  100 wei */\n  0x64\n    /* \"contracts/CrowdFunding.sol\":718:737  minimumContribution */\n  0x02\n    /* \"contracts/CrowdFunding.sol\":718:747  minimumContribution = 100 wei */\n  dup2\n  swap1\n  sstore\n  pop\n    /* \"contracts/CrowdFunding.sol\":767:777  msg.sender */\n  caller\n    /* \"contracts/CrowdFunding.sol\":757:764  manager */\n  0x01\n  0x00\n    /* \"contracts/CrowdFunding.sol\":757:777  manager = msg.sender */\n  0x0100\n  exp\n  dup2\n  sload\n  dup2\n  0xffffffffffffffffffffffffffffffffffffffff\n  mul\n  not\n  and\n  swap1\n  dup4\n  0xffffffffffffffffffffffffffffffffffffffff\n  and\n  mul\n  or\n  swap1\n  sstore\n  pop\n    /* \"contracts/CrowdFunding.sol\":594:784  constructor (uint _target, uint _deadline){... */\n  pop\n  pop\n    /* \"contracts/CrowdFunding.sol\":66:2775  contract CrowdFunding{... */\n  jump(tag_8)\n    /* \"#utility.yul\":7:150   */\ntag_10:\n    /* \"#utility.yul\":64:69   */\n  0x00\n    /* \"#utility.yul\":95:101   */\n  dup2\n    /* \"#utility.yul\":89:102   */\n  mload\n    /* \"#utility.yul\":80:102   */\n  swap1\n  pop\n    /* \"#utility.yul\":111:144   */\n  tag_12\n    /* \"#utility.yul\":138:143   */\n  dup2\n    /* \"#utility.yul\":111:144   */\n  tag_13\n  jump\t// in\ntag_12:\n    /* \"#utility.yul\":7:150   */\n  swap3\n  swap2\n  pop\n  pop\n  jump\t// out\n    /* \"#utility.yul\":156:663   */\ntag_3:\n    /* \"#utility.yul\":235:241   */\n  0x00\n    /* \"#utility.yul\":243:249   */\n  dup1\n    /* \"#utility.yul\":292:294   */\n  0x40\n    /* \"#utility.yul\":280:289   */\n  dup4\n    /* \"#utility.yul\":271:278   */\n  dup6\n    /* \"#utility.yul\":267:290   */\n  sub\n    /* \"#utility.yul\":263:295   */\n  slt\n    /* \"#utility.yul\":260:379   */\n  iszero\n  tag_15\n  jumpi\n    /* \"#utility.yul\":298:377   */\n  tag_16\n  tag_17\n  jump\t// in\ntag_16:\n    /* \"#utility.yul\":260:379   */\ntag_15:\n    /* \"#utility.yul\":418:419   */\n  0x00\n    /* \"#utility.yul\":443:507   */\n  tag_18\n    /* \"#utility.yul\":499:506   */\n  dup6\n    /* \"#utility.yul\":490:496   */\n  dup3\n    /* \"#utility.yul\":479:488   */\n  dup7\n    /* \"#utility.yul\":475:497   */\n  add\n    /* \"#utility.yul\":443:507   */\n  tag_10\n  jump\t// in\ntag_18:\n    /* \"#utility.yul\":433:507   */\n  swap3\n  pop\n    /* \"#utility.yul\":389:517   */\n  pop\n    /* \"#utility.yul\":556:558   */\n  0x20\n    /* \"#utility.yul\":582:646   */\n  tag_19\n    /* \"#utility.yul\":638:645   */\n  dup6\n    /* \"#utility.yul\":629:635   */\n  dup3\n    /* \"#utility.yul\":618:627   */\n  dup7\n    /* \"#utility.yul\":614:636   */\n  add\n    /* \"#utility.yul\":582:646   */\n  tag_10\n  jump\t// in\ntag_19:\n    /* \"#utility.yul\":572:646   */\n  swap2\n  pop\n    /* \"#utility.yul\":527:656   */\n  pop\n    /* \"#utility.yul\":156:663   */\n  swap3\n  pop\n  swap3\n  swap1\n  pop\n  jump\t// out\n    /* \"#utility.yul\":750:1055   */\ntag_7:\n    /* \"#utility.yul\":790:793   */\n  0x00\n    /* \"#utility.yul\":809:829   */\n  tag_23\n    /* \"#utility.yul\":827:828   */\n  dup3\n    /* \"#utility.yul\":809:829   */\n  tag_24\n  jump\t// in\ntag_23:\n    /* \"#utility.yul\":804:829   */\n  swap2\n  pop\n    /* \"#utility.yul\":843:863   */\n  tag_25\n    /* \"#utility.yul\":861:862   */\n  dup4\n    /* \"#utility.yul\":843:863   */\n  tag_24\n  jump\t// in\ntag_25:\n    /* \"#utility.yul\":838:863   */\n  swap3\n  pop\n    /* \"#utility.yul\":997:998   */\n  dup3\n    /* \"#utility.yul\":929:995   */\n  0xffffffffffffffffffffffffffffffffffffffffffffffffffffffffffffffff\n    /* \"#utility.yul\":925:999   */\n  sub\n    /* \"#utility.yul\":922:923   */\n  dup3\n    /* \"#utility.yul\":919:1000   */\n  gt\n    /* \"#utility.yul\":916:1023   */\n  iszero\n  tag_26\n  jumpi\n    /* \"#utility.yul\":1003:1021   */\n  tag_27\n  tag_28\n  jump\t// in\ntag_27:\n    /* \"#utility.yul\":916:1023   */\ntag_26:\n    /* \"#utility.yul\":1047:1048   */\n  dup3\n    /* \"#utility.yul\":1044:1045   */\n  dup3\n    /* \"#utility.yul\":1040:1049   */\n  add\n    /* \"#utility.yul\":1033:1049   */\n  swap1\n  pop\n    /* \"#utility.yul\":750:1055   */\n  swap3\n  swap2\n  pop\n  pop\n  jump\t// out\n    /* \"#utility.yul\":1061:1138   */\ntag_24:\n    /* \"#utility.yul\":1098:1105   */\n  0x00\n    /* \"#utility.yul\":1127:1132   */\n  dup2\n    /* \"#utility.yul\":1116:1132   */\n  swap1\n  pop\n    /* \"#utility.yul\":1061:1138   */\n  swap2\n  swap1\n  pop\n  jump\t// out\n    /* \"#utility.yul\":1144:1324   */\ntag_28:\n    /* \"#utility.yul\":1192:1269   */\n  0x4e487b7100000000000000000000000000000000000000000000000000000000\n    /* \"#utility.yul\":1189:1190   */\n  0x00\n    /* \"#utility.yul\":1182:1270   */\n  mstore\n    /* \"#utility.yul\":1289:1293   */\n  0x11\n    /* \"#utility.yul\":1286:1287   */\n  0x04\n    /* \"#utility.yul\":1279:1294   */\n  mstore\n    /* \"#utility.yul\":1313:1317   */\n  0x24\n    /* \"#utility.yul\":1310:1311   */\n  0x00\n    /* \"#utility.yul\":1303:1318   */\n  revert\n    /* \"#utility.yul\":1453:1570   */\ntag_17:\n    /* \"#utility.yul\":1562:1563   */\n  0x00\n    /* \"#utility.yul\":1559:1560   */\n  dup1\n    /* \"#utility.yul\":1552:1564   */\n  revert\n    /* \"#utility.yul\":1576:1698   */\ntag_13:\n    /* \"#utility.yul\":1649:1673   */\n  tag_35\n    /* \"#utility.yul\":1667:1672   */\n  dup2\n    /* \"#utility.yul\":1649:1673   */\n  tag_24\n  jump\t// in\ntag_35:\n    /* \"#utility.yul\":1642:1647   */\n  dup2\n    /* \"#utility.yul\":1639:1674   */\n  eq\n    /* \"#utility.yul\":1629:1692   */\n  tag_36\n  jumpi\n    /* \"#utility.yul\":1688:1689   */\n  0x00\n    /* \"#utility.yul\":1685:1686   */\n  dup1\n    /* \"#utility.yul\":1678:1690   */\n  revert\n    /* \"#utility.yul\":1629:1692   */\ntag_36:\n    /* \"#utility.yul\":1576:1698   */\n  pop\n  jump\t// out\n    /* \"contracts/CrowdFunding.sol\":66:2775  contract CrowdFunding{... */\ntag_8:\n  dataSize(sub_0)\n  dup1\n  dataOffset(sub_0)\n  0x00\n  codecopy\n  0x00\n  return\nstop\n\nsub_0: assembly {\n        /* \"contracts/CrowdFunding.sol\":66:2775  contract CrowdFunding{... */\n      mstore(0x40, 0x80)\n      jumpi(tag_1, lt(calldatasize, 0x04))\n      shr(0xe0, calldataload(0x00))\n      dup1\n      0x590e1ae3\n      gt\n      tag_17\n      jumpi\n      dup1\n      0x937e09b1\n      gt\n      tag_18\n      jumpi\n      dup1\n      0x937e09b1\n      eq\n      tag_13\n      jumpi\n      dup1\n      0x9fb42b1f\n      eq\n      tag_14\n      jumpi\n      dup1\n      0xc59ee1dc\n      eq\n      tag_15\n      jumpi\n      dup1\n      0xd4b83992\n      eq\n      tag_16\n      jumpi\n      jump(tag_1)\n    tag_18:\n      dup1\n      0x590e1ae3\n      eq\n      tag_9\n      jumpi\n      dup1\n      0x5957df98\n      eq\n      tag_10\n      jumpi\n      dup1\n      0x6f9fb98a\n      eq\n      tag_11\n      jumpi\n      dup1\n      0x81d12c58\n      eq\n      tag_12\n      jumpi\n      jump(tag_1)\n    tag_17:\n      dup1\n      0x481c6a75\n      gt\n      tag_19\n      jumpi\n      dup1\n      0x481c6a75\n      eq\n      tag_5\n      jumpi\n      dup1\n      0x4cb6f4a5\n      eq\n      tag_6\n      jumpi\n      dup1\n      0x4e260f6f\n      eq\n      tag_7\n      jumpi\n      dup1\n      0x5114cb52\n      eq\n      tag_8\n      jumpi\n      jump(tag_1)\n    tag_19:\n      dup1\n      0x06e99fef\n      eq\n      tag_2\n      jumpi\n      dup1\n      0x1f6d4942\n      eq\n      tag_3\n      jumpi\n      dup1\n      0x29dcb0cf\n      eq\n      tag_4\n      jumpi\n    tag_1:\n      0x00\n      dup1\n      revert\n        /* \"contracts/CrowdFunding.sol\":790:1144  function sendEth () public payable {... */\n    tag_2:\n      tag_20\n      tag_21\n      jump\t// in\n    tag_20:\n      stop\n        /* \"contracts/CrowdFunding.sol\":93:138  mapping (address => uint) public contributors */\n    tag_3:\n      callvalue\n      dup1\n      iszero\n      tag_22\n      jumpi\n      0x00\n      dup1\n      revert\n    tag_22:\n      pop\n      tag_23\n      0x04\n      dup1\n      calldatasize\n      sub\n      dup2\n      add\n      swap1\n      tag_24\n      swap2\n      swap1\n      tag_25\n      jump\t// in\n    tag_24:\n      tag_26\n      jump\t// in\n    tag_23:\n      mload(0x40)\n      tag_27\n      swap2\n      swap1\n      tag_28\n      jump\t// in\n    tag_27:\n      mload(0x40)\n      dup1\n      swap2\n      sub\n      swap1\n      return\n        /* \"contracts/CrowdFunding.sol\":209:229  uint public deadline */\n    tag_4:\n      callvalue\n      dup1\n      iszero\n      tag_29\n      jumpi\n      0x00\n      dup1\n      revert\n    tag_29:\n      pop\n      tag_30\n      tag_31\n      jump\t// in\n    tag_30:\n      mload(0x40)\n      tag_32\n      swap2\n      swap1\n      tag_28\n      jump\t// in\n    tag_32:\n      mload(0x40)\n      dup1\n      swap2\n      sub\n      swap1\n      return\n        /* \"contracts/CrowdFunding.sol\":144:166  address public manager */\n    tag_5:\n      callvalue\n      dup1\n      iszero\n      tag_33\n      jumpi\n      0x00\n      dup1\n      revert\n    tag_33:\n      pop\n      tag_34\n      tag_35\n      jump\t// in\n    tag_34:\n      mload(0x40)\n      tag_36\n      swap2\n      swap1\n      tag_37\n      jump\t// in\n    tag_36:\n      mload(0x40)\n      dup1\n      swap2\n      sub\n      swap1\n      return\n        /* \"contracts/CrowdFunding.sol\":2094:2439  function voteRequest (uint _requestNo) public {... */\n    tag_6:\n      callvalue\n      dup1\n      iszero\n      tag_38\n      jumpi\n      0x00\n      dup1\n      revert\n    tag_38:\n      pop\n      tag_39\n      0x04\n      dup1\n      calldatasize\n      sub\n      dup2\n      add\n      swap1\n      tag_40\n      swap2\n      swap1\n      tag_41\n      jump\t// in\n    tag_40:\n      tag_42\n      jump\t// in\n    tag_39:\n      stop\n        /* \"contracts/CrowdFunding.sol\":289:317  uint public noOfContributors */\n    tag_7:\n      callvalue\n      dup1\n      iszero\n      tag_43\n      jumpi\n      0x00\n      dup1\n      revert\n    tag_43:\n      pop\n      tag_44\n      tag_45\n      jump\t// in\n    tag_44:\n      mload(0x40)\n      tag_46\n      swap2\n      swap1\n      tag_28\n      jump\t// in\n    tag_46:\n      mload(0x40)\n      dup1\n      swap2\n      sub\n      swap1\n      return\n        /* \"contracts/CrowdFunding.sol\":2445:2773  function makePayment(uint _requestNo) public onlyManager{... */\n    tag_8:\n      callvalue\n      dup1\n      iszero\n      tag_47\n      jumpi\n      0x00\n      dup1\n      revert\n    tag_47:\n      pop\n      tag_48\n      0x04\n      dup1\n      calldatasize\n      sub\n      dup2\n      add\n      swap1\n      tag_49\n      swap2\n      swap1\n      tag_41\n      jump\t// in\n    tag_49:\n      tag_50\n      jump\t// in\n    tag_48:\n      stop\n        /* \"contracts/CrowdFunding.sol\":1259:1571  function refund () public{... */\n    tag_9:\n      callvalue\n      dup1\n      iszero\n      tag_51\n      jumpi\n      0x00\n      dup1\n      revert\n    tag_51:\n      pop\n      tag_52\n      tag_53\n      jump\t// in\n    tag_52:\n      stop\n        /* \"contracts/CrowdFunding.sol\":1699:2086  function creteRequests(string memory _description,address payable _recipient,uint _value) public onlyManager{... */\n    tag_10:\n      callvalue\n      dup1\n      iszero\n      tag_54\n      jumpi\n      0x00\n      dup1\n      revert\n    tag_54:\n      pop\n      tag_55\n      0x04\n      dup1\n      calldatasize\n      sub\n      dup2\n      add\n      swap1\n      tag_56\n      swap2\n      swap1\n      tag_57\n      jump\t// in\n    tag_56:\n      tag_58\n      jump\t// in\n    tag_55:\n      stop\n        /* \"contracts/CrowdFunding.sol\":1150:1253  function getContractBalance() public view returns (uint) {... */\n    tag_11:\n      callvalue\n      dup1\n      iszero\n      tag_59\n      jumpi\n      0x00\n      dup1\n      revert\n    tag_59:\n      pop\n      tag_60\n      tag_61\n      jump\t// in\n    tag_60:\n      mload(0x40)\n      tag_62\n      swap2\n      swap1\n      tag_28\n      jump\t// in\n    tag_62:\n      mload(0x40)\n      dup1\n      swap2\n      sub\n      swap1\n      return\n        /* \"contracts/CrowdFunding.sol\":521:559  mapping(uint=>Request) public requests */\n    tag_12:\n      callvalue\n      dup1\n      iszero\n      tag_63\n      jumpi\n      0x00\n      dup1\n      revert\n    tag_63:\n      pop\n      tag_64\n      0x04\n      dup1\n      calldatasize\n      sub\n      dup2\n      add\n      swap1\n      tag_65\n      swap2\n      swap1\n      tag_41\n      jump\t// in\n    tag_65:\n      tag_66\n      jump\t// in\n    tag_64:\n      mload(0x40)\n      tag_67\n      swap6\n      swap5\n      swap4\n      swap3\n      swap2\n      swap1\n      tag_68\n      jump\t// in\n    tag_67:\n      mload(0x40)\n      dup1\n      swap2\n      sub\n      swap1\n      return\n        /* \"contracts/CrowdFunding.sol\":172:203  uint public minimumContribution */\n    tag_13:\n      callvalue\n      dup1\n      iszero\n      tag_69\n      jumpi\n      0x00\n      dup1\n      revert\n    tag_69:\n      pop\n      tag_70\n      tag_71\n      jump\t// in\n    tag_70:\n      mload(0x40)\n      tag_72\n      swap2\n      swap1\n      tag_28\n      jump\t// in\n    tag_72:\n      mload(0x40)\n      dup1\n      swap2\n      sub\n      swap1\n      return\n        /* \"contracts/CrowdFunding.sol\":565:588  uint public numRequests */\n    tag_14:\n      callvalue\n      dup1\n      iszero\n      tag_73\n      jumpi\n      0x00\n      dup1\n      revert\n    tag_73:\n      pop\n      tag_74\n      tag_75\n      jump\t// in\n    tag_74:\n      mload(0x40)\n      tag_76\n      swap2\n      swap1\n      tag_28\n      jump\t// in\n    tag_76:\n      mload(0x40)\n      dup1\n      swap2\n      sub\n      swap1\n      return\n        /* \"contracts/CrowdFunding.sol\":259:283  uint public raisedAmount */\n    tag_15:\n      callvalue\n      dup1\n      iszero\n      tag_77\n      jumpi\n      0x00\n      dup1\n      revert\n    tag_77:\n      pop\n      tag_78\n      tag_79\n      jump\t// in\n    tag_78:\n      mload(0x40)\n      tag_80\n      swap2\n      swap1\n      tag_28\n      jump\t// in\n    tag_80:\n      mload(0x40)\n      dup1\n      swap2\n      sub\n      swap1\n      return\n        /* \"contracts/CrowdFunding.sol\":235:253  uint public target */\n    tag_16:\n      callvalue\n      dup1\n      iszero\n      tag_81\n      jumpi\n      0x00\n      dup1\n      revert\n    tag_81:\n      pop\n      tag_82\n      tag_83\n      jump\t// in\n    tag_82:\n      mload(0x40)\n      tag_84\n      swap2\n      swap1\n      tag_28\n      jump\t// in\n    tag_84:\n      mload(0x40)\n      dup1\n      swap2\n      sub\n      swap1\n      return\n        /* \"contracts/CrowdFunding.sol\":790:1144  function sendEth () public payable {... */\n    tag_21:\n        /* \"contracts/CrowdFunding.sol\":861:869  deadline */\n      sload(0x03)\n        /* \"contracts/CrowdFunding.sol\":843:858  block.timestamp */\n      timestamp\n        /* \"contracts/CrowdFunding.sol\":843:869  block.timestamp < deadline */\n      lt\n        /* \"contracts/CrowdFunding.sol\":835:890  require(block.timestamp < deadline,\"Deadline has over\") */\n      tag_86\n      jumpi\n      mload(0x40)\n      0x08c379a000000000000000000000000000000000000000000000000000000000\n      dup2\n      mstore\n      0x04\n      add\n      tag_87\n      swap1\n      tag_88\n      jump\t// in\n    tag_87:\n      mload(0x40)\n      dup1\n      swap2\n      sub\n      swap1\n      revert\n    tag_86:\n        /* \"contracts/CrowdFunding.sol\":921:940  minimumContribution */\n      sload(0x02)\n        /* \"contracts/CrowdFunding.sol\":908:917  msg.value */\n      callvalue\n        /* \"contracts/CrowdFunding.sol\":908:940  msg.value >= minimumContribution */\n      lt\n      iszero\n        /* \"contracts/CrowdFunding.sol\":900:975  require(msg.value >= minimumContribution,\"Minimum Contribution is not met\") */\n      tag_89\n      jumpi\n      mload(0x40)\n      0x08c379a000000000000000000000000000000000000000000000000000000000\n      dup2\n      mstore\n      0x04\n      add\n      tag_90\n      swap1\n      tag_91\n      jump\t// in\n    tag_90:\n      mload(0x40)\n      dup1\n      swap2\n      sub\n      swap1\n      revert\n    tag_89:\n        /* \"contracts/CrowdFunding.sol\":1015:1016  0 */\n      0x00\n        /* \"contracts/CrowdFunding.sol\":989:1001  contributors */\n      dup1\n        /* \"contracts/CrowdFunding.sol\":989:1013  contributors[msg.sender] */\n      0x00\n        /* \"contracts/CrowdFunding.sol\":1002:1012  msg.sender */\n      caller\n        /* \"contracts/CrowdFunding.sol\":989:1013  contributors[msg.sender] */\n      0xffffffffffffffffffffffffffffffffffffffff\n      and\n      0xffffffffffffffffffffffffffffffffffffffff\n      and\n      dup2\n      mstore\n      0x20\n      add\n      swap1\n      dup2\n      mstore\n      0x20\n      add\n      0x00\n      keccak256\n      sload\n        /* \"contracts/CrowdFunding.sol\":989:1016  contributors[msg.sender]==0 */\n      eq\n        /* \"contracts/CrowdFunding.sol\":986:1060  if(contributors[msg.sender]==0){... */\n      iszero\n      tag_92\n      jumpi\n        /* \"contracts/CrowdFunding.sol\":1031:1047  noOfContributors */\n      0x06\n      0x00\n        /* \"contracts/CrowdFunding.sol\":1031:1049  noOfContributors++ */\n      dup2\n      sload\n      dup1\n      swap3\n      swap2\n      swap1\n      tag_93\n      swap1\n      tag_94\n      jump\t// in\n    tag_93:\n      swap2\n      swap1\n      pop\n      sstore\n      pop\n        /* \"contracts/CrowdFunding.sol\":986:1060  if(contributors[msg.sender]==0){... */\n    tag_92:\n        /* \"contracts/CrowdFunding.sol\":1095:1104  msg.value */\n      callvalue\n        /* \"contracts/CrowdFunding.sol\":1069:1081  contributors */\n      0x00\n        /* \"contracts/CrowdFunding.sol\":1069:1093  contributors[msg.sender] */\n      dup1\n        /* \"contracts/CrowdFunding.sol\":1082:1092  msg.sender */\n      caller\n        /* \"contracts/CrowdFunding.sol\":1069:1093  contributors[msg.sender] */\n      0xffffffffffffffffffffffffffffffffffffffff\n      and\n      0xffffffffffffffffffffffffffffffffffffffff\n      and\n      dup2\n      mstore\n      0x20\n      add\n      swap1\n      dup2\n      mstore\n      0x20\n      add\n      0x00\n      keccak256\n      0x00\n        /* \"contracts/CrowdFunding.sol\":1069:1104  contributors[msg.sender]+=msg.value */\n      dup3\n      dup3\n      sload\n      tag_95\n      swap2\n      swap1\n      tag_96\n      jump\t// in\n    tag_95:\n      swap3\n      pop\n      pop\n      dup2\n      swap1\n      sstore\n      pop\n        /* \"contracts/CrowdFunding.sol\":1128:1137  msg.value */\n      callvalue\n        /* \"contracts/CrowdFunding.sol\":1114:1126  raisedAmount */\n      0x05\n      0x00\n        /* \"contracts/CrowdFunding.sol\":1114:1137  raisedAmount+=msg.value */\n      dup3\n      dup3\n      sload\n      tag_97\n      swap2\n      swap1\n      tag_96\n      jump\t// in\n    tag_97:\n      swap3\n      pop\n      pop\n      dup2\n      swap1\n      sstore\n      pop\n        /* \"contracts/CrowdFunding.sol\":790:1144  function sendEth () public payable {... */\n      jump\t// out\n        /* \"contracts/CrowdFunding.sol\":93:138  mapping (address => uint) public contributors */\n    tag_26:\n      mstore(0x20, 0x00)\n      dup1\n      0x00\n      mstore\n      keccak256(0x00, 0x40)\n      0x00\n      swap2\n      pop\n      swap1\n      pop\n      sload\n      dup2\n      jump\t// out\n        /* \"contracts/CrowdFunding.sol\":209:229  uint public deadline */\n    tag_31:\n      sload(0x03)\n      dup2\n      jump\t// out\n        /* \"contracts/CrowdFunding.sol\":144:166  address public manager */\n    tag_35:\n      0x01\n      0x00\n      swap1\n      sload\n      swap1\n      0x0100\n      exp\n      swap1\n      div\n      0xffffffffffffffffffffffffffffffffffffffff\n      and\n      dup2\n      jump\t// out\n        /* \"contracts/CrowdFunding.sol\":2094:2439  function voteRequest (uint _requestNo) public {... */\n    tag_42:\n        /* \"contracts/CrowdFunding.sol\":2184:2185  0 */\n      0x00\n        /* \"contracts/CrowdFunding.sol\":2159:2171  contributors */\n      dup1\n        /* \"contracts/CrowdFunding.sol\":2159:2183  contributors[msg.sender] */\n      0x00\n        /* \"contracts/CrowdFunding.sol\":2172:2182  msg.sender */\n      caller\n        /* \"contracts/CrowdFunding.sol\":2159:2183  contributors[msg.sender] */\n      0xffffffffffffffffffffffffffffffffffffffff\n      and\n      0xffffffffffffffffffffffffffffffffffffffff\n      and\n      dup2\n      mstore\n      0x20\n      add\n      swap1\n      dup2\n      mstore\n      0x20\n      add\n      0x00\n      keccak256\n      sload\n        /* \"contracts/CrowdFunding.sol\":2159:2185  contributors[msg.sender]>0 */\n      gt\n        /* \"contracts/CrowdFunding.sol\":2150:2213  require (contributors[msg.sender]>0, \"you must be contributor\") */\n      tag_99\n      jumpi\n      mload(0x40)\n      0x08c379a000000000000000000000000000000000000000000000000000000000\n      dup2\n      mstore\n      0x04\n      add\n      tag_100\n      swap1\n      tag_101\n      jump\t// in\n    tag_100:\n      mload(0x40)\n      dup1\n      swap2\n      sub\n      swap1\n      revert\n    tag_99:\n        /* \"contracts/CrowdFunding.sol\":2223:2250  Request storage thisRequest */\n      0x00\n        /* \"contracts/CrowdFunding.sol\":2251:2259  requests */\n      0x07\n        /* \"contracts/CrowdFunding.sol\":2251:2272  requests [_requestNo] */\n      0x00\n        /* \"contracts/CrowdFunding.sol\":2261:2271  _requestNo */\n      dup4\n        /* \"contracts/CrowdFunding.sol\":2251:2272  requests [_requestNo] */\n      dup2\n      mstore\n      0x20\n      add\n      swap1\n      dup2\n      mstore\n      0x20\n      add\n      0x00\n      keccak256\n        /* \"contracts/CrowdFunding.sol\":2223:2272  Request storage thisRequest=requests [_requestNo] */\n      swap1\n      pop\n        /* \"contracts/CrowdFunding.sol\":2322:2327  false */\n      0x00\n        /* \"contracts/CrowdFunding.sol\":2290:2327  thisRequest.voters[msg.sender]==false */\n      iszero\n      iszero\n        /* \"contracts/CrowdFunding.sol\":2290:2301  thisRequest */\n      dup2\n        /* \"contracts/CrowdFunding.sol\":2290:2308  thisRequest.voters */\n      0x05\n      add\n        /* \"contracts/CrowdFunding.sol\":2290:2320  thisRequest.voters[msg.sender] */\n      0x00\n        /* \"contracts/CrowdFunding.sol\":2309:2319  msg.sender */\n      caller\n        /* \"contracts/CrowdFunding.sol\":2290:2320  thisRequest.voters[msg.sender] */\n      0xffffffffffffffffffffffffffffffffffffffff\n      and\n      0xffffffffffffffffffffffffffffffffffffffff\n      and\n      dup2\n      mstore\n      0x20\n      add\n      swap1\n      dup2\n      mstore\n      0x20\n      add\n      0x00\n      keccak256\n      0x00\n      swap1\n      sload\n      swap1\n      0x0100\n      exp\n      swap1\n      div\n      0xff\n      and\n        /* \"contracts/CrowdFunding.sol\":2290:2327  thisRequest.voters[msg.sender]==false */\n      iszero\n      iszero\n      eq\n        /* \"contracts/CrowdFunding.sol\":2282:2353  require(thisRequest.voters[msg.sender]==false,\"you have already voted\") */\n      tag_102\n      jumpi\n      mload(0x40)\n      0x08c379a000000000000000000000000000000000000000000000000000000000\n      dup2\n      mstore\n      0x04\n      add\n      tag_103\n      swap1\n      tag_104\n      jump\t// in\n    tag_103:\n      mload(0x40)\n      dup1\n      swap2\n      sub\n      swap1\n      revert\n    tag_102:\n        /* \"contracts/CrowdFunding.sol\":2394:2398  true */\n      0x01\n        /* \"contracts/CrowdFunding.sol\":2363:2374  thisRequest */\n      dup2\n        /* \"contracts/CrowdFunding.sol\":2363:2381  thisRequest.voters */\n      0x05\n      add\n        /* \"contracts/CrowdFunding.sol\":2363:2393  thisRequest.voters[msg.sender] */\n      0x00\n        /* \"contracts/CrowdFunding.sol\":2382:2392  msg.sender */\n      caller\n        /* \"contracts/CrowdFunding.sol\":2363:2393  thisRequest.voters[msg.sender] */\n      0xffffffffffffffffffffffffffffffffffffffff\n      and\n      0xffffffffffffffffffffffffffffffffffffffff\n      and\n      dup2\n      mstore\n      0x20\n      add\n      swap1\n      dup2\n      mstore\n      0x20\n      add\n      0x00\n      keccak256\n      0x00\n        /* \"contracts/CrowdFunding.sol\":2363:2398  thisRequest.voters[msg.sender]=true */\n      0x0100\n      exp\n      dup2\n      sload\n      dup2\n      0xff\n      mul\n      not\n      and\n      swap1\n      dup4\n      iszero\n      iszero\n      mul\n      or\n      swap1\n      sstore\n      pop\n        /* \"contracts/CrowdFunding.sol\":2408:2419  thisRequest */\n      dup1\n        /* \"contracts/CrowdFunding.sol\":2408:2430  thisRequest.noOfVotors */\n      0x04\n      add\n      0x00\n        /* \"contracts/CrowdFunding.sol\":2408:2432  thisRequest.noOfVotors++ */\n      dup2\n      sload\n      dup1\n      swap3\n      swap2\n      swap1\n      tag_105\n      swap1\n      tag_94\n      jump\t// in\n    tag_105:\n      swap2\n      swap1\n      pop\n      sstore\n      pop\n        /* \"contracts/CrowdFunding.sol\":2140:2439  {... */\n      pop\n        /* \"contracts/CrowdFunding.sol\":2094:2439  function voteRequest (uint _requestNo) public {... */\n      pop\n      jump\t// out\n        /* \"contracts/CrowdFunding.sol\":289:317  uint public noOfContributors */\n    tag_45:\n      sload(0x06)\n      dup2\n      jump\t// out\n        /* \"contracts/CrowdFunding.sol\":2445:2773  function makePayment(uint _requestNo) public onlyManager{... */\n    tag_50:\n        /* \"contracts/CrowdFunding.sol\":1630:1637  manager */\n      0x01\n      0x00\n      swap1\n      sload\n      swap1\n      0x0100\n      exp\n      swap1\n      div\n      0xffffffffffffffffffffffffffffffffffffffff\n      and\n        /* \"contracts/CrowdFunding.sol\":1618:1637  msg.sender==manager */\n      0xffffffffffffffffffffffffffffffffffffffff\n      and\n        /* \"contracts/CrowdFunding.sol\":1618:1628  msg.sender */\n      caller\n        /* \"contracts/CrowdFunding.sol\":1618:1637  msg.sender==manager */\n      0xffffffffffffffffffffffffffffffffffffffff\n      and\n      eq\n        /* \"contracts/CrowdFunding.sol\":1609:1676  require (msg.sender==manager,\"only manager can call this function\") */\n      tag_107\n      jumpi\n      mload(0x40)\n      0x08c379a000000000000000000000000000000000000000000000000000000000\n      dup2\n      mstore\n      0x04\n      add\n      tag_108\n      swap1\n      tag_109\n      jump\t// in\n    tag_108:\n      mload(0x40)\n      dup1\n      swap2\n      sub\n      swap1\n      revert\n    tag_107:\n        /* \"contracts/CrowdFunding.sol\":2534:2540  target */\n      sload(0x04)\n        /* \"contracts/CrowdFunding.sol\":2520:2532  raisedAmount */\n      sload(0x05)\n        /* \"contracts/CrowdFunding.sol\":2520:2540  raisedAmount>=target */\n      lt\n      iszero\n        /* \"contracts/CrowdFunding.sol\":2511:2541  require (raisedAmount>=target) */\n      tag_111\n      jumpi\n      0x00\n      dup1\n      revert\n    tag_111:\n        /* \"contracts/CrowdFunding.sol\":2551:2578  Request storage thisRequest */\n      0x00\n        /* \"contracts/CrowdFunding.sol\":2579:2587  requests */\n      0x07\n        /* \"contracts/CrowdFunding.sol\":2579:2599  requests[_requestNo] */\n      0x00\n        /* \"contracts/CrowdFunding.sol\":2588:2598  _requestNo */\n      dup4\n        /* \"contracts/CrowdFunding.sol\":2579:2599  requests[_requestNo] */\n      dup2\n      mstore\n      0x20\n      add\n      swap1\n      dup2\n      mstore\n      0x20\n      add\n      0x00\n      keccak256\n        /* \"contracts/CrowdFunding.sol\":2551:2599  Request storage thisRequest=requests[_requestNo] */\n      swap1\n      pop\n        /* \"contracts/CrowdFunding.sol\":2640:2645  false */\n      0x00\n        /* \"contracts/CrowdFunding.sol\":2617:2645  thisRequest.completed==false */\n      iszero\n      iszero\n        /* \"contracts/CrowdFunding.sol\":2617:2628  thisRequest */\n      dup2\n        /* \"contracts/CrowdFunding.sol\":2617:2638  thisRequest.completed */\n      0x03\n      add\n      0x00\n      swap1\n      sload\n      swap1\n      0x0100\n      exp\n      swap1\n      div\n      0xff\n      and\n        /* \"contracts/CrowdFunding.sol\":2617:2645  thisRequest.completed==false */\n      iszero\n      iszero\n      eq\n        /* \"contracts/CrowdFunding.sol\":2609:2679  require(thisRequest.completed==false,\"the request has been complited\") */\n      tag_112\n      jumpi\n      mload(0x40)\n      0x08c379a000000000000000000000000000000000000000000000000000000000\n      dup2\n      mstore\n      0x04\n      add\n      tag_113\n      swap1\n      tag_114\n      jump\t// in\n    tag_113:\n      mload(0x40)\n      dup1\n      swap2\n      sub\n      swap1\n      revert\n    tag_112:\n        /* \"contracts/CrowdFunding.sol\":2739:2740  2 */\n      0x02\n        /* \"contracts/CrowdFunding.sol\":2722:2738  noOfContributors */\n      sload(0x06)\n        /* \"contracts/CrowdFunding.sol\":2722:2740  noOfContributors/2 */\n      tag_115\n      swap2\n      swap1\n      tag_116\n      jump\t// in\n    tag_115:\n        /* \"contracts/CrowdFunding.sol\":2697:2708  thisRequest */\n      dup2\n        /* \"contracts/CrowdFunding.sol\":2697:2719  thisRequest.noOfVotors */\n      0x04\n      add\n      sload\n        /* \"contracts/CrowdFunding.sol\":2697:2740  thisRequest.noOfVotors > noOfContributors/2 */\n      gt\n        /* \"contracts/CrowdFunding.sol\":2689:2766  require(thisRequest.noOfVotors > noOfContributors/2,\"majority does not supp\") */\n      tag_117\n      jumpi\n      mload(0x40)\n      0x08c379a000000000000000000000000000000000000000000000000000000000\n      dup2\n      mstore\n      0x04\n      add\n      tag_118\n      swap1\n      tag_119\n      jump\t// in\n    tag_118:\n      mload(0x40)\n      dup1\n      swap2\n      sub\n      swap1\n      revert\n    tag_117:\n        /* \"contracts/CrowdFunding.sol\":2501:2773  {... */\n      pop\n        /* \"contracts/CrowdFunding.sol\":2445:2773  function makePayment(uint _requestNo) public onlyManager{... */\n      pop\n      jump\t// out\n        /* \"contracts/CrowdFunding.sol\":1259:1571  function refund () public{... */\n    tag_53:\n        /* \"contracts/CrowdFunding.sol\":1318:1326  deadline */\n      sload(0x03)\n        /* \"contracts/CrowdFunding.sol\":1302:1317  block.timestamp */\n      timestamp\n        /* \"contracts/CrowdFunding.sol\":1302:1326  block.timestamp>deadline */\n      gt\n        /* \"contracts/CrowdFunding.sol\":1302:1349  block.timestamp>deadline && raisedAmount<target */\n      dup1\n      iszero\n      tag_121\n      jumpi\n      pop\n        /* \"contracts/CrowdFunding.sol\":1343:1349  target */\n      sload(0x04)\n        /* \"contracts/CrowdFunding.sol\":1330:1342  raisedAmount */\n      sload(0x05)\n        /* \"contracts/CrowdFunding.sol\":1330:1349  raisedAmount<target */\n      lt\n        /* \"contracts/CrowdFunding.sol\":1302:1349  block.timestamp>deadline && raisedAmount<target */\n    tag_121:\n        /* \"contracts/CrowdFunding.sol\":1294:1384  require(block.timestamp>deadline && raisedAmount<target,\"you are not eligible for refund\") */\n      tag_122\n      jumpi\n      mload(0x40)\n      0x08c379a000000000000000000000000000000000000000000000000000000000\n      dup2\n      mstore\n      0x04\n      add\n      tag_123\n      swap1\n      tag_124\n      jump\t// in\n    tag_123:\n      mload(0x40)\n      dup1\n      swap2\n      sub\n      swap1\n      revert\n    tag_122:\n        /* \"contracts/CrowdFunding.sol\":1427:1428  0 */\n      0x00\n        /* \"contracts/CrowdFunding.sol\":1402:1414  contributors */\n      dup1\n        /* \"contracts/CrowdFunding.sol\":1402:1426  contributors[msg.sender] */\n      0x00\n        /* \"contracts/CrowdFunding.sol\":1415:1425  msg.sender */\n      caller\n        /* \"contracts/CrowdFunding.sol\":1402:1426  contributors[msg.sender] */\n      0xffffffffffffffffffffffffffffffffffffffff\n      and\n      0xffffffffffffffffffffffffffffffffffffffff\n      and\n      dup2\n      mstore\n      0x20\n      add\n      swap1\n      dup2\n      mstore\n      0x20\n      add\n      0x00\n      keccak256\n      sload\n        /* \"contracts/CrowdFunding.sol\":1402:1428  contributors[msg.sender]>0 */\n      gt\n        /* \"contracts/CrowdFunding.sol\":1394:1429  require(contributors[msg.sender]>0) */\n      tag_125\n      jumpi\n      0x00\n      dup1\n      revert\n    tag_125:\n        /* \"contracts/CrowdFunding.sol\":1439:1459  address payable user */\n      0x00\n        /* \"contracts/CrowdFunding.sol\":1468:1478  msg.sender */\n      caller\n        /* \"contracts/CrowdFunding.sol\":1439:1479  address payable user=payable(msg.sender) */\n      swap1\n      pop\n        /* \"contracts/CrowdFunding.sol\":1489:1493  user */\n      dup1\n        /* \"contracts/CrowdFunding.sol\":1489:1502  user.transfer */\n      0xffffffffffffffffffffffffffffffffffffffff\n      and\n        /* \"contracts/CrowdFunding.sol\":1489:1528  user.transfer(contributors[msg.sender]) */\n      0x08fc\n        /* \"contracts/CrowdFunding.sol\":1503:1515  contributors */\n      0x00\n        /* \"contracts/CrowdFunding.sol\":1503:1527  contributors[msg.sender] */\n      dup1\n        /* \"contracts/CrowdFunding.sol\":1516:1526  msg.sender */\n      caller\n        /* \"contracts/CrowdFunding.sol\":1503:1527  contributors[msg.sender] */\n      0xffffffffffffffffffffffffffffffffffffffff\n      and\n      0xffffffffffffffffffffffffffffffffffffffff\n      and\n      dup2\n      mstore\n      0x20\n      add\n      swap1\n      dup2\n      mstore\n      0x20\n      add\n      0x00\n      keccak256\n      sload\n        /* \"contracts/CrowdFunding.sol\":1489:1528  user.transfer(contributors[msg.sender]) */\n      swap1\n      dup2\n      iszero\n      mul\n      swap1\n      mload(0x40)\n      0x00\n      mload(0x40)\n      dup1\n      dup4\n      sub\n      dup2\n      dup6\n      dup9\n      dup9\n      call\n      swap4\n      pop\n      pop\n      pop\n      pop\n      iszero\n      dup1\n      iszero\n      tag_127\n      jumpi\n      returndatasize\n      0x00\n      dup1\n      returndatacopy\n      revert(0x00, returndatasize)\n    tag_127:\n      pop\n        /* \"contracts/CrowdFunding.sol\":1563:1564  0 */\n      0x00\n        /* \"contracts/CrowdFunding.sol\":1538:1550  contributors */\n      dup1\n        /* \"contracts/CrowdFunding.sol\":1538:1562  contributors[msg.sender] */\n      0x00\n        /* \"contracts/CrowdFunding.sol\":1551:1561  msg.sender */\n      caller\n        /* \"contracts/CrowdFunding.sol\":1538:1562  contributors[msg.sender] */\n      0xffffffffffffffffffffffffffffffffffffffff\n      and\n      0xffffffffffffffffffffffffffffffffffffffff\n      and\n      dup2\n      mstore\n      0x20\n      add\n      swap1\n      dup2\n      mstore\n      0x20\n      add\n      0x00\n      keccak256\n        /* \"contracts/CrowdFunding.sol\":1538:1564  contributors[msg.sender]=0 */\n      dup2\n      swap1\n      sstore\n      pop\n        /* \"contracts/CrowdFunding.sol\":1284:1571  {... */\n      pop\n        /* \"contracts/CrowdFunding.sol\":1259:1571  function refund () public{... */\n      jump\t// out\n        /* \"contracts/CrowdFunding.sol\":1699:2086  function creteRequests(string memory _description,address payable _recipient,uint _value) public onlyManager{... */\n    tag_58:\n        /* \"contracts/CrowdFunding.sol\":1630:1637  manager */\n      0x01\n      0x00\n      swap1\n      sload\n      swap1\n      0x0100\n      exp\n      swap1\n      div\n      0xffffffffffffffffffffffffffffffffffffffff\n      and\n        /* \"contracts/CrowdFunding.sol\":1618:1637  msg.sender==manager */\n      0xffffffffffffffffffffffffffffffffffffffff\n      and\n        /* \"contracts/CrowdFunding.sol\":1618:1628  msg.sender */\n      caller\n        /* \"contracts/CrowdFunding.sol\":1618:1637  msg.sender==manager */\n      0xffffffffffffffffffffffffffffffffffffffff\n      and\n      eq\n        /* \"contracts/CrowdFunding.sol\":1609:1676  require (msg.sender==manager,\"only manager can call this function\") */\n      tag_129\n      jumpi\n      mload(0x40)\n      0x08c379a000000000000000000000000000000000000000000000000000000000\n      dup2\n      mstore\n      0x04\n      add\n      tag_130\n      swap1\n      tag_109\n      jump\t// in\n    tag_130:\n      mload(0x40)\n      dup1\n      swap2\n      sub\n      swap1\n      revert\n    tag_129:\n        /* \"contracts/CrowdFunding.sol\":1817:1843  Request storage newRequest */\n      0x00\n        /* \"contracts/CrowdFunding.sol\":1847:1855  requests */\n      0x07\n        /* \"contracts/CrowdFunding.sol\":1847:1868  requests[numRequests] */\n      0x00\n        /* \"contracts/CrowdFunding.sol\":1856:1867  numRequests */\n      sload(0x08)\n        /* \"contracts/CrowdFunding.sol\":1847:1868  requests[numRequests] */\n      dup2\n      mstore\n      0x20\n      add\n      swap1\n      dup2\n      mstore\n      0x20\n      add\n      0x00\n      keccak256\n        /* \"contracts/CrowdFunding.sol\":1817:1868  Request storage newRequest =  requests[numRequests] */\n      swap1\n      pop\n        /* \"contracts/CrowdFunding.sol\":1878:1889  numRequests */\n      0x08\n      0x00\n        /* \"contracts/CrowdFunding.sol\":1878:1891  numRequests++ */\n      dup2\n      sload\n      dup1\n      swap3\n      swap2\n      swap1\n      tag_132\n      swap1\n      tag_94\n      jump\t// in\n    tag_132:\n      swap2\n      swap1\n      pop\n      sstore\n      pop\n        /* \"contracts/CrowdFunding.sol\":1924:1936  _description */\n      dup4\n        /* \"contracts/CrowdFunding.sol\":1901:1911  newRequest */\n      dup2\n        /* \"contracts/CrowdFunding.sol\":1901:1923  newRequest.description */\n      0x00\n      add\n        /* \"contracts/CrowdFunding.sol\":1901:1936  newRequest.description=_description */\n      swap1\n      dup1\n      mload\n      swap1\n      0x20\n      add\n      swap1\n      tag_133\n      swap3\n      swap2\n      swap1\n      tag_134\n      jump\t// in\n    tag_133:\n      pop\n        /* \"contracts/CrowdFunding.sol\":1967:1977  _recipient */\n      dup3\n        /* \"contracts/CrowdFunding.sol\":1946:1956  newRequest */\n      dup2\n        /* \"contracts/CrowdFunding.sol\":1946:1966  newRequest.recipient */\n      0x01\n      add\n      0x00\n        /* \"contracts/CrowdFunding.sol\":1946:1977  newRequest.recipient=_recipient */\n      0x0100\n      exp\n      dup2\n      sload\n      dup2\n      0xffffffffffffffffffffffffffffffffffffffff\n      mul\n      not\n      and\n      swap1\n      dup4\n      0xffffffffffffffffffffffffffffffffffffffff\n      and\n      mul\n      or\n      swap1\n      sstore\n      pop\n        /* \"contracts/CrowdFunding.sol\":2004:2010  _value */\n      dup2\n        /* \"contracts/CrowdFunding.sol\":1987:1997  newRequest */\n      dup2\n        /* \"contracts/CrowdFunding.sol\":1987:2003  newRequest.value */\n      0x02\n      add\n        /* \"contracts/CrowdFunding.sol\":1987:2010  newRequest.value=_value */\n      dup2\n      swap1\n      sstore\n      pop\n        /* \"contracts/CrowdFunding.sol\":2041:2046  false */\n      0x00\n        /* \"contracts/CrowdFunding.sol\":2020:2030  newRequest */\n      dup2\n        /* \"contracts/CrowdFunding.sol\":2020:2040  newRequest.completed */\n      0x03\n      add\n      0x00\n        /* \"contracts/CrowdFunding.sol\":2020:2046  newRequest.completed=false */\n      0x0100\n      exp\n      dup2\n      sload\n      dup2\n      0xff\n      mul\n      not\n      and\n      swap1\n      dup4\n      iszero\n      iszero\n      mul\n      or\n      swap1\n      sstore\n      pop\n        /* \"contracts/CrowdFunding.sol\":2078:2079  0 */\n      0x00\n        /* \"contracts/CrowdFunding.sol\":2056:2066  newRequest */\n      dup2\n        /* \"contracts/CrowdFunding.sol\":2056:2077  newRequest.noOfVotors */\n      0x04\n      add\n        /* \"contracts/CrowdFunding.sol\":2056:2079  newRequest.noOfVotors=0 */\n      dup2\n      swap1\n      sstore\n      pop\n        /* \"contracts/CrowdFunding.sol\":1807:2086  {... */\n      pop\n        /* \"contracts/CrowdFunding.sol\":1699:2086  function creteRequests(string memory _description,address payable _recipient,uint _value) public onlyManager{... */\n      pop\n      pop\n      pop\n      jump\t// out\n        /* \"contracts/CrowdFunding.sol\":1150:1253  function getContractBalance() public view returns (uint) {... */\n    tag_61:\n        /* \"contracts/CrowdFunding.sol\":1201:1205  uint */\n      0x00\n        /* \"contracts/CrowdFunding.sol\":1224:1246  address (this).balance */\n      selfbalance\n        /* \"contracts/CrowdFunding.sol\":1217:1246  return address (this).balance */\n      swap1\n      pop\n        /* \"contracts/CrowdFunding.sol\":1150:1253  function getContractBalance() public view returns (uint) {... */\n      swap1\n      jump\t// out\n        /* \"contracts/CrowdFunding.sol\":521:559  mapping(uint=>Request) public requests */\n    tag_66:\n      mstore(0x20, 0x07)\n      dup1\n      0x00\n      mstore\n      keccak256(0x00, 0x40)\n      0x00\n      swap2\n      pop\n      swap1\n      pop\n      dup1\n      0x00\n      add\n      dup1\n      sload\n      tag_136\n      swap1\n      tag_137\n      jump\t// in\n    tag_136:\n      dup1\n      0x1f\n      add\n      0x20\n      dup1\n      swap2\n      div\n      mul\n      0x20\n      add\n      mload(0x40)\n      swap1\n      dup2\n      add\n      0x40\n      mstore\n      dup1\n      swap3\n      swap2\n      swap1\n      dup2\n      dup2\n      mstore\n      0x20\n      add\n      dup3\n      dup1\n      sload\n      tag_138\n      swap1\n      tag_137\n      jump\t// in\n    tag_138:\n      dup1\n      iszero\n      tag_139\n      jumpi\n      dup1\n      0x1f\n      lt\n      tag_140\n      jumpi\n      0x0100\n      dup1\n      dup4\n      sload\n      div\n      mul\n      dup4\n      mstore\n      swap2\n      0x20\n      add\n      swap2\n      jump(tag_139)\n    tag_140:\n      dup3\n      add\n      swap2\n      swap1\n      0x00\n      mstore\n      keccak256(0x00, 0x20)\n      swap1\n    tag_141:\n      dup2\n      sload\n      dup2\n      mstore\n      swap1\n      0x01\n      add\n      swap1\n      0x20\n      add\n      dup1\n      dup4\n      gt\n      tag_141\n      jumpi\n      dup3\n      swap1\n      sub\n      0x1f\n      and\n      dup3\n      add\n      swap2\n    tag_139:\n      pop\n      pop\n      pop\n      pop\n      pop\n      swap1\n      dup1\n      0x01\n      add\n      0x00\n      swap1\n      sload\n      swap1\n      0x0100\n      exp\n      swap1\n      div\n      0xffffffffffffffffffffffffffffffffffffffff\n      and\n      swap1\n      dup1\n      0x02\n      add\n      sload\n      swap1\n      dup1\n      0x03\n      add\n      0x00\n      swap1\n      sload\n      swap1\n      0x0100\n      exp\n      swap1\n      div\n      0xff\n      and\n      swap1\n      dup1\n      0x04\n      add\n      sload\n      swap1\n      pop\n      dup6\n      jump\t// out\n        /* \"contracts/CrowdFunding.sol\":172:203  uint public minimumContribution */\n    tag_71:\n      sload(0x02)\n      dup2\n      jump\t// out\n        /* \"contracts/CrowdFunding.sol\":565:588  uint public numRequests */\n    tag_75:\n      sload(0x08)\n      dup2\n      jump\t// out\n        /* \"contracts/CrowdFunding.sol\":259:283  uint public raisedAmount */\n    tag_79:\n      sload(0x05)\n      dup2\n      jump\t// out\n        /* \"contracts/CrowdFunding.sol\":235:253  uint public target */\n    tag_83:\n      sload(0x04)\n      dup2\n      jump\t// out\n    tag_134:\n      dup3\n      dup1\n      sload\n      tag_142\n      swap1\n      tag_137\n      jump\t// in\n    tag_142:\n      swap1\n      0x00\n      mstore\n      keccak256(0x00, 0x20)\n      swap1\n      0x1f\n      add\n      0x20\n      swap1\n      div\n      dup2\n      add\n      swap3\n      dup3\n      tag_144\n      jumpi\n      0x00\n      dup6\n      sstore\n      jump(tag_143)\n    tag_144:\n      dup3\n      0x1f\n      lt\n      tag_145\n      jumpi\n      dup1\n      mload\n      not(0xff)\n      and\n      dup4\n      dup1\n      add\n      or\n      dup6\n      sstore\n      jump(tag_143)\n    tag_145:\n      dup3\n      dup1\n      add\n      0x01\n      add\n      dup6\n      sstore\n      dup3\n      iszero\n      tag_143\n      jumpi\n      swap2\n      dup3\n      add\n    tag_146:\n      dup3\n      dup2\n      gt\n      iszero\n      tag_147\n      jumpi\n      dup3\n      mload\n      dup3\n      sstore\n      swap2\n      0x20\n      add\n      swap2\n      swap1\n      0x01\n      add\n      swap1\n      jump(tag_146)\n    tag_147:\n    tag_143:\n      pop\n      swap1\n      pop\n      tag_148\n      swap2\n      swap1\n      tag_149\n      jump\t// in\n    tag_148:\n      pop\n      swap1\n      jump\t// out\n    tag_149:\n    tag_150:\n      dup1\n      dup3\n      gt\n      iszero\n      tag_151\n      jumpi\n      0x00\n      dup2\n      0x00\n      swap1\n      sstore\n      pop\n      0x01\n      add\n      jump(tag_150)\n    tag_151:\n      pop\n      swap1\n      jump\t// out\n        /* \"#utility.yul\":7:419   */\n    tag_153:\n        /* \"#utility.yul\":85:90   */\n      0x00\n        /* \"#utility.yul\":110:176   */\n      tag_155\n        /* \"#utility.yul\":126:175   */\n      tag_156\n        /* \"#utility.yul\":168:174   */\n      dup5\n        /* \"#utility.yul\":126:175   */\n      tag_157\n      jump\t// in\n    tag_156:\n        /* \"#utility.yul\":110:176   */\n      tag_158\n      jump\t// in\n    tag_155:\n        /* \"#utility.yul\":101:176   */\n      swap1\n      pop\n        /* \"#utility.yul\":199:205   */\n      dup3\n        /* \"#utility.yul\":192:197   */\n      dup2\n        /* \"#utility.yul\":185:206   */\n      mstore\n        /* \"#utility.yul\":237:241   */\n      0x20\n        /* \"#utility.yul\":230:235   */\n      dup2\n        /* \"#utility.yul\":226:242   */\n      add\n        /* \"#utility.yul\":275:278   */\n      dup5\n        /* \"#utility.yul\":266:272   */\n      dup5\n        /* \"#utility.yul\":261:264   */\n      dup5\n        /* \"#utility.yul\":257:273   */\n      add\n        /* \"#utility.yul\":254:279   */\n      gt\n        /* \"#utility.yul\":251:363   */\n      iszero\n      tag_159\n      jumpi\n        /* \"#utility.yul\":282:361   */\n      tag_160\n      tag_161\n      jump\t// in\n    tag_160:\n        /* \"#utility.yul\":251:363   */\n    tag_159:\n        /* \"#utility.yul\":372:413   */\n      tag_162\n        /* \"#utility.yul\":406:412   */\n      dup5\n        /* \"#utility.yul\":401:404   */\n      dup3\n        /* \"#utility.yul\":396:399   */\n      dup6\n        /* \"#utility.yul\":372:413   */\n      tag_163\n      jump\t// in\n    tag_162:\n        /* \"#utility.yul\":91:419   */\n      pop\n        /* \"#utility.yul\":7:419   */\n      swap4\n      swap3\n      pop\n      pop\n      pop\n      jump\t// out\n        /* \"#utility.yul\":425:564   */\n    tag_164:\n        /* \"#utility.yul\":471:476   */\n      0x00\n        /* \"#utility.yul\":509:515   */\n      dup2\n        /* \"#utility.yul\":496:516   */\n      calldataload\n        /* \"#utility.yul\":487:516   */\n      swap1\n      pop\n        /* \"#utility.yul\":525:558   */\n      tag_166\n        /* \"#utility.yul\":552:557   */\n      dup2\n        /* \"#utility.yul\":525:558   */\n      tag_167\n      jump\t// in\n    tag_166:\n        /* \"#utility.yul\":425:564   */\n      swap3\n      swap2\n      pop\n      pop\n      jump\t// out\n        /* \"#utility.yul\":570:725   */\n    tag_168:\n        /* \"#utility.yul\":624:629   */\n      0x00\n        /* \"#utility.yul\":662:668   */\n      dup2\n        /* \"#utility.yul\":649:669   */\n      calldataload\n        /* \"#utility.yul\":640:669   */\n      swap1\n      pop\n        /* \"#utility.yul\":678:719   */\n      tag_170\n        /* \"#utility.yul\":713:718   */\n      dup2\n        /* \"#utility.yul\":678:719   */\n      tag_171\n      jump\t// in\n    tag_170:\n        /* \"#utility.yul\":570:725   */\n      swap3\n      swap2\n      pop\n      pop\n      jump\t// out\n        /* \"#utility.yul\":745:1085   */\n    tag_172:\n        /* \"#utility.yul\":801:806   */\n      0x00\n        /* \"#utility.yul\":850:853   */\n      dup3\n        /* \"#utility.yul\":843:847   */\n      0x1f\n        /* \"#utility.yul\":835:841   */\n      dup4\n        /* \"#utility.yul\":831:848   */\n      add\n        /* \"#utility.yul\":827:854   */\n      slt\n        /* \"#utility.yul\":817:939   */\n      tag_174\n      jumpi\n        /* \"#utility.yul\":858:937   */\n      tag_175\n      tag_176\n      jump\t// in\n    tag_175:\n        /* \"#utility.yul\":817:939   */\n    tag_174:\n        /* \"#utility.yul\":975:981   */\n      dup2\n        /* \"#utility.yul\":962:982   */\n      calldataload\n        /* \"#utility.yul\":1000:1079   */\n      tag_177\n        /* \"#utility.yul\":1075:1078   */\n      dup5\n        /* \"#utility.yul\":1067:1073   */\n      dup3\n        /* \"#utility.yul\":1060:1064   */\n      0x20\n        /* \"#utility.yul\":1052:1058   */\n      dup7\n        /* \"#utility.yul\":1048:1065   */\n      add\n        /* \"#utility.yul\":1000:1079   */\n      tag_153\n      jump\t// in\n    tag_177:\n        /* \"#utility.yul\":991:1079   */\n      swap2\n      pop\n        /* \"#utility.yul\":807:1085   */\n      pop\n        /* \"#utility.yul\":745:1085   */\n      swap3\n      swap2\n      pop\n      pop\n      jump\t// out\n        /* \"#utility.yul\":1091:1230   */\n    tag_178:\n        /* \"#utility.yul\":1137:1142   */\n      0x00\n        /* \"#utility.yul\":1175:1181   */\n      dup2\n        /* \"#utility.yul\":1162:1182   */\n      calldataload\n        /* \"#utility.yul\":1153:1182   */\n      swap1\n      pop\n        /* \"#utility.yul\":1191:1224   */\n      tag_180\n        /* \"#utility.yul\":1218:1223   */\n      dup2\n        /* \"#utility.yul\":1191:1224   */\n      tag_181\n      jump\t// in\n    tag_180:\n        /* \"#utility.yul\":1091:1230   */\n      swap3\n      swap2\n      pop\n      pop\n      jump\t// out\n        /* \"#utility.yul\":1236:1565   */\n    tag_25:\n        /* \"#utility.yul\":1295:1301   */\n      0x00\n        /* \"#utility.yul\":1344:1346   */\n      0x20\n        /* \"#utility.yul\":1332:1341   */\n      dup3\n        /* \"#utility.yul\":1323:1330   */\n      dup5\n        /* \"#utility.yul\":1319:1342   */\n      sub\n        /* \"#utility.yul\":1315:1347   */\n      slt\n        /* \"#utility.yul\":1312:1431   */\n      iszero\n      tag_183\n      jumpi\n        /* \"#utility.yul\":1350:1429   */\n      tag_184\n      tag_185\n      jump\t// in\n    tag_184:\n        /* \"#utility.yul\":1312:1431   */\n    tag_183:\n        /* \"#utility.yul\":1470:1471   */\n      0x00\n        /* \"#utility.yul\":1495:1548   */\n      tag_186\n        /* \"#utility.yul\":1540:1547   */\n      dup5\n        /* \"#utility.yul\":1531:1537   */\n      dup3\n        /* \"#utility.yul\":1520:1529   */\n      dup6\n        /* \"#utility.yul\":1516:1538   */\n      add\n        /* \"#utility.yul\":1495:1548   */\n      tag_164\n      jump\t// in\n    tag_186:\n        /* \"#utility.yul\":1485:1548   */\n      swap2\n      pop\n        /* \"#utility.yul\":1441:1558   */\n      pop\n        /* \"#utility.yul\":1236:1565   */\n      swap3\n      swap2\n      pop\n      pop\n      jump\t// out\n        /* \"#utility.yul\":1571:2386   */\n    tag_57:\n        /* \"#utility.yul\":1666:1672   */\n      0x00\n        /* \"#utility.yul\":1674:1680   */\n      dup1\n        /* \"#utility.yul\":1682:1688   */\n      0x00\n        /* \"#utility.yul\":1731:1733   */\n      0x60\n        /* \"#utility.yul\":1719:1728   */\n      dup5\n        /* \"#utility.yul\":1710:1717   */\n      dup7\n        /* \"#utility.yul\":1706:1729   */\n      sub\n        /* \"#utility.yul\":1702:1734   */\n      slt\n        /* \"#utility.yul\":1699:1818   */\n      iszero\n      tag_188\n      jumpi\n        /* \"#utility.yul\":1737:1816   */\n      tag_189\n      tag_185\n      jump\t// in\n    tag_189:\n        /* \"#utility.yul\":1699:1818   */\n    tag_188:\n        /* \"#utility.yul\":1885:1886   */\n      0x00\n        /* \"#utility.yul\":1874:1883   */\n      dup5\n        /* \"#utility.yul\":1870:1887   */\n      add\n        /* \"#utility.yul\":1857:1888   */\n      calldataload\n        /* \"#utility.yul\":1915:1933   */\n      0xffffffffffffffff\n        /* \"#utility.yul\":1907:1913   */\n      dup2\n        /* \"#utility.yul\":1904:1934   */\n      gt\n        /* \"#utility.yul\":1901:2018   */\n      iszero\n      tag_190\n      jumpi\n        /* \"#utility.yul\":1937:2016   */\n      tag_191\n      tag_192\n      jump\t// in\n    tag_191:\n        /* \"#utility.yul\":1901:2018   */\n    tag_190:\n        /* \"#utility.yul\":2042:2105   */\n      tag_193\n        /* \"#utility.yul\":2097:2104   */\n      dup7\n        /* \"#utility.yul\":2088:2094   */\n      dup3\n        /* \"#utility.yul\":2077:2086   */\n      dup8\n        /* \"#utility.yul\":2073:2095   */\n      add\n        /* \"#utility.yul\":2042:2105   */\n      tag_172\n      jump\t// in\n    tag_193:\n        /* \"#utility.yul\":2032:2105   */\n      swap4\n      pop\n        /* \"#utility.yul\":1828:2115   */\n      pop\n        /* \"#utility.yul\":2154:2156   */\n      0x20\n        /* \"#utility.yul\":2180:2241   */\n      tag_194\n        /* \"#utility.yul\":2233:2240   */\n      dup7\n        /* \"#utility.yul\":2224:2230   */\n      dup3\n        /* \"#utility.yul\":2213:2222   */\n      dup8\n        /* \"#utility.yul\":2209:2231   */\n      add\n        /* \"#utility.yul\":2180:2241   */\n      tag_168\n      jump\t// in\n    tag_194:\n        /* \"#utility.yul\":2170:2241   */\n      swap3\n      pop\n        /* \"#utility.yul\":2125:2251   */\n      pop\n        /* \"#utility.yul\":2290:2292   */\n      0x40\n        /* \"#utility.yul\":2316:2369   */\n      tag_195\n        /* \"#utility.yul\":2361:2368   */\n      dup7\n        /* \"#utility.yul\":2352:2358   */\n      dup3\n        /* \"#utility.yul\":2341:2350   */\n      dup8\n        /* \"#utility.yul\":2337:2359   */\n      add\n        /* \"#utility.yul\":2316:2369   */\n      tag_178\n      jump\t// in\n    tag_195:\n        /* \"#utility.yul\":2306:2369   */\n      swap2\n      pop\n        /* \"#utility.yul\":2261:2379   */\n      pop\n        /* \"#utility.yul\":1571:2386   */\n      swap3\n      pop\n      swap3\n      pop\n      swap3\n      jump\t// out\n        /* \"#utility.yul\":2392:2721   */\n    tag_41:\n        /* \"#utility.yul\":2451:2457   */\n      0x00\n        /* \"#utility.yul\":2500:2502   */\n      0x20\n        /* \"#utility.yul\":2488:2497   */\n      dup3\n        /* \"#utility.yul\":2479:2486   */\n      dup5\n        /* \"#utility.yul\":2475:2498   */\n      sub\n        /* \"#utility.yul\":2471:2503   */\n      slt\n        /* \"#utility.yul\":2468:2587   */\n      iszero\n      tag_197\n      jumpi\n        /* \"#utility.yul\":2506:2585   */\n      tag_198\n      tag_185\n      jump\t// in\n    tag_198:\n        /* \"#utility.yul\":2468:2587   */\n    tag_197:\n        /* \"#utility.yul\":2626:2627   */\n      0x00\n        /* \"#utility.yul\":2651:2704   */\n      tag_199\n        /* \"#utility.yul\":2696:2703   */\n      dup5\n        /* \"#utility.yul\":2687:2693   */\n      dup3\n        /* \"#utility.yul\":2676:2685   */\n      dup6\n        /* \"#utility.yul\":2672:2694   */\n      add\n        /* \"#utility.yul\":2651:2704   */\n      tag_178\n      jump\t// in\n    tag_199:\n        /* \"#utility.yul\":2641:2704   */\n      swap2\n      pop\n        /* \"#utility.yul\":2597:2714   */\n      pop\n        /* \"#utility.yul\":2392:2721   */\n      swap3\n      swap2\n      pop\n      pop\n      jump\t// out\n        /* \"#utility.yul\":2727:2869   */\n    tag_200:\n        /* \"#utility.yul\":2830:2862   */\n      tag_202\n        /* \"#utility.yul\":2856:2861   */\n      dup2\n        /* \"#utility.yul\":2830:2862   */\n      tag_203\n      jump\t// in\n    tag_202:\n        /* \"#utility.yul\":2825:2828   */\n      dup3\n        /* \"#utility.yul\":2818:2863   */\n      mstore\n        /* \"#utility.yul\":2727:2869   */\n      pop\n      pop\n      jump\t// out\n        /* \"#utility.yul\":2875:2993   */\n    tag_204:\n        /* \"#utility.yul\":2962:2986   */\n      tag_206\n        /* \"#utility.yul\":2980:2985   */\n      dup2\n        /* \"#utility.yul\":2962:2986   */\n      tag_207\n      jump\t// in\n    tag_206:\n        /* \"#utility.yul\":2957:2960   */\n      dup3\n        /* \"#utility.yul\":2950:2987   */\n      mstore\n        /* \"#utility.yul\":2875:2993   */\n      pop\n      pop\n      jump\t// out\n        /* \"#utility.yul\":2999:3108   */\n    tag_208:\n        /* \"#utility.yul\":3080:3101   */\n      tag_210\n        /* \"#utility.yul\":3095:3100   */\n      dup2\n        /* \"#utility.yul\":3080:3101   */\n      tag_211\n      jump\t// in\n    tag_210:\n        /* \"#utility.yul\":3075:3078   */\n      dup3\n        /* \"#utility.yul\":3068:3102   */\n      mstore\n        /* \"#utility.yul\":2999:3108   */\n      pop\n      pop\n      jump\t// out\n        /* \"#utility.yul\":3114:3478   */\n    tag_212:\n        /* \"#utility.yul\":3202:3205   */\n      0x00\n        /* \"#utility.yul\":3230:3269   */\n      tag_214\n        /* \"#utility.yul\":3263:3268   */\n      dup3\n        /* \"#utility.yul\":3230:3269   */\n      tag_215\n      jump\t// in\n    tag_214:\n        /* \"#utility.yul\":3285:3356   */\n      tag_216\n        /* \"#utility.yul\":3349:3355   */\n      dup2\n        /* \"#utility.yul\":3344:3347   */\n      dup6\n        /* \"#utility.yul\":3285:3356   */\n      tag_217\n      jump\t// in\n    tag_216:\n        /* \"#utility.yul\":3278:3356   */\n      swap4\n      pop\n        /* \"#utility.yul\":3365:3417   */\n      tag_218\n        /* \"#utility.yul\":3410:3416   */\n      dup2\n        /* \"#utility.yul\":3405:3408   */\n      dup6\n        /* \"#utility.yul\":3398:3402   */\n      0x20\n        /* \"#utility.yul\":3391:3396   */\n      dup7\n        /* \"#utility.yul\":3387:3403   */\n      add\n        /* \"#utility.yul\":3365:3417   */\n      tag_219\n      jump\t// in\n    tag_218:\n        /* \"#utility.yul\":3442:3471   */\n      tag_220\n        /* \"#utility.yul\":3464:3470   */\n      dup2\n        /* \"#utility.yul\":3442:3471   */\n      tag_221\n      jump\t// in\n    tag_220:\n        /* \"#utility.yul\":3437:3440   */\n      dup5\n        /* \"#utility.yul\":3433:3472   */\n      add\n        /* \"#utility.yul\":3426:3472   */\n      swap2\n      pop\n        /* \"#utility.yul\":3206:3478   */\n      pop\n        /* \"#utility.yul\":3114:3478   */\n      swap3\n      swap2\n      pop\n      pop\n      jump\t// out\n        /* \"#utility.yul\":3484:3850   */\n    tag_222:\n        /* \"#utility.yul\":3626:3629   */\n      0x00\n        /* \"#utility.yul\":3647:3714   */\n      tag_224\n        /* \"#utility.yul\":3711:3713   */\n      0x1f\n        /* \"#utility.yul\":3706:3709   */\n      dup4\n        /* \"#utility.yul\":3647:3714   */\n      tag_217\n      jump\t// in\n    tag_224:\n        /* \"#utility.yul\":3640:3714   */\n      swap2\n      pop\n        /* \"#utility.yul\":3723:3816   */\n      tag_225\n        /* \"#utility.yul\":3812:3815   */\n      dup3\n        /* \"#utility.yul\":3723:3816   */\n      tag_226\n      jump\t// in\n    tag_225:\n        /* \"#utility.yul\":3841:3843   */\n      0x20\n        /* \"#utility.yul\":3836:3839   */\n      dup3\n        /* \"#utility.yul\":3832:3844   */\n      add\n        /* \"#utility.yul\":3825:3844   */\n      swap1\n      pop\n        /* \"#utility.yul\":3484:3850   */\n      swap2\n      swap1\n      pop\n      jump\t// out\n        /* \"#utility.yul\":3856:4222   */\n    tag_227:\n        /* \"#utility.yul\":3998:4001   */\n      0x00\n        /* \"#utility.yul\":4019:4086   */\n      tag_229\n        /* \"#utility.yul\":4083:4085   */\n      0x16\n        /* \"#utility.yul\":4078:4081   */\n      dup4\n        /* \"#utility.yul\":4019:4086   */\n      tag_217\n      jump\t// in\n    tag_229:\n        /* \"#utility.yul\":4012:4086   */\n      swap2\n      pop\n        /* \"#utility.yul\":4095:4188   */\n      tag_230\n        /* \"#utility.yul\":4184:4187   */\n      dup3\n        /* \"#utility.yul\":4095:4188   */\n      tag_231\n      jump\t// in\n    tag_230:\n        /* \"#utility.yul\":4213:4215   */\n      0x20\n        /* \"#utility.yul\":4208:4211   */\n      dup3\n        /* \"#utility.yul\":4204:4216   */\n      add\n        /* \"#utility.yul\":4197:4216   */\n      swap1\n      pop\n        /* \"#utility.yul\":3856:4222   */\n      swap2\n      swap1\n      pop\n      jump\t// out\n        /* \"#utility.yul\":4228:4594   */\n    tag_232:\n        /* \"#utility.yul\":4370:4373   */\n      0x00\n        /* \"#utility.yul\":4391:4458   */\n      tag_234\n        /* \"#utility.yul\":4455:4457   */\n      0x17\n        /* \"#utility.yul\":4450:4453   */\n      dup4\n        /* \"#utility.yul\":4391:4458   */\n      tag_217\n      jump\t// in\n    tag_234:\n        /* \"#utility.yul\":4384:4458   */\n      swap2\n      pop\n        /* \"#utility.yul\":4467:4560   */\n      tag_235\n        /* \"#utility.yul\":4556:4559   */\n      dup3\n        /* \"#utility.yul\":4467:4560   */\n      tag_236\n      jump\t// in\n    tag_235:\n        /* \"#utility.yul\":4585:4587   */\n      0x20\n        /* \"#utility.yul\":4580:4583   */\n      dup3\n        /* \"#utility.yul\":4576:4588   */\n      add\n        /* \"#utility.yul\":4569:4588   */\n      swap1\n      pop\n        /* \"#utility.yul\":4228:4594   */\n      swap2\n      swap1\n      pop\n      jump\t// out\n        /* \"#utility.yul\":4600:4966   */\n    tag_237:\n        /* \"#utility.yul\":4742:4745   */\n      0x00\n        /* \"#utility.yul\":4763:4830   */\n      tag_239\n        /* \"#utility.yul\":4827:4829   */\n      0x16\n        /* \"#utility.yul\":4822:4825   */\n      dup4\n        /* \"#utility.yul\":4763:4830   */\n      tag_217\n      jump\t// in\n    tag_239:\n        /* \"#utility.yul\":4756:4830   */\n      swap2\n      pop\n        /* \"#utility.yul\":4839:4932   */\n      tag_240\n        /* \"#utility.yul\":4928:4931   */\n      dup3\n        /* \"#utility.yul\":4839:4932   */\n      tag_241\n      jump\t// in\n    tag_240:\n        /* \"#utility.yul\":4957:4959   */\n      0x20\n        /* \"#utility.yul\":4952:4955   */\n      dup3\n        /* \"#utility.yul\":4948:4960   */\n      add\n        /* \"#utility.yul\":4941:4960   */\n      swap1\n      pop\n        /* \"#utility.yul\":4600:4966   */\n      swap2\n      swap1\n      pop\n      jump\t// out\n        /* \"#utility.yul\":4972:5338   */\n    tag_242:\n        /* \"#utility.yul\":5114:5117   */\n      0x00\n        /* \"#utility.yul\":5135:5202   */\n      tag_244\n        /* \"#utility.yul\":5199:5201   */\n      0x23\n        /* \"#utility.yul\":5194:5197   */\n      dup4\n        /* \"#utility.yul\":5135:5202   */\n      tag_217\n      jump\t// in\n    tag_244:\n        /* \"#utility.yul\":5128:5202   */\n      swap2\n      pop\n        /* \"#utility.yul\":5211:5304   */\n      tag_245\n        /* \"#utility.yul\":5300:5303   */\n      dup3\n        /* \"#utility.yul\":5211:5304   */\n      tag_246\n      jump\t// in\n    tag_245:\n        /* \"#utility.yul\":5329:5331   */\n      0x40\n        /* \"#utility.yul\":5324:5327   */\n      dup3\n        /* \"#utility.yul\":5320:5332   */\n      add\n        /* \"#utility.yul\":5313:5332   */\n      swap1\n      pop\n        /* \"#utility.yul\":4972:5338   */\n      swap2\n      swap1\n      pop\n      jump\t// out\n        /* \"#utility.yul\":5344:5710   */\n    tag_247:\n        /* \"#utility.yul\":5486:5489   */\n      0x00\n        /* \"#utility.yul\":5507:5574   */\n      tag_249\n        /* \"#utility.yul\":5571:5573   */\n      0x11\n        /* \"#utility.yul\":5566:5569   */\n      dup4\n        /* \"#utility.yul\":5507:5574   */\n      tag_217\n      jump\t// in\n    tag_249:\n        /* \"#utility.yul\":5500:5574   */\n      swap2\n      pop\n        /* \"#utility.yul\":5583:5676   */\n      tag_250\n        /* \"#utility.yul\":5672:5675   */\n      dup3\n        /* \"#utility.yul\":5583:5676   */\n      tag_251\n      jump\t// in\n    tag_250:\n        /* \"#utility.yul\":5701:5703   */\n      0x20\n        /* \"#utility.yul\":5696:5699   */\n      dup3\n        /* \"#utility.yul\":5692:5704   */\n      add\n        /* \"#utility.yul\":5685:5704   */\n      swap1\n      pop\n        /* \"#utility.yul\":5344:5710   */\n      swap2\n      swap1\n      pop\n      jump\t// out\n        /* \"#utility.yul\":5716:6082   */\n    tag_252:\n        /* \"#utility.yul\":5858:5861   */\n      0x00\n        /* \"#utility.yul\":5879:5946   */\n      tag_254\n        /* \"#utility.yul\":5943:5945   */\n      0x1e\n        /* \"#utility.yul\":5938:5941   */\n      dup4\n        /* \"#utility.yul\":5879:5946   */\n      tag_217\n      jump\t// in\n    tag_254:\n        /* \"#utility.yul\":5872:5946   */\n      swap2\n      pop\n        /* \"#utility.yul\":5955:6048   */\n      tag_255\n        /* \"#utility.yul\":6044:6047   */\n      dup3\n        /* \"#utility.yul\":5955:6048   */\n      tag_256\n      jump\t// in\n    tag_255:\n        /* \"#utility.yul\":6073:6075   */\n      0x20\n        /* \"#utility.yul\":6068:6071   */\n      dup3\n        /* \"#utility.yul\":6064:6076   */\n      add\n        /* \"#utility.yul\":6057:6076   */\n      swap1\n      pop\n        /* \"#utility.yul\":5716:6082   */\n      swap2\n      swap1\n      pop\n      jump\t// out\n        /* \"#utility.yul\":6088:6454   */\n    tag_257:\n        /* \"#utility.yul\":6230:6233   */\n      0x00\n        /* \"#utility.yul\":6251:6318   */\n      tag_259\n        /* \"#utility.yul\":6315:6317   */\n      0x1f\n        /* \"#utility.yul\":6310:6313   */\n      dup4\n        /* \"#utility.yul\":6251:6318   */\n      tag_217\n      jump\t// in\n    tag_259:\n        /* \"#utility.yul\":6244:6318   */\n      swap2\n      pop\n        /* \"#utility.yul\":6327:6420   */\n      tag_260\n        /* \"#utility.yul\":6416:6419   */\n      dup3\n        /* \"#utility.yul\":6327:6420   */\n      tag_261\n      jump\t// in\n    tag_260:\n        /* \"#utility.yul\":6445:6447   */\n      0x20\n        /* \"#utility.yul\":6440:6443   */\n      dup3\n        /* \"#utility.yul\":6436:6448   */\n      add\n        /* \"#utility.yul\":6429:6448   */\n      swap1\n      pop\n        /* \"#utility.yul\":6088:6454   */\n      swap2\n      swap1\n      pop\n      jump\t// out\n        /* \"#utility.yul\":6460:6578   */\n    tag_262:\n        /* \"#utility.yul\":6547:6571   */\n      tag_264\n        /* \"#utility.yul\":6565:6570   */\n      dup2\n        /* \"#utility.yul\":6547:6571   */\n      tag_265\n      jump\t// in\n    tag_264:\n        /* \"#utility.yul\":6542:6545   */\n      dup3\n        /* \"#utility.yul\":6535:6572   */\n      mstore\n        /* \"#utility.yul\":6460:6578   */\n      pop\n      pop\n      jump\t// out\n        /* \"#utility.yul\":6584:6806   */\n    tag_37:\n        /* \"#utility.yul\":6677:6681   */\n      0x00\n        /* \"#utility.yul\":6715:6717   */\n      0x20\n        /* \"#utility.yul\":6704:6713   */\n      dup3\n        /* \"#utility.yul\":6700:6718   */\n      add\n        /* \"#utility.yul\":6692:6718   */\n      swap1\n      pop\n        /* \"#utility.yul\":6728:6799   */\n      tag_267\n        /* \"#utility.yul\":6796:6797   */\n      0x00\n        /* \"#utility.yul\":6785:6794   */\n      dup4\n        /* \"#utility.yul\":6781:6798   */\n      add\n        /* \"#utility.yul\":6772:6778   */\n      dup5\n        /* \"#utility.yul\":6728:6799   */\n      tag_204\n      jump\t// in\n    tag_267:\n        /* \"#utility.yul\":6584:6806   */\n      swap3\n      swap2\n      pop\n      pop\n      jump\t// out\n        /* \"#utility.yul\":6812:7587   */\n    tag_68:\n        /* \"#utility.yul\":7047:7051   */\n      0x00\n        /* \"#utility.yul\":7085:7088   */\n      0xa0\n        /* \"#utility.yul\":7074:7083   */\n      dup3\n        /* \"#utility.yul\":7070:7089   */\n      add\n        /* \"#utility.yul\":7062:7089   */\n      swap1\n      pop\n        /* \"#utility.yul\":7135:7144   */\n      dup2\n        /* \"#utility.yul\":7129:7133   */\n      dup2\n        /* \"#utility.yul\":7125:7145   */\n      sub\n        /* \"#utility.yul\":7121:7122   */\n      0x00\n        /* \"#utility.yul\":7110:7119   */\n      dup4\n        /* \"#utility.yul\":7106:7123   */\n      add\n        /* \"#utility.yul\":7099:7146   */\n      mstore\n        /* \"#utility.yul\":7163:7241   */\n      tag_269\n        /* \"#utility.yul\":7236:7240   */\n      dup2\n        /* \"#utility.yul\":7227:7233   */\n      dup9\n        /* \"#utility.yul\":7163:7241   */\n      tag_212\n      jump\t// in\n    tag_269:\n        /* \"#utility.yul\":7155:7241   */\n      swap1\n      pop\n        /* \"#utility.yul\":7251:7339   */\n      tag_270\n        /* \"#utility.yul\":7335:7337   */\n      0x20\n        /* \"#utility.yul\":7324:7333   */\n      dup4\n        /* \"#utility.yul\":7320:7338   */\n      add\n        /* \"#utility.yul\":7311:7317   */\n      dup8\n        /* \"#utility.yul\":7251:7339   */\n      tag_200\n      jump\t// in\n    tag_270:\n        /* \"#utility.yul\":7349:7421   */\n      tag_271\n        /* \"#utility.yul\":7417:7419   */\n      0x40\n        /* \"#utility.yul\":7406:7415   */\n      dup4\n        /* \"#utility.yul\":7402:7420   */\n      add\n        /* \"#utility.yul\":7393:7399   */\n      dup7\n        /* \"#utility.yul\":7349:7421   */\n      tag_262\n      jump\t// in\n    tag_271:\n        /* \"#utility.yul\":7431:7497   */\n      tag_272\n        /* \"#utility.yul\":7493:7495   */\n      0x60\n        /* \"#utility.yul\":7482:7491   */\n      dup4\n        /* \"#utility.yul\":7478:7496   */\n      add\n        /* \"#utility.yul\":7469:7475   */\n      dup6\n        /* \"#utility.yul\":7431:7497   */\n      tag_208\n      jump\t// in\n    tag_272:\n        /* \"#utility.yul\":7507:7580   */\n      tag_273\n        /* \"#utility.yul\":7575:7578   */\n      0x80\n        /* \"#utility.yul\":7564:7573   */\n      dup4\n        /* \"#utility.yul\":7560:7579   */\n      add\n        /* \"#utility.yul\":7551:7557   */\n      dup5\n        /* \"#utility.yul\":7507:7580   */\n      tag_262\n      jump\t// in\n    tag_273:\n        /* \"#utility.yul\":6812:7587   */\n      swap7\n      swap6\n      pop\n      pop\n      pop\n      pop\n      pop\n      pop\n      jump\t// out\n        /* \"#utility.yul\":7593:8012   */\n    tag_91:\n        /* \"#utility.yul\":7759:7763   */\n      0x00\n        /* \"#utility.yul\":7797:7799   */\n      0x20\n        /* \"#utility.yul\":7786:7795   */\n      dup3\n        /* \"#utility.yul\":7782:7800   */\n      add\n        /* \"#utility.yul\":7774:7800   */\n      swap1\n      pop\n        /* \"#utility.yul\":7846:7855   */\n      dup2\n        /* \"#utility.yul\":7840:7844   */\n      dup2\n        /* \"#utility.yul\":7836:7856   */\n      sub\n        /* \"#utility.yul\":7832:7833   */\n      0x00\n        /* \"#utility.yul\":7821:7830   */\n      dup4\n        /* \"#utility.yul\":7817:7834   */\n      add\n        /* \"#utility.yul\":7810:7857   */\n      mstore\n        /* \"#utility.yul\":7874:8005   */\n      tag_275\n        /* \"#utility.yul\":8000:8004   */\n      dup2\n        /* \"#utility.yul\":7874:8005   */\n      tag_222\n      jump\t// in\n    tag_275:\n        /* \"#utility.yul\":7866:8005   */\n      swap1\n      pop\n        /* \"#utility.yul\":7593:8012   */\n      swap2\n      swap1\n      pop\n      jump\t// out\n        /* \"#utility.yul\":8018:8437   */\n    tag_104:\n        /* \"#utility.yul\":8184:8188   */\n      0x00\n        /* \"#utility.yul\":8222:8224   */\n      0x20\n        /* \"#utility.yul\":8211:8220   */\n      dup3\n        /* \"#utility.yul\":8207:8225   */\n      add\n        /* \"#utility.yul\":8199:8225   */\n      swap1\n      pop\n        /* \"#utility.yul\":8271:8280   */\n      dup2\n        /* \"#utility.yul\":8265:8269   */\n      dup2\n        /* \"#utility.yul\":8261:8281   */\n      sub\n        /* \"#utility.yul\":8257:8258   */\n      0x00\n        /* \"#utility.yul\":8246:8255   */\n      dup4\n        /* \"#utility.yul\":8242:8259   */\n      add\n        /* \"#utility.yul\":8235:8282   */\n      mstore\n        /* \"#utility.yul\":8299:8430   */\n      tag_277\n        /* \"#utility.yul\":8425:8429   */\n      dup2\n        /* \"#utility.yul\":8299:8430   */\n      tag_227\n      jump\t// in\n    tag_277:\n        /* \"#utility.yul\":8291:8430   */\n      swap1\n      pop\n        /* \"#utility.yul\":8018:8437   */\n      swap2\n      swap1\n      pop\n      jump\t// out\n        /* \"#utility.yul\":8443:8862   */\n    tag_101:\n        /* \"#utility.yul\":8609:8613   */\n      0x00\n        /* \"#utility.yul\":8647:8649   */\n      0x20\n        /* \"#utility.yul\":8636:8645   */\n      dup3\n        /* \"#utility.yul\":8632:8650   */\n      add\n        /* \"#utility.yul\":8624:8650   */\n      swap1\n      pop\n        /* \"#utility.yul\":8696:8705   */\n      dup2\n        /* \"#utility.yul\":8690:8694   */\n      dup2\n        /* \"#utility.yul\":8686:8706   */\n      sub\n        /* \"#utility.yul\":8682:8683   */\n      0x00\n        /* \"#utility.yul\":8671:8680   */\n      dup4\n        /* \"#utility.yul\":8667:8684   */\n      add\n        /* \"#utility.yul\":8660:8707   */\n      mstore\n        /* \"#utility.yul\":8724:8855   */\n      tag_279\n        /* \"#utility.yul\":8850:8854   */\n      dup2\n        /* \"#utility.yul\":8724:8855   */\n      tag_232\n      jump\t// in\n    tag_279:\n        /* \"#utility.yul\":8716:8855   */\n      swap1\n      pop\n        /* \"#utility.yul\":8443:8862   */\n      swap2\n      swap1\n      pop\n      jump\t// out\n        /* \"#utility.yul\":8868:9287   */\n    tag_119:\n        /* \"#utility.yul\":9034:9038   */\n      0x00\n        /* \"#utility.yul\":9072:9074   */\n      0x20\n        /* \"#utility.yul\":9061:9070   */\n      dup3\n        /* \"#utility.yul\":9057:9075   */\n      add\n        /* \"#utility.yul\":9049:9075   */\n      swap1\n      pop\n        /* \"#utility.yul\":9121:9130   */\n      dup2\n        /* \"#utility.yul\":9115:9119   */\n      dup2\n        /* \"#utility.yul\":9111:9131   */\n      sub\n        /* \"#utility.yul\":9107:9108   */\n      0x00\n        /* \"#utility.yul\":9096:9105   */\n      dup4\n        /* \"#utility.yul\":9092:9109   */\n      add\n        /* \"#utility.yul\":9085:9132   */\n      mstore\n        /* \"#utility.yul\":9149:9280   */\n      tag_281\n        /* \"#utility.yul\":9275:9279   */\n      dup2\n        /* \"#utility.yul\":9149:9280   */\n      tag_237\n      jump\t// in\n    tag_281:\n        /* \"#utility.yul\":9141:9280   */\n      swap1\n      pop\n        /* \"#utility.yul\":8868:9287   */\n      swap2\n      swap1\n      pop\n      jump\t// out\n        /* \"#utility.yul\":9293:9712   */\n    tag_109:\n        /* \"#utility.yul\":9459:9463   */\n      0x00\n        /* \"#utility.yul\":9497:9499   */\n      0x20\n        /* \"#utility.yul\":9486:9495   */\n      dup3\n        /* \"#utility.yul\":9482:9500   */\n      add\n        /* \"#utility.yul\":9474:9500   */\n      swap1\n      pop\n        /* \"#utility.yul\":9546:9555   */\n      dup2\n        /* \"#utility.yul\":9540:9544   */\n      dup2\n        /* \"#utility.yul\":9536:9556   */\n      sub\n        /* \"#utility.yul\":9532:9533   */\n      0x00\n        /* \"#utility.yul\":9521:9530   */\n      dup4\n        /* \"#utility.yul\":9517:9534   */\n      add\n        /* \"#utility.yul\":9510:9557   */\n      mstore\n        /* \"#utility.yul\":9574:9705   */\n      tag_283\n        /* \"#utility.yul\":9700:9704   */\n      dup2\n        /* \"#utility.yul\":9574:9705   */\n      tag_242\n      jump\t// in\n    tag_283:\n        /* \"#utility.yul\":9566:9705   */\n      swap1\n      pop\n        /* \"#utility.yul\":9293:9712   */\n      swap2\n      swap1\n      pop\n      jump\t// out\n        /* \"#utility.yul\":9718:10137   */\n    tag_88:\n        /* \"#utility.yul\":9884:9888   */\n      0x00\n        /* \"#utility.yul\":9922:9924   */\n      0x20\n        /* \"#utility.yul\":9911:9920   */\n      dup3\n        /* \"#utility.yul\":9907:9925   */\n      add\n        /* \"#utility.yul\":9899:9925   */\n      swap1\n      pop\n        /* \"#utility.yul\":9971:9980   */\n      dup2\n        /* \"#utility.yul\":9965:9969   */\n      dup2\n        /* \"#utility.yul\":9961:9981   */\n      sub\n        /* \"#utility.yul\":9957:9958   */\n      0x00\n        /* \"#utility.yul\":9946:9955   */\n      dup4\n        /* \"#utility.yul\":9942:9959   */\n      add\n        /* \"#utility.yul\":9935:9982   */\n      mstore\n        /* \"#utility.yul\":9999:10130   */\n      tag_285\n        /* \"#utility.yul\":10125:10129   */\n      dup2\n        /* \"#utility.yul\":9999:10130   */\n      tag_247\n      jump\t// in\n    tag_285:\n        /* \"#utility.yul\":9991:10130   */\n      swap1\n      pop\n        /* \"#utility.yul\":9718:10137   */\n      swap2\n      swap1\n      pop\n      jump\t// out\n        /* \"#utility.yul\":10143:10562   */\n    tag_114:\n        /* \"#utility.yul\":10309:10313   */\n      0x00\n        /* \"#utility.yul\":10347:10349   */\n      0x20\n        /* \"#utility.yul\":10336:10345   */\n      dup3\n        /* \"#utility.yul\":10332:10350   */\n      add\n        /* \"#utility.yul\":10324:10350   */\n      swap1\n      pop\n        /* \"#utility.yul\":10396:10405   */\n      dup2\n        /* \"#utility.yul\":10390:10394   */\n      dup2\n        /* \"#utility.yul\":10386:10406   */\n      sub\n        /* \"#utility.yul\":10382:10383   */\n      0x00\n        /* \"#utility.yul\":10371:10380   */\n      dup4\n        /* \"#utility.yul\":10367:10384   */\n      add\n        /* \"#utility.yul\":10360:10407   */\n      mstore\n        /* \"#utility.yul\":10424:10555   */\n      tag_287\n        /* \"#utility.yul\":10550:10554   */\n      dup2\n        /* \"#utility.yul\":10424:10555   */\n      tag_252\n      jump\t// in\n    tag_287:\n        /* \"#utility.yul\":10416:10555   */\n      swap1\n      pop\n        /* \"#utility.yul\":10143:10562   */\n      swap2\n      swap1\n      pop\n      jump\t// out\n        /* \"#utility.yul\":10568:10987   */\n    tag_124:\n        /* \"#utility.yul\":10734:10738   */\n      0x00\n        /* \"#utility.yul\":10772:10774   */\n      0x20\n        /* \"#utility.yul\":10761:10770   */\n      dup3\n        /* \"#utility.yul\":10757:10775   */\n      add\n        /* \"#utility.yul\":10749:10775   */\n      swap1\n      pop\n        /* \"#utility.yul\":10821:10830   */\n      dup2\n        /* \"#utility.yul\":10815:10819   */\n      dup2\n        /* \"#utility.yul\":10811:10831   */\n      sub\n        /* \"#utility.yul\":10807:10808   */\n      0x00\n        /* \"#utility.yul\":10796:10805   */\n      dup4\n        /* \"#utility.yul\":10792:10809   */\n      add\n        /* \"#utility.yul\":10785:10832   */\n      mstore\n        /* \"#utility.yul\":10849:10980   */\n      tag_289\n        /* \"#utility.yul\":10975:10979   */\n      dup2\n        /* \"#utility.yul\":10849:10980   */\n      tag_257\n      jump\t// in\n    tag_289:\n        /* \"#utility.yul\":10841:10980   */\n      swap1\n      pop\n        /* \"#utility.yul\":10568:10987   */\n      swap2\n      swap1\n      pop\n      jump\t// out\n        /* \"#utility.yul\":10993:11215   */\n    tag_28:\n        /* \"#utility.yul\":11086:11090   */\n      0x00\n        /* \"#utility.yul\":11124:11126   */\n      0x20\n        /* \"#utility.yul\":11113:11122   */\n      dup3\n        /* \"#utility.yul\":11109:11127   */\n      add\n        /* \"#utility.yul\":11101:11127   */\n      swap1\n      pop\n        /* \"#utility.yul\":11137:11208   */\n      tag_291\n        /* \"#utility.yul\":11205:11206   */\n      0x00\n        /* \"#utility.yul\":11194:11203   */\n      dup4\n        /* \"#utility.yul\":11190:11207   */\n      add\n        /* \"#utility.yul\":11181:11187   */\n      dup5\n        /* \"#utility.yul\":11137:11208   */\n      tag_262\n      jump\t// in\n    tag_291:\n        /* \"#utility.yul\":10993:11215   */\n      swap3\n      swap2\n      pop\n      pop\n      jump\t// out\n        /* \"#utility.yul\":11221:11350   */\n    tag_158:\n        /* \"#utility.yul\":11255:11261   */\n      0x00\n        /* \"#utility.yul\":11282:11302   */\n      tag_293\n      tag_294\n      jump\t// in\n    tag_293:\n        /* \"#utility.yul\":11272:11302   */\n      swap1\n      pop\n        /* \"#utility.yul\":11311:11344   */\n      tag_295\n        /* \"#utility.yul\":11339:11343   */\n      dup3\n        /* \"#utility.yul\":11331:11337   */\n      dup3\n        /* \"#utility.yul\":11311:11344   */\n      tag_296\n      jump\t// in\n    tag_295:\n        /* \"#utility.yul\":11221:11350   */\n      swap2\n      swap1\n      pop\n      jump\t// out\n        /* \"#utility.yul\":11356:11431   */\n    tag_294:\n        /* \"#utility.yul\":11389:11395   */\n      0x00\n        /* \"#utility.yul\":11422:11424   */\n      0x40\n        /* \"#utility.yul\":11416:11425   */\n      mload\n        /* \"#utility.yul\":11406:11425   */\n      swap1\n      pop\n        /* \"#utility.yul\":11356:11431   */\n      swap1\n      jump\t// out\n        /* \"#utility.yul\":11437:11745   */\n    tag_157:\n        /* \"#utility.yul\":11499:11503   */\n      0x00\n        /* \"#utility.yul\":11589:11607   */\n      0xffffffffffffffff\n        /* \"#utility.yul\":11581:11587   */\n      dup3\n        /* \"#utility.yul\":11578:11608   */\n      gt\n        /* \"#utility.yul\":11575:11631   */\n      iszero\n      tag_299\n      jumpi\n        /* \"#utility.yul\":11611:11629   */\n      tag_300\n      tag_301\n      jump\t// in\n    tag_300:\n        /* \"#utility.yul\":11575:11631   */\n    tag_299:\n        /* \"#utility.yul\":11649:11678   */\n      tag_302\n        /* \"#utility.yul\":11671:11677   */\n      dup3\n        /* \"#utility.yul\":11649:11678   */\n      tag_221\n      jump\t// in\n    tag_302:\n        /* \"#utility.yul\":11641:11678   */\n      swap1\n      pop\n        /* \"#utility.yul\":11733:11737   */\n      0x20\n        /* \"#utility.yul\":11727:11731   */\n      dup2\n        /* \"#utility.yul\":11723:11738   */\n      add\n        /* \"#utility.yul\":11715:11738   */\n      swap1\n      pop\n        /* \"#utility.yul\":11437:11745   */\n      swap2\n      swap1\n      pop\n      jump\t// out\n        /* \"#utility.yul\":11751:11850   */\n    tag_215:\n        /* \"#utility.yul\":11803:11809   */\n      0x00\n        /* \"#utility.yul\":11837:11842   */\n      dup2\n        /* \"#utility.yul\":11831:11843   */\n      mload\n        /* \"#utility.yul\":11821:11843   */\n      swap1\n      pop\n        /* \"#utility.yul\":11751:11850   */\n      swap2\n      swap1\n      pop\n      jump\t// out\n        /* \"#utility.yul\":11856:12025   */\n    tag_217:\n        /* \"#utility.yul\":11940:11951   */\n      0x00\n        /* \"#utility.yul\":11974:11980   */\n      dup3\n        /* \"#utility.yul\":11969:11972   */\n      dup3\n        /* \"#utility.yul\":11962:11981   */\n      mstore\n        /* \"#utility.yul\":12014:12018   */\n      0x20\n        /* \"#utility.yul\":12009:12012   */\n      dup3\n        /* \"#utility.yul\":12005:12019   */\n      add\n        /* \"#utility.yul\":11990:12019   */\n      swap1\n      pop\n        /* \"#utility.yul\":11856:12025   */\n      swap3\n      swap2\n      pop\n      pop\n      jump\t// out\n        /* \"#utility.yul\":12031:12336   */\n    tag_96:\n        /* \"#utility.yul\":12071:12074   */\n      0x00\n        /* \"#utility.yul\":12090:12110   */\n      tag_306\n        /* \"#utility.yul\":12108:12109   */\n      dup3\n        /* \"#utility.yul\":12090:12110   */\n      tag_265\n      jump\t// in\n    tag_306:\n        /* \"#utility.yul\":12085:12110   */\n      swap2\n      pop\n        /* \"#utility.yul\":12124:12144   */\n      tag_307\n        /* \"#utility.yul\":12142:12143   */\n      dup4\n        /* \"#utility.yul\":12124:12144   */\n      tag_265\n      jump\t// in\n    tag_307:\n        /* \"#utility.yul\":12119:12144   */\n      swap3\n      pop\n        /* \"#utility.yul\":12278:12279   */\n      dup3\n        /* \"#utility.yul\":12210:12276   */\n      0xffffffffffffffffffffffffffffffffffffffffffffffffffffffffffffffff\n        /* \"#utility.yul\":12206:12280   */\n      sub\n        /* \"#utility.yul\":12203:12204   */\n      dup3\n        /* \"#utility.yul\":12200:12281   */\n      gt\n        /* \"#utility.yul\":12197:12304   */\n      iszero\n      tag_308\n      jumpi\n        /* \"#utility.yul\":12284:12302   */\n      tag_309\n      tag_310\n      jump\t// in\n    tag_309:\n        /* \"#utility.yul\":12197:12304   */\n    tag_308:\n        /* \"#utility.yul\":12328:12329   */\n      dup3\n        /* \"#utility.yul\":12325:12326   */\n      dup3\n        /* \"#utility.yul\":12321:12330   */\n      add\n        /* \"#utility.yul\":12314:12330   */\n      swap1\n      pop\n        /* \"#utility.yul\":12031:12336   */\n      swap3\n      swap2\n      pop\n      pop\n      jump\t// out\n        /* \"#utility.yul\":12342:12527   */\n    tag_116:\n        /* \"#utility.yul\":12382:12383   */\n      0x00\n        /* \"#utility.yul\":12399:12419   */\n      tag_312\n        /* \"#utility.yul\":12417:12418   */\n      dup3\n        /* \"#utility.yul\":12399:12419   */\n      tag_265\n      jump\t// in\n    tag_312:\n        /* \"#utility.yul\":12394:12419   */\n      swap2\n      pop\n        /* \"#utility.yul\":12433:12453   */\n      tag_313\n        /* \"#utility.yul\":12451:12452   */\n      dup4\n        /* \"#utility.yul\":12433:12453   */\n      tag_265\n      jump\t// in\n    tag_313:\n        /* \"#utility.yul\":12428:12453   */\n      swap3\n      pop\n        /* \"#utility.yul\":12472:12473   */\n      dup3\n        /* \"#utility.yul\":12462:12497   */\n      tag_314\n      jumpi\n        /* \"#utility.yul\":12477:12495   */\n      tag_315\n      tag_316\n      jump\t// in\n    tag_315:\n        /* \"#utility.yul\":12462:12497   */\n    tag_314:\n        /* \"#utility.yul\":12519:12520   */\n      dup3\n        /* \"#utility.yul\":12516:12517   */\n      dup3\n        /* \"#utility.yul\":12512:12521   */\n      div\n        /* \"#utility.yul\":12507:12521   */\n      swap1\n      pop\n        /* \"#utility.yul\":12342:12527   */\n      swap3\n      swap2\n      pop\n      pop\n      jump\t// out\n        /* \"#utility.yul\":12533:12629   */\n    tag_207:\n        /* \"#utility.yul\":12570:12577   */\n      0x00\n        /* \"#utility.yul\":12599:12623   */\n      tag_318\n        /* \"#utility.yul\":12617:12622   */\n      dup3\n        /* \"#utility.yul\":12599:12623   */\n      tag_319\n      jump\t// in\n    tag_318:\n        /* \"#utility.yul\":12588:12623   */\n      swap1\n      pop\n        /* \"#utility.yul\":12533:12629   */\n      swap2\n      swap1\n      pop\n      jump\t// out\n        /* \"#utility.yul\":12635:12739   */\n    tag_203:\n        /* \"#utility.yul\":12680:12687   */\n      0x00\n        /* \"#utility.yul\":12709:12733   */\n      tag_321\n        /* \"#utility.yul\":12727:12732   */\n      dup3\n        /* \"#utility.yul\":12709:12733   */\n      tag_319\n      jump\t// in\n    tag_321:\n        /* \"#utility.yul\":12698:12733   */\n      swap1\n      pop\n        /* \"#utility.yul\":12635:12739   */\n      swap2\n      swap1\n      pop\n      jump\t// out\n        /* \"#utility.yul\":12745:12835   */\n    tag_211:\n        /* \"#utility.yul\":12779:12786   */\n      0x00\n        /* \"#utility.yul\":12822:12827   */\n      dup2\n        /* \"#utility.yul\":12815:12828   */\n      iszero\n        /* \"#utility.yul\":12808:12829   */\n      iszero\n        /* \"#utility.yul\":12797:12829   */\n      swap1\n      pop\n        /* \"#utility.yul\":12745:12835   */\n      swap2\n      swap1\n      pop\n      jump\t// out\n        /* \"#utility.yul\":12841:12967   */\n    tag_319:\n        /* \"#utility.yul\":12878:12885   */\n      0x00\n        /* \"#utility.yul\":12918:12960   */\n      0xffffffffffffffffffffffffffffffffffffffff\n        /* \"#utility.yul\":12911:12916   */\n      dup3\n        /* \"#utility.yul\":12907:12961   */\n      and\n        /* \"#utility.yul\":12896:12961   */\n      swap1\n      pop\n        /* \"#utility.yul\":12841:12967   */\n      swap2\n      swap1\n      pop\n      jump\t// out\n        /* \"#utility.yul\":12973:13050   */\n    tag_265:\n        /* \"#utility.yul\":13010:13017   */\n      0x00\n        /* \"#utility.yul\":13039:13044   */\n      dup2\n        /* \"#utility.yul\":13028:13044   */\n      swap1\n      pop\n        /* \"#utility.yul\":12973:13050   */\n      swap2\n      swap1\n      pop\n      jump\t// out\n        /* \"#utility.yul\":13056:13210   */\n    tag_163:\n        /* \"#utility.yul\":13140:13146   */\n      dup3\n        /* \"#utility.yul\":13135:13138   */\n      dup2\n        /* \"#utility.yul\":13130:13133   */\n      dup4\n        /* \"#utility.yul\":13117:13147   */\n      calldatacopy\n        /* \"#utility.yul\":13202:13203   */\n      0x00\n        /* \"#utility.yul\":13193:13199   */\n      dup4\n        /* \"#utility.yul\":13188:13191   */\n      dup4\n        /* \"#utility.yul\":13184:13200   */\n      add\n        /* \"#utility.yul\":13177:13204   */\n      mstore\n        /* \"#utility.yul\":13056:13210   */\n      pop\n      pop\n      pop\n      jump\t// out\n        /* \"#utility.yul\":13216:13523   */\n    tag_219:\n        /* \"#utility.yul\":13284:13285   */\n      0x00\n        /* \"#utility.yul\":13294:13407   */\n    tag_327:\n        /* \"#utility.yul\":13308:13314   */\n      dup4\n        /* \"#utility.yul\":13305:13306   */\n      dup2\n        /* \"#utility.yul\":13302:13315   */\n      lt\n        /* \"#utility.yul\":13294:13407   */\n      iszero\n      tag_329\n      jumpi\n        /* \"#utility.yul\":13393:13394   */\n      dup1\n        /* \"#utility.yul\":13388:13391   */\n      dup3\n        /* \"#utility.yul\":13384:13395   */\n      add\n        /* \"#utility.yul\":13378:13396   */\n      mload\n        /* \"#utility.yul\":13374:13375   */\n      dup2\n        /* \"#utility.yul\":13369:13372   */\n      dup5\n        /* \"#utility.yul\":13365:13376   */\n      add\n        /* \"#utility.yul\":13358:13397   */\n      mstore\n        /* \"#utility.yul\":13330:13332   */\n      0x20\n        /* \"#utility.yul\":13327:13328   */\n      dup2\n        /* \"#utility.yul\":13323:13333   */\n      add\n        /* \"#utility.yul\":13318:13333   */\n      swap1\n      pop\n        /* \"#utility.yul\":13294:13407   */\n      jump(tag_327)\n    tag_329:\n        /* \"#utility.yul\":13425:13431   */\n      dup4\n        /* \"#utility.yul\":13422:13423   */\n      dup2\n        /* \"#utility.yul\":13419:13432   */\n      gt\n        /* \"#utility.yul\":13416:13517   */\n      iszero\n      tag_330\n      jumpi\n        /* \"#utility.yul\":13505:13506   */\n      0x00\n        /* \"#utility.yul\":13496:13502   */\n      dup5\n        /* \"#utility.yul\":13491:13494   */\n      dup5\n        /* \"#utility.yul\":13487:13503   */\n      add\n        /* \"#utility.yul\":13480:13507   */\n      mstore\n        /* \"#utility.yul\":13416:13517   */\n    tag_330:\n        /* \"#utility.yul\":13265:13523   */\n      pop\n        /* \"#utility.yul\":13216:13523   */\n      pop\n      pop\n      pop\n      jump\t// out\n        /* \"#utility.yul\":13529:13849   */\n    tag_137:\n        /* \"#utility.yul\":13573:13579   */\n      0x00\n        /* \"#utility.yul\":13610:13611   */\n      0x02\n        /* \"#utility.yul\":13604:13608   */\n      dup3\n        /* \"#utility.yul\":13600:13612   */\n      div\n        /* \"#utility.yul\":13590:13612   */\n      swap1\n      pop\n        /* \"#utility.yul\":13657:13658   */\n      0x01\n        /* \"#utility.yul\":13651:13655   */\n      dup3\n        /* \"#utility.yul\":13647:13659   */\n      and\n        /* \"#utility.yul\":13678:13696   */\n      dup1\n        /* \"#utility.yul\":13668:13749   */\n      tag_332\n      jumpi\n        /* \"#utility.yul\":13734:13738   */\n      0x7f\n        /* \"#utility.yul\":13726:13732   */\n      dup3\n        /* \"#utility.yul\":13722:13739   */\n      and\n        /* \"#utility.yul\":13712:13739   */\n      swap2\n      pop\n        /* \"#utility.yul\":13668:13749   */\n    tag_332:\n        /* \"#utility.yul\":13796:13798   */\n      0x20\n        /* \"#utility.yul\":13788:13794   */\n      dup3\n        /* \"#utility.yul\":13785:13799   */\n      lt\n        /* \"#utility.yul\":13765:13783   */\n      dup2\n        /* \"#utility.yul\":13762:13800   */\n      eq\n        /* \"#utility.yul\":13759:13843   */\n      iszero\n      tag_333\n      jumpi\n        /* \"#utility.yul\":13815:13833   */\n      tag_334\n      tag_335\n      jump\t// in\n    tag_334:\n        /* \"#utility.yul\":13759:13843   */\n    tag_333:\n        /* \"#utility.yul\":13580:13849   */\n      pop\n        /* \"#utility.yul\":13529:13849   */\n      swap2\n      swap1\n      pop\n      jump\t// out\n        /* \"#utility.yul\":13855:14136   */\n    tag_296:\n        /* \"#utility.yul\":13938:13965   */\n      tag_337\n        /* \"#utility.yul\":13960:13964   */\n      dup3\n        /* \"#utility.yul\":13938:13965   */\n      tag_221\n      jump\t// in\n    tag_337:\n        /* \"#utility.yul\":13930:13936   */\n      dup2\n        /* \"#utility.yul\":13926:13966   */\n      add\n        /* \"#utility.yul\":14068:14074   */\n      dup2\n        /* \"#utility.yul\":14056:14066   */\n      dup2\n        /* \"#utility.yul\":14053:14075   */\n      lt\n        /* \"#utility.yul\":14032:14050   */\n      0xffffffffffffffff\n        /* \"#utility.yul\":14020:14030   */\n      dup3\n        /* \"#utility.yul\":14017:14051   */\n      gt\n        /* \"#utility.yul\":14014:14076   */\n      or\n        /* \"#utility.yul\":14011:14099   */\n      iszero\n      tag_338\n      jumpi\n        /* \"#utility.yul\":14079:14097   */\n      tag_339\n      tag_301\n      jump\t// in\n    tag_339:\n        /* \"#utility.yul\":14011:14099   */\n    tag_338:\n        /* \"#utility.yul\":14119:14129   */\n      dup1\n        /* \"#utility.yul\":14115:14117   */\n      0x40\n        /* \"#utility.yul\":14108:14130   */\n      mstore\n        /* \"#utility.yul\":13898:14136   */\n      pop\n        /* \"#utility.yul\":13855:14136   */\n      pop\n      pop\n      jump\t// out\n        /* \"#utility.yul\":14142:14375   */\n    tag_94:\n        /* \"#utility.yul\":14181:14184   */\n      0x00\n        /* \"#utility.yul\":14204:14228   */\n      tag_341\n        /* \"#utility.yul\":14222:14227   */\n      dup3\n        /* \"#utility.yul\":14204:14228   */\n      tag_265\n      jump\t// in\n    tag_341:\n        /* \"#utility.yul\":14195:14228   */\n      swap2\n      pop\n        /* \"#utility.yul\":14250:14316   */\n      0xffffffffffffffffffffffffffffffffffffffffffffffffffffffffffffffff\n        /* \"#utility.yul\":14243:14248   */\n      dup3\n        /* \"#utility.yul\":14240:14317   */\n      eq\n        /* \"#utility.yul\":14237:14340   */\n      iszero\n      tag_342\n      jumpi\n        /* \"#utility.yul\":14320:14338   */\n      tag_343\n      tag_310\n      jump\t// in\n    tag_343:\n        /* \"#utility.yul\":14237:14340   */\n    tag_342:\n        /* \"#utility.yul\":14367:14368   */\n      0x01\n        /* \"#utility.yul\":14360:14365   */\n      dup3\n        /* \"#utility.yul\":14356:14369   */\n      add\n        /* \"#utility.yul\":14349:14369   */\n      swap1\n      pop\n        /* \"#utility.yul\":14142:14375   */\n      swap2\n      swap1\n      pop\n      jump\t// out\n        /* \"#utility.yul\":14381:14561   */\n    tag_310:\n        /* \"#utility.yul\":14429:14506   */\n      0x4e487b7100000000000000000000000000000000000000000000000000000000\n        /* \"#utility.yul\":14426:14427   */\n      0x00\n        /* \"#utility.yul\":14419:14507   */\n      mstore\n        /* \"#utility.yul\":14526:14530   */\n      0x11\n        /* \"#utility.yul\":14523:14524   */\n      0x04\n        /* \"#utility.yul\":14516:14531   */\n      mstore\n        /* \"#utility.yul\":14550:14554   */\n      0x24\n        /* \"#utility.yul\":14547:14548   */\n      0x00\n        /* \"#utility.yul\":14540:14555   */\n      revert\n        /* \"#utility.yul\":14567:14747   */\n    tag_316:\n        /* \"#utility.yul\":14615:14692   */\n      0x4e487b7100000000000000000000000000000000000000000000000000000000\n        /* \"#utility.yul\":14612:14613   */\n      0x00\n        /* \"#utility.yul\":14605:14693   */\n      mstore\n        /* \"#utility.yul\":14712:14716   */\n      0x12\n        /* \"#utility.yul\":14709:14710   */\n      0x04\n        /* \"#utility.yul\":14702:14717   */\n      mstore\n        /* \"#utility.yul\":14736:14740   */\n      0x24\n        /* \"#utility.yul\":14733:14734   */\n      0x00\n        /* \"#utility.yul\":14726:14741   */\n      revert\n        /* \"#utility.yul\":14753:14933   */\n    tag_335:\n        /* \"#utility.yul\":14801:14878   */\n      0x4e487b7100000000000000000000000000000000000000000000000000000000\n        /* \"#utility.yul\":14798:14799   */\n      0x00\n        /* \"#utility.yul\":14791:14879   */\n      mstore\n        /* \"#utility.yul\":14898:14902   */\n      0x22\n        /* \"#utility.yul\":14895:14896   */\n      0x04\n        /* \"#utility.yul\":14888:14903   */\n      mstore\n        /* \"#utility.yul\":14922:14926   */\n      0x24\n        /* \"#utility.yul\":14919:14920   */\n      0x00\n        /* \"#utility.yul\":14912:14927   */\n      revert\n        /* \"#utility.yul\":14939:15119   */\n    tag_301:\n        /* \"#utility.yul\":14987:15064   */\n      0x4e487b7100000000000000000000000000000000000000000000000000000000\n        /* \"#utility.yul\":14984:14985   */\n      0x00\n        /* \"#utility.yul\":14977:15065   */\n      mstore\n        /* \"#utility.yul\":15084:15088   */\n      0x41\n        /* \"#utility.yul\":15081:15082   */\n      0x04\n        /* \"#utility.yul\":15074:15089   */\n      mstore\n        /* \"#utility.yul\":15108:15112   */\n      0x24\n        /* \"#utility.yul\":15105:15106   */\n      0x00\n        /* \"#utility.yul\":15098:15113   */\n      revert\n        /* \"#utility.yul\":15125:15242   */\n    tag_176:\n        /* \"#utility.yul\":15234:15235   */\n      0x00\n        /* \"#utility.yul\":15231:15232   */\n      dup1\n        /* \"#utility.yul\":15224:15236   */\n      revert\n        /* \"#utility.yul\":15248:15365   */\n    tag_161:\n        /* \"#utility.yul\":15357:15358   */\n      0x00\n        /* \"#utility.yul\":15354:15355   */\n      dup1\n        /* \"#utility.yul\":15347:15359   */\n      revert\n        /* \"#utility.yul\":15371:15488   */\n    tag_192:\n        /* \"#utility.yul\":15480:15481   */\n      0x00\n        /* \"#utility.yul\":15477:15478   */\n      dup1\n        /* \"#utility.yul\":15470:15482   */\n      revert\n        /* \"#utility.yul\":15494:15611   */\n    tag_185:\n        /* \"#utility.yul\":15603:15604   */\n      0x00\n        /* \"#utility.yul\":15600:15601   */\n      dup1\n        /* \"#utility.yul\":15593:15605   */\n      revert\n        /* \"#utility.yul\":15617:15719   */\n    tag_221:\n        /* \"#utility.yul\":15658:15664   */\n      0x00\n        /* \"#utility.yul\":15709:15711   */\n      0x1f\n        /* \"#utility.yul\":15705:15712   */\n      not\n        /* \"#utility.yul\":15700:15702   */\n      0x1f\n        /* \"#utility.yul\":15693:15698   */\n      dup4\n        /* \"#utility.yul\":15689:15703   */\n      add\n        /* \"#utility.yul\":15685:15713   */\n      and\n        /* \"#utility.yul\":15675:15713   */\n      swap1\n      pop\n        /* \"#utility.yul\":15617:15719   */\n      swap2\n      swap1\n      pop\n      jump\t// out\n        /* \"#utility.yul\":15725:15906   */\n    tag_226:\n        /* \"#utility.yul\":15865:15898   */\n      0x4d696e696d756d20436f6e747269627574696f6e206973206e6f74206d657400\n        /* \"#utility.yul\":15861:15862   */\n      0x00\n        /* \"#utility.yul\":15853:15859   */\n      dup3\n        /* \"#utility.yul\":15849:15863   */\n      add\n        /* \"#utility.yul\":15842:15899   */\n      mstore\n        /* \"#utility.yul\":15725:15906   */\n      pop\n      jump\t// out\n        /* \"#utility.yul\":15912:16084   */\n    tag_231:\n        /* \"#utility.yul\":16052:16076   */\n      0x796f75206861766520616c726561647920766f74656400000000000000000000\n        /* \"#utility.yul\":16048:16049   */\n      0x00\n        /* \"#utility.yul\":16040:16046   */\n      dup3\n        /* \"#utility.yul\":16036:16050   */\n      add\n        /* \"#utility.yul\":16029:16077   */\n      mstore\n        /* \"#utility.yul\":15912:16084   */\n      pop\n      jump\t// out\n        /* \"#utility.yul\":16090:16263   */\n    tag_236:\n        /* \"#utility.yul\":16230:16255   */\n      0x796f75206d75737420626520636f6e7472696275746f72000000000000000000\n        /* \"#utility.yul\":16226:16227   */\n      0x00\n        /* \"#utility.yul\":16218:16224   */\n      dup3\n        /* \"#utility.yul\":16214:16228   */\n      add\n        /* \"#utility.yul\":16207:16256   */\n      mstore\n        /* \"#utility.yul\":16090:16263   */\n      pop\n      jump\t// out\n        /* \"#utility.yul\":16269:16441   */\n    tag_241:\n        /* \"#utility.yul\":16409:16433   */\n      0x6d616a6f7269747920646f6573206e6f74207375707000000000000000000000\n        /* \"#utility.yul\":16405:16406   */\n      0x00\n        /* \"#utility.yul\":16397:16403   */\n      dup3\n        /* \"#utility.yul\":16393:16407   */\n      add\n        /* \"#utility.yul\":16386:16434   */\n      mstore\n        /* \"#utility.yul\":16269:16441   */\n      pop\n      jump\t// out\n        /* \"#utility.yul\":16447:16669   */\n    tag_246:\n        /* \"#utility.yul\":16587:16621   */\n      0x6f6e6c79206d616e616765722063616e2063616c6c20746869732066756e6374\n        /* \"#utility.yul\":16583:16584   */\n      0x00\n        /* \"#utility.yul\":16575:16581   */\n      dup3\n        /* \"#utility.yul\":16571:16585   */\n      add\n        /* \"#utility.yul\":16564:16622   */\n      mstore\n        /* \"#utility.yul\":16656:16661   */\n      0x696f6e0000000000000000000000000000000000000000000000000000000000\n        /* \"#utility.yul\":16651:16653   */\n      0x20\n        /* \"#utility.yul\":16643:16649   */\n      dup3\n        /* \"#utility.yul\":16639:16654   */\n      add\n        /* \"#utility.yul\":16632:16662   */\n      mstore\n        /* \"#utility.yul\":16447:16669   */\n      pop\n      jump\t// out\n        /* \"#utility.yul\":16675:16842   */\n    tag_251:\n        /* \"#utility.yul\":16815:16834   */\n      0x446561646c696e6520686173206f766572000000000000000000000000000000\n        /* \"#utility.yul\":16811:16812   */\n      0x00\n        /* \"#utility.yul\":16803:16809   */\n      dup3\n        /* \"#utility.yul\":16799:16813   */\n      add\n        /* \"#utility.yul\":16792:16835   */\n      mstore\n        /* \"#utility.yul\":16675:16842   */\n      pop\n      jump\t// out\n        /* \"#utility.yul\":16848:17028   */\n    tag_256:\n        /* \"#utility.yul\":16988:17020   */\n      0x746865207265717565737420686173206265656e20636f6d706c697465640000\n        /* \"#utility.yul\":16984:16985   */\n      0x00\n        /* \"#utility.yul\":16976:16982   */\n      dup3\n        /* \"#utility.yul\":16972:16986   */\n      add\n        /* \"#utility.yul\":16965:17021   */\n      mstore\n        /* \"#utility.yul\":16848:17028   */\n      pop\n      jump\t// out\n        /* \"#utility.yul\":17034:17215   */\n    tag_261:\n        /* \"#utility.yul\":17174:17207   */\n      0x796f7520617265206e6f7420656c696769626c6520666f7220726566756e6400\n        /* \"#utility.yul\":17170:17171   */\n      0x00\n        /* \"#utility.yul\":17162:17168   */\n      dup3\n        /* \"#utility.yul\":17158:17172   */\n      add\n        /* \"#utility.yul\":17151:17208   */\n      mstore\n        /* \"#utility.yul\":17034:17215   */\n      pop\n      jump\t// out\n        /* \"#utility.yul\":17221:17343   */\n    tag_167:\n        /* \"#utility.yul\":17294:17318   */\n      tag_362\n        /* \"#utility.yul\":17312:17317   */\n      dup2\n        /* \"#utility.yul\":17294:17318   */\n      tag_207\n      jump\t// in\n    tag_362:\n        /* \"#utility.yul\":17287:17292   */\n      dup2\n        /* \"#utility.yul\":17284:17319   */\n      eq\n        /* \"#utility.yul\":17274:17337   */\n      tag_363\n      jumpi\n        /* \"#utility.yul\":17333:17334   */\n      0x00\n        /* \"#utility.yul\":17330:17331   */\n      dup1\n        /* \"#utility.yul\":17323:17335   */\n      revert\n        /* \"#utility.yul\":17274:17337   */\n    tag_363:\n        /* \"#utility.yul\":17221:17343   */\n      pop\n      jump\t// out\n        /* \"#utility.yul\":17349:17487   */\n    tag_171:\n        /* \"#utility.yul\":17430:17462   */\n      tag_365\n        /* \"#utility.yul\":17456:17461   */\n      dup2\n        /* \"#utility.yul\":17430:17462   */\n      tag_203\n      jump\t// in\n    tag_365:\n        /* \"#utility.yul\":17423:17428   */\n      dup2\n        /* \"#utility.yul\":17420:17463   */\n      eq\n        /* \"#utility.yul\":17410:17481   */\n      tag_366\n      jumpi\n        /* \"#utility.yul\":17477:17478   */\n      0x00\n        /* \"#utility.yul\":17474:17475   */\n      dup1\n        /* \"#utility.yul\":17467:17479   */\n      revert\n        /* \"#utility.yul\":17410:17481   */\n    tag_366:\n        /* \"#utility.yul\":17349:17487   */\n      pop\n      jump\t// out\n        /* \"#utility.yul\":17493:17615   */\n    tag_181:\n        /* \"#utility.yul\":17566:17590   */\n      tag_368\n        /* \"#utility.yul\":17584:17589   */\n      dup2\n        /* \"#utility.yul\":17566:17590   */\n      tag_265\n      jump\t// in\n    tag_368:\n        /* \"#utility.yul\":17559:17564   */\n      dup2\n        /* \"#utility.yul\":17556:17591   */\n      eq\n        /* \"#utility.yul\":17546:17609   */\n      tag_369\n      jumpi\n        /* \"#utility.yul\":17605:17606   */\n      0x00\n        /* \"#utility.yul\":17602:17603   */\n      dup1\n        /* \"#utility.yul\":17595:17607   */\n      revert\n        /* \"#utility.yul\":17546:17609   */\n    tag_369:\n        /* \"#utility.yul\":17493:17615   */\n      pop\n      jump\t// out\n\n    auxdata: 0xa2646970667358221220bb0076d8e81a0dd14b8a6df52ccb5f730a414bbd13ac5c3da4e8bc0fb1774a9f64736f6c63430008070033\n}\n",
				"bytecode": {
					"linkReferences": {},
					"object": "60806040523480156200001157600080fd5b50604051620017e5380380620017e58339818101604052810190620000379190620000ba565b8160048190555080426200004c919062000101565b600381905550606460028190555033600160006101000a81548173ffffffffffffffffffffffffffffffffffffffff021916908373ffffffffffffffffffffffffffffffffffffffff1602179055505050620001b6565b600081519050620000b4816200019c565b92915050565b60008060408385031215620000d457620000d362000197565b5b6000620000e485828601620000a3565b9250506020620000f785828601620000a3565b9150509250929050565b60006200010e826200015e565b91506200011b836200015e565b9250827fffffffffffffffffffffffffffffffffffffffffffffffffffffffffffffffff0382111562000153576200015262000168565b5b828201905092915050565b6000819050919050565b7f4e487b7100000000000000000000000000000000000000000000000000000000600052601160045260246000fd5b600080fd5b620001a7816200015e565b8114620001b357600080fd5b50565b61161f80620001c66000396000f3fe6080604052600436106100e85760003560e01c8063590e1ae31161008a578063937e09b111610059578063937e09b1146102b35780639fb42b1f146102de578063c59ee1dc14610309578063d4b8399214610334576100e8565b8063590e1ae3146102075780635957df981461021e5780636f9fb98a1461024757806381d12c5814610272576100e8565b8063481c6a75116100c6578063481c6a751461015f5780634cb6f4a51461018a5780634e260f6f146101b35780635114cb52146101de576100e8565b806306e99fef146100ed5780631f6d4942146100f757806329dcb0cf14610134575b600080fd5b6100f561035f565b005b34801561010357600080fd5b5061011e60048036038101906101199190610d2e565b6104b8565b60405161012b91906110f9565b60405180910390f35b34801561014057600080fd5b506101496104d0565b60405161015691906110f9565b60405180910390f35b34801561016b57600080fd5b506101746104d6565b6040516101819190610f84565b60405180910390f35b34801561019657600080fd5b506101b160048036038101906101ac9190610dca565b6104fc565b005b3480156101bf57600080fd5b506101c86106a1565b6040516101d591906110f9565b60405180910390f35b3480156101ea57600080fd5b5061020560048036038101906102009190610dca565b6106a7565b005b34801561021357600080fd5b5061021c61080f565b005b34801561022a57600080fd5b5061024560048036038101906102409190610d5b565b61097e565b005b34801561025357600080fd5b5061025c610ad1565b60405161026991906110f9565b60405180910390f35b34801561027e57600080fd5b5061029960048036038101906102949190610dca565b610ad9565b6040516102aa959493929190610f9f565b60405180910390f35b3480156102bf57600080fd5b506102c8610bc4565b6040516102d591906110f9565b60405180910390f35b3480156102ea57600080fd5b506102f3610bca565b60405161030091906110f9565b60405180910390f35b34801561031557600080fd5b5061031e610bd0565b60405161032b91906110f9565b60405180910390f35b34801561034057600080fd5b50610349610bd6565b60405161035691906110f9565b60405180910390f35b60035442106103a3576040517f08c379a000000000000000000000000000000000000000000000000000000000815260040161039a90611099565b60405180910390fd5b6002543410156103e8576040517f08c379a00000000000000000000000000000000000000000000000000000000081526004016103df90610ff9565b60405180910390fd5b60008060003373ffffffffffffffffffffffffffffffffffffffff1673ffffffffffffffffffffffffffffffffffffffff16815260200190815260200160002054141561044857600660008154809291906104429061130c565b91905055505b346000803373ffffffffffffffffffffffffffffffffffffffff1673ffffffffffffffffffffffffffffffffffffffff16815260200190815260200160002060008282546104969190611186565b9250508190555034600560008282546104af9190611186565b92505081905550565b60006020528060005260406000206000915090505481565b60035481565b600160009054906101000a900473ffffffffffffffffffffffffffffffffffffffff1681565b60008060003373ffffffffffffffffffffffffffffffffffffffff1673ffffffffffffffffffffffffffffffffffffffff168152602001908152602001600020541161057d576040517f08c379a000000000000000000000000000000000000000000000000000000000815260040161057490611039565b60405180910390fd5b6000600760008381526020019081526020016000209050600015158160050160003373ffffffffffffffffffffffffffffffffffffffff1673ffffffffffffffffffffffffffffffffffffffff16815260200190815260200160002060009054906101000a900460ff16151514610629576040517f08c379a000000000000000000000000000000000000000000000000000000000815260040161062090611019565b60405180910390fd5b60018160050160003373ffffffffffffffffffffffffffffffffffffffff1673ffffffffffffffffffffffffffffffffffffffff16815260200190815260200160002060006101000a81548160ff0219169083151502179055508060040160008154809291906106989061130c565b91905055505050565b60065481565b600160009054906101000a900473ffffffffffffffffffffffffffffffffffffffff1673ffffffffffffffffffffffffffffffffffffffff163373ffffffffffffffffffffffffffffffffffffffff1614610737576040517f08c379a000000000000000000000000000000000000000000000000000000000815260040161072e90611079565b60405180910390fd5b600454600554101561074857600080fd5b6000600760008381526020019081526020016000209050600015158160030160009054906101000a900460ff161515146107b7576040517f08c379a00000000000000000000000000000000000000000000000000000000081526004016107ae906110b9565b60405180910390fd5b60026006546107c691906111dc565b81600401541161080b576040517f08c379a000000000000000000000000000000000000000000000000000000000815260040161080290611059565b60405180910390fd5b5050565b600354421180156108235750600454600554105b610862576040517f08c379a0000000000000000000000000000000000000000000000000000000008152600401610859906110d9565b60405180910390fd5b60008060003373ffffffffffffffffffffffffffffffffffffffff1673ffffffffffffffffffffffffffffffffffffffff16815260200190815260200160002054116108ad57600080fd5b60003390508073ffffffffffffffffffffffffffffffffffffffff166108fc6000803373ffffffffffffffffffffffffffffffffffffffff1673ffffffffffffffffffffffffffffffffffffffff168152602001908152602001600020549081150290604051600060405180830381858888f19350505050158015610936573d6000803e3d6000fd5b5060008060003373ffffffffffffffffffffffffffffffffffffffff1673ffffffffffffffffffffffffffffffffffffffff1681526020019081526020016000208190555050565b600160009054906101000a900473ffffffffffffffffffffffffffffffffffffffff1673ffffffffffffffffffffffffffffffffffffffff163373ffffffffffffffffffffffffffffffffffffffff1614610a0e576040517f08c379a0000000000000000000000000000000000000000000000000000000008152600401610a0590611079565b60405180910390fd5b6000600760006008548152602001908152602001600020905060086000815480929190610a3a9061130c565b919050555083816000019080519060200190610a57929190610bdc565b50828160010160006101000a81548173ffffffffffffffffffffffffffffffffffffffff021916908373ffffffffffffffffffffffffffffffffffffffff16021790555081816002018190555060008160030160006101000a81548160ff0219169083151502179055506000816004018190555050505050565b600047905090565b6007602052806000526040600020600091509050806000018054610afc906112a9565b80601f0160208091040260200160405190810160405280929190818152602001828054610b28906112a9565b8015610b755780601f10610b4a57610100808354040283529160200191610b75565b820191906000526020600020905b815481529060010190602001808311610b5857829003601f168201915b5050505050908060010160009054906101000a900473ffffffffffffffffffffffffffffffffffffffff16908060020154908060030160009054906101000a900460ff16908060040154905085565b60025481565b60085481565b60055481565b60045481565b828054610be8906112a9565b90600052602060002090601f016020900481019282610c0a5760008555610c51565b82601f10610c2357805160ff1916838001178555610c51565b82800160010185558215610c51579182015b82811115610c50578251825591602001919060010190610c35565b5b509050610c5e9190610c62565b5090565b5b80821115610c7b576000816000905550600101610c63565b5090565b6000610c92610c8d84611139565b611114565b905082815260208101848484011115610cae57610cad611416565b5b610cb9848285611267565b509392505050565b600081359050610cd0816115a4565b92915050565b600081359050610ce5816115bb565b92915050565b600082601f830112610d0057610cff611411565b5b8135610d10848260208601610c7f565b91505092915050565b600081359050610d28816115d2565b92915050565b600060208284031215610d4457610d43611420565b5b6000610d5284828501610cc1565b91505092915050565b600080600060608486031215610d7457610d73611420565b5b600084013567ffffffffffffffff811115610d9257610d9161141b565b5b610d9e86828701610ceb565b9350506020610daf86828701610cd6565b9250506040610dc086828701610d19565b9150509250925092565b600060208284031215610de057610ddf611420565b5b6000610dee84828501610d19565b91505092915050565b610e008161121f565b82525050565b610e0f8161120d565b82525050565b610e1e81611231565b82525050565b6000610e2f8261116a565b610e398185611175565b9350610e49818560208601611276565b610e5281611425565b840191505092915050565b6000610e6a601f83611175565b9150610e7582611436565b602082019050919050565b6000610e8d601683611175565b9150610e988261145f565b602082019050919050565b6000610eb0601783611175565b9150610ebb82611488565b602082019050919050565b6000610ed3601683611175565b9150610ede826114b1565b602082019050919050565b6000610ef6602383611175565b9150610f01826114da565b604082019050919050565b6000610f19601183611175565b9150610f2482611529565b602082019050919050565b6000610f3c601e83611175565b9150610f4782611552565b602082019050919050565b6000610f5f601f83611175565b9150610f6a8261157b565b602082019050919050565b610f7e8161125d565b82525050565b6000602082019050610f996000830184610e06565b92915050565b600060a0820190508181036000830152610fb98188610e24565b9050610fc86020830187610df7565b610fd56040830186610f75565b610fe26060830185610e15565b610fef6080830184610f75565b9695505050505050565b6000602082019050818103600083015261101281610e5d565b9050919050565b6000602082019050818103600083015261103281610e80565b9050919050565b6000602082019050818103600083015261105281610ea3565b9050919050565b6000602082019050818103600083015261107281610ec6565b9050919050565b6000602082019050818103600083015261109281610ee9565b9050919050565b600060208201905081810360008301526110b281610f0c565b9050919050565b600060208201905081810360008301526110d281610f2f565b9050919050565b600060208201905081810360008301526110f281610f52565b9050919050565b600060208201905061110e6000830184610f75565b92915050565b600061111e61112f565b905061112a82826112db565b919050565b6000604051905090565b600067ffffffffffffffff821115611154576111536113e2565b5b61115d82611425565b9050602081019050919050565b600081519050919050565b600082825260208201905092915050565b60006111918261125d565b915061119c8361125d565b9250827fffffffffffffffffffffffffffffffffffffffffffffffffffffffffffffffff038211156111d1576111d0611355565b5b828201905092915050565b60006111e78261125d565b91506111f28361125d565b92508261120257611201611384565b5b828204905092915050565b60006112188261123d565b9050919050565b600061122a8261123d565b9050919050565b60008115159050919050565b600073ffffffffffffffffffffffffffffffffffffffff82169050919050565b6000819050919050565b82818337600083830152505050565b60005b83811015611294578082015181840152602081019050611279565b838111156112a3576000848401525b50505050565b600060028204905060018216806112c157607f821691505b602082108114156112d5576112d46113b3565b5b50919050565b6112e482611425565b810181811067ffffffffffffffff82111715611303576113026113e2565b5b80604052505050565b60006113178261125d565b91507fffffffffffffffffffffffffffffffffffffffffffffffffffffffffffffffff82141561134a57611349611355565b5b600182019050919050565b7f4e487b7100000000000000000000000000000000000000000000000000000000600052601160045260246000fd5b7f4e487b7100000000000000000000000000000000000000000000000000000000600052601260045260246000fd5b7f4e487b7100000000000000000000000000000000000000000000000000000000600052602260045260246000fd5b7f4e487b7100000000000000000000000000000000000000000000000000000000600052604160045260246000fd5b600080fd5b600080fd5b600080fd5b600080fd5b6000601f19601f8301169050919050565b7f4d696e696d756d20436f6e747269627574696f6e206973206e6f74206d657400600082015250565b7f796f75206861766520616c726561647920766f74656400000000000000000000600082015250565b7f796f75206d75737420626520636f6e7472696275746f72000000000000000000600082015250565b7f6d616a6f7269747920646f6573206e6f74207375707000000000000000000000600082015250565b7f6f6e6c79206d616e616765722063616e2063616c6c20746869732066756e637460008201527f696f6e0000000000000000000000000000000000000000000000000000000000602082015250565b7f446561646c696e6520686173206f766572000000000000000000000000000000600082015250565b7f746865207265717565737420686173206265656e20636f6d706c697465640000600082015250565b7f796f7520617265206e6f7420656c696769626c6520666f7220726566756e6400600082015250565b6115ad8161120d565b81146115b857600080fd5b50565b6115c48161121f565b81146115cf57600080fd5b50565b6115db8161125d565b81146115e657600080fd5b5056fea2646970667358221220bb0076d8e81a0dd14b8a6df52ccb5f730a414bbd13ac5c3da4e8bc0fb1774a9f64736f6c63430008070033",
					"opcodes": "PUSH1 0x80 PUSH1 0x40 MSTORE CALLVALUE DUP1 ISZERO PUSH3 0x11 JUMPI PUSH1 0x0 DUP1 REVERT JUMPDEST POP PUSH1 0x40 MLOAD PUSH3 0x17E5 CODESIZE SUB DUP1 PUSH3 0x17E5 DUP4 CODECOPY DUP2 DUP2 ADD PUSH1 0x40 MSTORE DUP2 ADD SWAP1 PUSH3 0x37 SWAP2 SWAP1 PUSH3 0xBA JUMP JUMPDEST DUP2 PUSH1 0x4 DUP2 SWAP1 SSTORE POP DUP1 TIMESTAMP PUSH3 0x4C SWAP2 SWAP1 PUSH3 0x101 JUMP JUMPDEST PUSH1 0x3 DUP2 SWAP1 SSTORE POP PUSH1 0x64 PUSH1 0x2 DUP2 SWAP1 SSTORE POP CALLER PUSH1 0x1 PUSH1 0x0 PUSH2 0x100 EXP DUP2 SLOAD DUP2 PUSH20 0xFFFFFFFFFFFFFFFFFFFFFFFFFFFFFFFFFFFFFFFF MUL NOT AND SWAP1 DUP4 PUSH20 0xFFFFFFFFFFFFFFFFFFFFFFFFFFFFFFFFFFFFFFFF AND MUL OR SWAP1 SSTORE POP POP POP PUSH3 0x1B6 JUMP JUMPDEST PUSH1 0x0 DUP2 MLOAD SWAP1 POP PUSH3 0xB4 DUP2 PUSH3 0x19C JUMP JUMPDEST SWAP3 SWAP2 POP POP JUMP JUMPDEST PUSH1 0x0 DUP1 PUSH1 0x40 DUP4 DUP6 SUB SLT ISZERO PUSH3 0xD4 JUMPI PUSH3 0xD3 PUSH3 0x197 JUMP JUMPDEST JUMPDEST PUSH1 0x0 PUSH3 0xE4 DUP6 DUP3 DUP7 ADD PUSH3 0xA3 JUMP JUMPDEST SWAP3 POP POP PUSH1 0x20 PUSH3 0xF7 DUP6 DUP3 DUP7 ADD PUSH3 0xA3 JUMP JUMPDEST SWAP2 POP POP SWAP3 POP SWAP3 SWAP1 POP JUMP JUMPDEST PUSH1 0x0 PUSH3 0x10E DUP3 PUSH3 0x15E JUMP JUMPDEST SWAP2 POP PUSH3 0x11B DUP4 PUSH3 0x15E JUMP JUMPDEST SWAP3 POP DUP3 PUSH32 0xFFFFFFFFFFFFFFFFFFFFFFFFFFFFFFFFFFFFFFFFFFFFFFFFFFFFFFFFFFFFFFFF SUB DUP3 GT ISZERO PUSH3 0x153 JUMPI PUSH3 0x152 PUSH3 0x168 JUMP JUMPDEST JUMPDEST DUP3 DUP3 ADD SWAP1 POP SWAP3 SWAP2 POP POP JUMP JUMPDEST PUSH1 0x0 DUP2 SWAP1 POP SWAP2 SWAP1 POP JUMP JUMPDEST PUSH32 0x4E487B7100000000000000000000000000000000000000000000000000000000 PUSH1 0x0 MSTORE PUSH1 0x11 PUSH1 0x4 MSTORE PUSH1 0x24 PUSH1 0x0 REVERT JUMPDEST PUSH1 0x0 DUP1 REVERT JUMPDEST PUSH3 0x1A7 DUP2 PUSH3 0x15E JUMP JUMPDEST DUP2 EQ PUSH3 0x1B3 JUMPI PUSH1 0x0 DUP1 REVERT JUMPDEST POP JUMP JUMPDEST PUSH2 0x161F DUP1 PUSH3 0x1C6 PUSH1 0x0 CODECOPY PUSH1 0x0 RETURN INVALID PUSH1 0x80 PUSH1 0x40 MSTORE PUSH1 0x4 CALLDATASIZE LT PUSH2 0xE8 JUMPI PUSH1 0x0 CALLDATALOAD PUSH1 0xE0 SHR DUP1 PUSH4 0x590E1AE3 GT PUSH2 0x8A JUMPI DUP1 PUSH4 0x937E09B1 GT PUSH2 0x59 JUMPI DUP1 PUSH4 0x937E09B1 EQ PUSH2 0x2B3 JUMPI DUP1 PUSH4 0x9FB42B1F EQ PUSH2 0x2DE JUMPI DUP1 PUSH4 0xC59EE1DC EQ PUSH2 0x309 JUMPI DUP1 PUSH4 0xD4B83992 EQ PUSH2 0x334 JUMPI PUSH2 0xE8 JUMP JUMPDEST DUP1 PUSH4 0x590E1AE3 EQ PUSH2 0x207 JUMPI DUP1 PUSH4 0x5957DF98 EQ PUSH2 0x21E JUMPI DUP1 PUSH4 0x6F9FB98A EQ PUSH2 0x247 JUMPI DUP1 PUSH4 0x81D12C58 EQ PUSH2 0x272 JUMPI PUSH2 0xE8 JUMP JUMPDEST DUP1 PUSH4 0x481C6A75 GT PUSH2 0xC6 JUMPI DUP1 PUSH4 0x481C6A75 EQ PUSH2 0x15F JUMPI DUP1 PUSH4 0x4CB6F4A5 EQ PUSH2 0x18A JUMPI DUP1 PUSH4 0x4E260F6F EQ PUSH2 0x1B3 JUMPI DUP1 PUSH4 0x5114CB52 EQ PUSH2 0x1DE JUMPI PUSH2 0xE8 JUMP JUMPDEST DUP1 PUSH4 0x6E99FEF EQ PUSH2 0xED JUMPI DUP1 PUSH4 0x1F6D4942 EQ PUSH2 0xF7 JUMPI DUP1 PUSH4 0x29DCB0CF EQ PUSH2 0x134 JUMPI JUMPDEST PUSH1 0x0 DUP1 REVERT JUMPDEST PUSH2 0xF5 PUSH2 0x35F JUMP JUMPDEST STOP JUMPDEST CALLVALUE DUP1 ISZERO PUSH2 0x103 JUMPI PUSH1 0x0 DUP1 REVERT JUMPDEST POP PUSH2 0x11E PUSH1 0x4 DUP1 CALLDATASIZE SUB DUP2 ADD SWAP1 PUSH2 0x119 SWAP2 SWAP1 PUSH2 0xD2E JUMP JUMPDEST PUSH2 0x4B8 JUMP JUMPDEST PUSH1 0x40 MLOAD PUSH2 0x12B SWAP2 SWAP1 PUSH2 0x10F9 JUMP JUMPDEST PUSH1 0x40 MLOAD DUP1 SWAP2 SUB SWAP1 RETURN JUMPDEST CALLVALUE DUP1 ISZERO PUSH2 0x140 JUMPI PUSH1 0x0 DUP1 REVERT JUMPDEST POP PUSH2 0x149 PUSH2 0x4D0 JUMP JUMPDEST PUSH1 0x40 MLOAD PUSH2 0x156 SWAP2 SWAP1 PUSH2 0x10F9 JUMP JUMPDEST PUSH1 0x40 MLOAD DUP1 SWAP2 SUB SWAP1 RETURN JUMPDEST CALLVALUE DUP1 ISZERO PUSH2 0x16B JUMPI PUSH1 0x0 DUP1 REVERT JUMPDEST POP PUSH2 0x174 PUSH2 0x4D6 JUMP JUMPDEST PUSH1 0x40 MLOAD PUSH2 0x181 SWAP2 SWAP1 PUSH2 0xF84 JUMP JUMPDEST PUSH1 0x40 MLOAD DUP1 SWAP2 SUB SWAP1 RETURN JUMPDEST CALLVALUE DUP1 ISZERO PUSH2 0x196 JUMPI PUSH1 0x0 DUP1 REVERT JUMPDEST POP PUSH2 0x1B1 PUSH1 0x4 DUP1 CALLDATASIZE SUB DUP2 ADD SWAP1 PUSH2 0x1AC SWAP2 SWAP1 PUSH2 0xDCA JUMP JUMPDEST PUSH2 0x4FC JUMP JUMPDEST STOP JUMPDEST CALLVALUE DUP1 ISZERO PUSH2 0x1BF JUMPI PUSH1 0x0 DUP1 REVERT JUMPDEST POP PUSH2 0x1C8 PUSH2 0x6A1 JUMP JUMPDEST PUSH1 0x40 MLOAD PUSH2 0x1D5 SWAP2 SWAP1 PUSH2 0x10F9 JUMP JUMPDEST PUSH1 0x40 MLOAD DUP1 SWAP2 SUB SWAP1 RETURN JUMPDEST CALLVALUE DUP1 ISZERO PUSH2 0x1EA JUMPI PUSH1 0x0 DUP1 REVERT JUMPDEST POP PUSH2 0x205 PUSH1 0x4 DUP1 CALLDATASIZE SUB DUP2 ADD SWAP1 PUSH2 0x200 SWAP2 SWAP1 PUSH2 0xDCA JUMP JUMPDEST PUSH2 0x6A7 JUMP JUMPDEST STOP JUMPDEST CALLVALUE DUP1 ISZERO PUSH2 0x213 JUMPI PUSH1 0x0 DUP1 REVERT JUMPDEST POP PUSH2 0x21C PUSH2 0x80F JUMP JUMPDEST STOP JUMPDEST CALLVALUE DUP1 ISZERO PUSH2 0x22A JUMPI PUSH1 0x0 DUP1 REVERT JUMPDEST POP PUSH2 0x245 PUSH1 0x4 DUP1 CALLDATASIZE SUB DUP2 ADD SWAP1 PUSH2 0x240 SWAP2 SWAP1 PUSH2 0xD5B JUMP JUMPDEST PUSH2 0x97E JUMP JUMPDEST STOP JUMPDEST CALLVALUE DUP1 ISZERO PUSH2 0x253 JUMPI PUSH1 0x0 DUP1 REVERT JUMPDEST POP PUSH2 0x25C PUSH2 0xAD1 JUMP JUMPDEST PUSH1 0x40 MLOAD PUSH2 0x269 SWAP2 SWAP1 PUSH2 0x10F9 JUMP JUMPDEST PUSH1 0x40 MLOAD DUP1 SWAP2 SUB SWAP1 RETURN JUMPDEST CALLVALUE DUP1 ISZERO PUSH2 0x27E JUMPI PUSH1 0x0 DUP1 REVERT JUMPDEST POP PUSH2 0x299 PUSH1 0x4 DUP1 CALLDATASIZE SUB DUP2 ADD SWAP1 PUSH2 0x294 SWAP2 SWAP1 PUSH2 0xDCA JUMP JUMPDEST PUSH2 0xAD9 JUMP JUMPDEST PUSH1 0x40 MLOAD PUSH2 0x2AA SWAP6 SWAP5 SWAP4 SWAP3 SWAP2 SWAP1 PUSH2 0xF9F JUMP JUMPDEST PUSH1 0x40 MLOAD DUP1 SWAP2 SUB SWAP1 RETURN JUMPDEST CALLVALUE DUP1 ISZERO PUSH2 0x2BF JUMPI PUSH1 0x0 DUP1 REVERT JUMPDEST POP PUSH2 0x2C8 PUSH2 0xBC4 JUMP JUMPDEST PUSH1 0x40 MLOAD PUSH2 0x2D5 SWAP2 SWAP1 PUSH2 0x10F9 JUMP JUMPDEST PUSH1 0x40 MLOAD DUP1 SWAP2 SUB SWAP1 RETURN JUMPDEST CALLVALUE DUP1 ISZERO PUSH2 0x2EA JUMPI PUSH1 0x0 DUP1 REVERT JUMPDEST POP PUSH2 0x2F3 PUSH2 0xBCA JUMP JUMPDEST PUSH1 0x40 MLOAD PUSH2 0x300 SWAP2 SWAP1 PUSH2 0x10F9 JUMP JUMPDEST PUSH1 0x40 MLOAD DUP1 SWAP2 SUB SWAP1 RETURN JUMPDEST CALLVALUE DUP1 ISZERO PUSH2 0x315 JUMPI PUSH1 0x0 DUP1 REVERT JUMPDEST POP PUSH2 0x31E PUSH2 0xBD0 JUMP JUMPDEST PUSH1 0x40 MLOAD PUSH2 0x32B SWAP2 SWAP1 PUSH2 0x10F9 JUMP JUMPDEST PUSH1 0x40 MLOAD DUP1 SWAP2 SUB SWAP1 RETURN JUMPDEST CALLVALUE DUP1 ISZERO PUSH2 0x340 JUMPI PUSH1 0x0 DUP1 REVERT JUMPDEST POP PUSH2 0x349 PUSH2 0xBD6 JUMP JUMPDEST PUSH1 0x40 MLOAD PUSH2 0x356 SWAP2 SWAP1 PUSH2 0x10F9 JUMP JUMPDEST PUSH1 0x40 MLOAD DUP1 SWAP2 SUB SWAP1 RETURN JUMPDEST PUSH1 0x3 SLOAD TIMESTAMP LT PUSH2 0x3A3 JUMPI PUSH1 0x40 MLOAD PUSH32 0x8C379A000000000000000000000000000000000000000000000000000000000 DUP2 MSTORE PUSH1 0x4 ADD PUSH2 0x39A SWAP1 PUSH2 0x1099 JUMP JUMPDEST PUSH1 0x40 MLOAD DUP1 SWAP2 SUB SWAP1 REVERT JUMPDEST PUSH1 0x2 SLOAD CALLVALUE LT ISZERO PUSH2 0x3E8 JUMPI PUSH1 0x40 MLOAD PUSH32 0x8C379A000000000000000000000000000000000000000000000000000000000 DUP2 MSTORE PUSH1 0x4 ADD PUSH2 0x3DF SWAP1 PUSH2 0xFF9 JUMP JUMPDEST PUSH1 0x40 MLOAD DUP1 SWAP2 SUB SWAP1 REVERT JUMPDEST PUSH1 0x0 DUP1 PUSH1 0x0 CALLER PUSH20 0xFFFFFFFFFFFFFFFFFFFFFFFFFFFFFFFFFFFFFFFF AND PUSH20 0xFFFFFFFFFFFFFFFFFFFFFFFFFFFFFFFFFFFFFFFF AND DUP2 MSTORE PUSH1 0x20 ADD SWAP1 DUP2 MSTORE PUSH1 0x20 ADD PUSH1 0x0 KECCAK256 SLOAD EQ ISZERO PUSH2 0x448 JUMPI PUSH1 0x6 PUSH1 0x0 DUP2 SLOAD DUP1 SWAP3 SWAP2 SWAP1 PUSH2 0x442 SWAP1 PUSH2 0x130C JUMP JUMPDEST SWAP2 SWAP1 POP SSTORE POP JUMPDEST CALLVALUE PUSH1 0x0 DUP1 CALLER PUSH20 0xFFFFFFFFFFFFFFFFFFFFFFFFFFFFFFFFFFFFFFFF AND PUSH20 0xFFFFFFFFFFFFFFFFFFFFFFFFFFFFFFFFFFFFFFFF AND DUP2 MSTORE PUSH1 0x20 ADD SWAP1 DUP2 MSTORE PUSH1 0x20 ADD PUSH1 0x0 KECCAK256 PUSH1 0x0 DUP3 DUP3 SLOAD PUSH2 0x496 SWAP2 SWAP1 PUSH2 0x1186 JUMP JUMPDEST SWAP3 POP POP DUP2 SWAP1 SSTORE POP CALLVALUE PUSH1 0x5 PUSH1 0x0 DUP3 DUP3 SLOAD PUSH2 0x4AF SWAP2 SWAP1 PUSH2 0x1186 JUMP JUMPDEST SWAP3 POP POP DUP2 SWAP1 SSTORE POP JUMP JUMPDEST PUSH1 0x0 PUSH1 0x20 MSTORE DUP1 PUSH1 0x0 MSTORE PUSH1 0x40 PUSH1 0x0 KECCAK256 PUSH1 0x0 SWAP2 POP SWAP1 POP SLOAD DUP2 JUMP JUMPDEST PUSH1 0x3 SLOAD DUP2 JUMP JUMPDEST PUSH1 0x1 PUSH1 0x0 SWAP1 SLOAD SWAP1 PUSH2 0x100 EXP SWAP1 DIV PUSH20 0xFFFFFFFFFFFFFFFFFFFFFFFFFFFFFFFFFFFFFFFF AND DUP2 JUMP JUMPDEST PUSH1 0x0 DUP1 PUSH1 0x0 CALLER PUSH20 0xFFFFFFFFFFFFFFFFFFFFFFFFFFFFFFFFFFFFFFFF AND PUSH20 0xFFFFFFFFFFFFFFFFFFFFFFFFFFFFFFFFFFFFFFFF AND DUP2 MSTORE PUSH1 0x20 ADD SWAP1 DUP2 MSTORE PUSH1 0x20 ADD PUSH1 0x0 KECCAK256 SLOAD GT PUSH2 0x57D JUMPI PUSH1 0x40 MLOAD PUSH32 0x8C379A000000000000000000000000000000000000000000000000000000000 DUP2 MSTORE PUSH1 0x4 ADD PUSH2 0x574 SWAP1 PUSH2 0x1039 JUMP JUMPDEST PUSH1 0x40 MLOAD DUP1 SWAP2 SUB SWAP1 REVERT JUMPDEST PUSH1 0x0 PUSH1 0x7 PUSH1 0x0 DUP4 DUP2 MSTORE PUSH1 0x20 ADD SWAP1 DUP2 MSTORE PUSH1 0x20 ADD PUSH1 0x0 KECCAK256 SWAP1 POP PUSH1 0x0 ISZERO ISZERO DUP2 PUSH1 0x5 ADD PUSH1 0x0 CALLER PUSH20 0xFFFFFFFFFFFFFFFFFFFFFFFFFFFFFFFFFFFFFFFF AND PUSH20 0xFFFFFFFFFFFFFFFFFFFFFFFFFFFFFFFFFFFFFFFF AND DUP2 MSTORE PUSH1 0x20 ADD SWAP1 DUP2 MSTORE PUSH1 0x20 ADD PUSH1 0x0 KECCAK256 PUSH1 0x0 SWAP1 SLOAD SWAP1 PUSH2 0x100 EXP SWAP1 DIV PUSH1 0xFF AND ISZERO ISZERO EQ PUSH2 0x629 JUMPI PUSH1 0x40 MLOAD PUSH32 0x8C379A000000000000000000000000000000000000000000000000000000000 DUP2 MSTORE PUSH1 0x4 ADD PUSH2 0x620 SWAP1 PUSH2 0x1019 JUMP JUMPDEST PUSH1 0x40 MLOAD DUP1 SWAP2 SUB SWAP1 REVERT JUMPDEST PUSH1 0x1 DUP2 PUSH1 0x5 ADD PUSH1 0x0 CALLER PUSH20 0xFFFFFFFFFFFFFFFFFFFFFFFFFFFFFFFFFFFFFFFF AND PUSH20 0xFFFFFFFFFFFFFFFFFFFFFFFFFFFFFFFFFFFFFFFF AND DUP2 MSTORE PUSH1 0x20 ADD SWAP1 DUP2 MSTORE PUSH1 0x20 ADD PUSH1 0x0 KECCAK256 PUSH1 0x0 PUSH2 0x100 EXP DUP2 SLOAD DUP2 PUSH1 0xFF MUL NOT AND SWAP1 DUP4 ISZERO ISZERO MUL OR SWAP1 SSTORE POP DUP1 PUSH1 0x4 ADD PUSH1 0x0 DUP2 SLOAD DUP1 SWAP3 SWAP2 SWAP1 PUSH2 0x698 SWAP1 PUSH2 0x130C JUMP JUMPDEST SWAP2 SWAP1 POP SSTORE POP POP POP JUMP JUMPDEST PUSH1 0x6 SLOAD DUP2 JUMP JUMPDEST PUSH1 0x1 PUSH1 0x0 SWAP1 SLOAD SWAP1 PUSH2 0x100 EXP SWAP1 DIV PUSH20 0xFFFFFFFFFFFFFFFFFFFFFFFFFFFFFFFFFFFFFFFF AND PUSH20 0xFFFFFFFFFFFFFFFFFFFFFFFFFFFFFFFFFFFFFFFF AND CALLER PUSH20 0xFFFFFFFFFFFFFFFFFFFFFFFFFFFFFFFFFFFFFFFF AND EQ PUSH2 0x737 JUMPI PUSH1 0x40 MLOAD PUSH32 0x8C379A000000000000000000000000000000000000000000000000000000000 DUP2 MSTORE PUSH1 0x4 ADD PUSH2 0x72E SWAP1 PUSH2 0x1079 JUMP JUMPDEST PUSH1 0x40 MLOAD DUP1 SWAP2 SUB SWAP1 REVERT JUMPDEST PUSH1 0x4 SLOAD PUSH1 0x5 SLOAD LT ISZERO PUSH2 0x748 JUMPI PUSH1 0x0 DUP1 REVERT JUMPDEST PUSH1 0x0 PUSH1 0x7 PUSH1 0x0 DUP4 DUP2 MSTORE PUSH1 0x20 ADD SWAP1 DUP2 MSTORE PUSH1 0x20 ADD PUSH1 0x0 KECCAK256 SWAP1 POP PUSH1 0x0 ISZERO ISZERO DUP2 PUSH1 0x3 ADD PUSH1 0x0 SWAP1 SLOAD SWAP1 PUSH2 0x100 EXP SWAP1 DIV PUSH1 0xFF AND ISZERO ISZERO EQ PUSH2 0x7B7 JUMPI PUSH1 0x40 MLOAD PUSH32 0x8C379A000000000000000000000000000000000000000000000000000000000 DUP2 MSTORE PUSH1 0x4 ADD PUSH2 0x7AE SWAP1 PUSH2 0x10B9 JUMP JUMPDEST PUSH1 0x40 MLOAD DUP1 SWAP2 SUB SWAP1 REVERT JUMPDEST PUSH1 0x2 PUSH1 0x6 SLOAD PUSH2 0x7C6 SWAP2 SWAP1 PUSH2 0x11DC JUMP JUMPDEST DUP2 PUSH1 0x4 ADD SLOAD GT PUSH2 0x80B JUMPI PUSH1 0x40 MLOAD PUSH32 0x8C379A000000000000000000000000000000000000000000000000000000000 DUP2 MSTORE PUSH1 0x4 ADD PUSH2 0x802 SWAP1 PUSH2 0x1059 JUMP JUMPDEST PUSH1 0x40 MLOAD DUP1 SWAP2 SUB SWAP1 REVERT JUMPDEST POP POP JUMP JUMPDEST PUSH1 0x3 SLOAD TIMESTAMP GT DUP1 ISZERO PUSH2 0x823 JUMPI POP PUSH1 0x4 SLOAD PUSH1 0x5 SLOAD LT JUMPDEST PUSH2 0x862 JUMPI PUSH1 0x40 MLOAD PUSH32 0x8C379A000000000000000000000000000000000000000000000000000000000 DUP2 MSTORE PUSH1 0x4 ADD PUSH2 0x859 SWAP1 PUSH2 0x10D9 JUMP JUMPDEST PUSH1 0x40 MLOAD DUP1 SWAP2 SUB SWAP1 REVERT JUMPDEST PUSH1 0x0 DUP1 PUSH1 0x0 CALLER PUSH20 0xFFFFFFFFFFFFFFFFFFFFFFFFFFFFFFFFFFFFFFFF AND PUSH20 0xFFFFFFFFFFFFFFFFFFFFFFFFFFFFFFFFFFFFFFFF AND DUP2 MSTORE PUSH1 0x20 ADD SWAP1 DUP2 MSTORE PUSH1 0x20 ADD PUSH1 0x0 KECCAK256 SLOAD GT PUSH2 0x8AD JUMPI PUSH1 0x0 DUP1 REVERT JUMPDEST PUSH1 0x0 CALLER SWAP1 POP DUP1 PUSH20 0xFFFFFFFFFFFFFFFFFFFFFFFFFFFFFFFFFFFFFFFF AND PUSH2 0x8FC PUSH1 0x0 DUP1 CALLER PUSH20 0xFFFFFFFFFFFFFFFFFFFFFFFFFFFFFFFFFFFFFFFF AND PUSH20 0xFFFFFFFFFFFFFFFFFFFFFFFFFFFFFFFFFFFFFFFF AND DUP2 MSTORE PUSH1 0x20 ADD SWAP1 DUP2 MSTORE PUSH1 0x20 ADD PUSH1 0x0 KECCAK256 SLOAD SWAP1 DUP2 ISZERO MUL SWAP1 PUSH1 0x40 MLOAD PUSH1 0x0 PUSH1 0x40 MLOAD DUP1 DUP4 SUB DUP2 DUP6 DUP9 DUP9 CALL SWAP4 POP POP POP POP ISZERO DUP1 ISZERO PUSH2 0x936 JUMPI RETURNDATASIZE PUSH1 0x0 DUP1 RETURNDATACOPY RETURNDATASIZE PUSH1 0x0 REVERT JUMPDEST POP PUSH1 0x0 DUP1 PUSH1 0x0 CALLER PUSH20 0xFFFFFFFFFFFFFFFFFFFFFFFFFFFFFFFFFFFFFFFF AND PUSH20 0xFFFFFFFFFFFFFFFFFFFFFFFFFFFFFFFFFFFFFFFF AND DUP2 MSTORE PUSH1 0x20 ADD SWAP1 DUP2 MSTORE PUSH1 0x20 ADD PUSH1 0x0 KECCAK256 DUP2 SWAP1 SSTORE POP POP JUMP JUMPDEST PUSH1 0x1 PUSH1 0x0 SWAP1 SLOAD SWAP1 PUSH2 0x100 EXP SWAP1 DIV PUSH20 0xFFFFFFFFFFFFFFFFFFFFFFFFFFFFFFFFFFFFFFFF AND PUSH20 0xFFFFFFFFFFFFFFFFFFFFFFFFFFFFFFFFFFFFFFFF AND CALLER PUSH20 0xFFFFFFFFFFFFFFFFFFFFFFFFFFFFFFFFFFFFFFFF AND EQ PUSH2 0xA0E JUMPI PUSH1 0x40 MLOAD PUSH32 0x8C379A000000000000000000000000000000000000000000000000000000000 DUP2 MSTORE PUSH1 0x4 ADD PUSH2 0xA05 SWAP1 PUSH2 0x1079 JUMP JUMPDEST PUSH1 0x40 MLOAD DUP1 SWAP2 SUB SWAP1 REVERT JUMPDEST PUSH1 0x0 PUSH1 0x7 PUSH1 0x0 PUSH1 0x8 SLOAD DUP2 MSTORE PUSH1 0x20 ADD SWAP1 DUP2 MSTORE PUSH1 0x20 ADD PUSH1 0x0 KECCAK256 SWAP1 POP PUSH1 0x8 PUSH1 0x0 DUP2 SLOAD DUP1 SWAP3 SWAP2 SWAP1 PUSH2 0xA3A SWAP1 PUSH2 0x130C JUMP JUMPDEST SWAP2 SWAP1 POP SSTORE POP DUP4 DUP2 PUSH1 0x0 ADD SWAP1 DUP1 MLOAD SWAP1 PUSH1 0x20 ADD SWAP1 PUSH2 0xA57 SWAP3 SWAP2 SWAP1 PUSH2 0xBDC JUMP JUMPDEST POP DUP3 DUP2 PUSH1 0x1 ADD PUSH1 0x0 PUSH2 0x100 EXP DUP2 SLOAD DUP2 PUSH20 0xFFFFFFFFFFFFFFFFFFFFFFFFFFFFFFFFFFFFFFFF MUL NOT AND SWAP1 DUP4 PUSH20 0xFFFFFFFFFFFFFFFFFFFFFFFFFFFFFFFFFFFFFFFF AND MUL OR SWAP1 SSTORE POP DUP2 DUP2 PUSH1 0x2 ADD DUP2 SWAP1 SSTORE POP PUSH1 0x0 DUP2 PUSH1 0x3 ADD PUSH1 0x0 PUSH2 0x100 EXP DUP2 SLOAD DUP2 PUSH1 0xFF MUL NOT AND SWAP1 DUP4 ISZERO ISZERO MUL OR SWAP1 SSTORE POP PUSH1 0x0 DUP2 PUSH1 0x4 ADD DUP2 SWAP1 SSTORE POP POP POP POP POP JUMP JUMPDEST PUSH1 0x0 SELFBALANCE SWAP1 POP SWAP1 JUMP JUMPDEST PUSH1 0x7 PUSH1 0x20 MSTORE DUP1 PUSH1 0x0 MSTORE PUSH1 0x40 PUSH1 0x0 KECCAK256 PUSH1 0x0 SWAP2 POP SWAP1 POP DUP1 PUSH1 0x0 ADD DUP1 SLOAD PUSH2 0xAFC SWAP1 PUSH2 0x12A9 JUMP JUMPDEST DUP1 PUSH1 0x1F ADD PUSH1 0x20 DUP1 SWAP2 DIV MUL PUSH1 0x20 ADD PUSH1 0x40 MLOAD SWAP1 DUP2 ADD PUSH1 0x40 MSTORE DUP1 SWAP3 SWAP2 SWAP1 DUP2 DUP2 MSTORE PUSH1 0x20 ADD DUP3 DUP1 SLOAD PUSH2 0xB28 SWAP1 PUSH2 0x12A9 JUMP JUMPDEST DUP1 ISZERO PUSH2 0xB75 JUMPI DUP1 PUSH1 0x1F LT PUSH2 0xB4A JUMPI PUSH2 0x100 DUP1 DUP4 SLOAD DIV MUL DUP4 MSTORE SWAP2 PUSH1 0x20 ADD SWAP2 PUSH2 0xB75 JUMP JUMPDEST DUP3 ADD SWAP2 SWAP1 PUSH1 0x0 MSTORE PUSH1 0x20 PUSH1 0x0 KECCAK256 SWAP1 JUMPDEST DUP2 SLOAD DUP2 MSTORE SWAP1 PUSH1 0x1 ADD SWAP1 PUSH1 0x20 ADD DUP1 DUP4 GT PUSH2 0xB58 JUMPI DUP3 SWAP1 SUB PUSH1 0x1F AND DUP3 ADD SWAP2 JUMPDEST POP POP POP POP POP SWAP1 DUP1 PUSH1 0x1 ADD PUSH1 0x0 SWAP1 SLOAD SWAP1 PUSH2 0x100 EXP SWAP1 DIV PUSH20 0xFFFFFFFFFFFFFFFFFFFFFFFFFFFFFFFFFFFFFFFF AND SWAP1 DUP1 PUSH1 0x2 ADD SLOAD SWAP1 DUP1 PUSH1 0x3 ADD PUSH1 0x0 SWAP1 SLOAD SWAP1 PUSH2 0x100 EXP SWAP1 DIV PUSH1 0xFF AND SWAP1 DUP1 PUSH1 0x4 ADD SLOAD SWAP1 POP DUP6 JUMP JUMPDEST PUSH1 0x2 SLOAD DUP2 JUMP JUMPDEST PUSH1 0x8 SLOAD DUP2 JUMP JUMPDEST PUSH1 0x5 SLOAD DUP2 JUMP JUMPDEST PUSH1 0x4 SLOAD DUP2 JUMP JUMPDEST DUP3 DUP1 SLOAD PUSH2 0xBE8 SWAP1 PUSH2 0x12A9 JUMP JUMPDEST SWAP1 PUSH1 0x0 MSTORE PUSH1 0x20 PUSH1 0x0 KECCAK256 SWAP1 PUSH1 0x1F ADD PUSH1 0x20 SWAP1 DIV DUP2 ADD SWAP3 DUP3 PUSH2 0xC0A JUMPI PUSH1 0x0 DUP6 SSTORE PUSH2 0xC51 JUMP JUMPDEST DUP3 PUSH1 0x1F LT PUSH2 0xC23 JUMPI DUP1 MLOAD PUSH1 0xFF NOT AND DUP4 DUP1 ADD OR DUP6 SSTORE PUSH2 0xC51 JUMP JUMPDEST DUP3 DUP1 ADD PUSH1 0x1 ADD DUP6 SSTORE DUP3 ISZERO PUSH2 0xC51 JUMPI SWAP2 DUP3 ADD JUMPDEST DUP3 DUP2 GT ISZERO PUSH2 0xC50 JUMPI DUP3 MLOAD DUP3 SSTORE SWAP2 PUSH1 0x20 ADD SWAP2 SWAP1 PUSH1 0x1 ADD SWAP1 PUSH2 0xC35 JUMP JUMPDEST JUMPDEST POP SWAP1 POP PUSH2 0xC5E SWAP2 SWAP1 PUSH2 0xC62 JUMP JUMPDEST POP SWAP1 JUMP JUMPDEST JUMPDEST DUP1 DUP3 GT ISZERO PUSH2 0xC7B JUMPI PUSH1 0x0 DUP2 PUSH1 0x0 SWAP1 SSTORE POP PUSH1 0x1 ADD PUSH2 0xC63 JUMP JUMPDEST POP SWAP1 JUMP JUMPDEST PUSH1 0x0 PUSH2 0xC92 PUSH2 0xC8D DUP5 PUSH2 0x1139 JUMP JUMPDEST PUSH2 0x1114 JUMP JUMPDEST SWAP1 POP DUP3 DUP2 MSTORE PUSH1 0x20 DUP2 ADD DUP5 DUP5 DUP5 ADD GT ISZERO PUSH2 0xCAE JUMPI PUSH2 0xCAD PUSH2 0x1416 JUMP JUMPDEST JUMPDEST PUSH2 0xCB9 DUP5 DUP3 DUP6 PUSH2 0x1267 JUMP JUMPDEST POP SWAP4 SWAP3 POP POP POP JUMP JUMPDEST PUSH1 0x0 DUP2 CALLDATALOAD SWAP1 POP PUSH2 0xCD0 DUP2 PUSH2 0x15A4 JUMP JUMPDEST SWAP3 SWAP2 POP POP JUMP JUMPDEST PUSH1 0x0 DUP2 CALLDATALOAD SWAP1 POP PUSH2 0xCE5 DUP2 PUSH2 0x15BB JUMP JUMPDEST SWAP3 SWAP2 POP POP JUMP JUMPDEST PUSH1 0x0 DUP3 PUSH1 0x1F DUP4 ADD SLT PUSH2 0xD00 JUMPI PUSH2 0xCFF PUSH2 0x1411 JUMP JUMPDEST JUMPDEST DUP2 CALLDATALOAD PUSH2 0xD10 DUP5 DUP3 PUSH1 0x20 DUP7 ADD PUSH2 0xC7F JUMP JUMPDEST SWAP2 POP POP SWAP3 SWAP2 POP POP JUMP JUMPDEST PUSH1 0x0 DUP2 CALLDATALOAD SWAP1 POP PUSH2 0xD28 DUP2 PUSH2 0x15D2 JUMP JUMPDEST SWAP3 SWAP2 POP POP JUMP JUMPDEST PUSH1 0x0 PUSH1 0x20 DUP3 DUP5 SUB SLT ISZERO PUSH2 0xD44 JUMPI PUSH2 0xD43 PUSH2 0x1420 JUMP JUMPDEST JUMPDEST PUSH1 0x0 PUSH2 0xD52 DUP5 DUP3 DUP6 ADD PUSH2 0xCC1 JUMP JUMPDEST SWAP2 POP POP SWAP3 SWAP2 POP POP JUMP JUMPDEST PUSH1 0x0 DUP1 PUSH1 0x0 PUSH1 0x60 DUP5 DUP7 SUB SLT ISZERO PUSH2 0xD74 JUMPI PUSH2 0xD73 PUSH2 0x1420 JUMP JUMPDEST JUMPDEST PUSH1 0x0 DUP5 ADD CALLDATALOAD PUSH8 0xFFFFFFFFFFFFFFFF DUP2 GT ISZERO PUSH2 0xD92 JUMPI PUSH2 0xD91 PUSH2 0x141B JUMP JUMPDEST JUMPDEST PUSH2 0xD9E DUP7 DUP3 DUP8 ADD PUSH2 0xCEB JUMP JUMPDEST SWAP4 POP POP PUSH1 0x20 PUSH2 0xDAF DUP7 DUP3 DUP8 ADD PUSH2 0xCD6 JUMP JUMPDEST SWAP3 POP POP PUSH1 0x40 PUSH2 0xDC0 DUP7 DUP3 DUP8 ADD PUSH2 0xD19 JUMP JUMPDEST SWAP2 POP POP SWAP3 POP SWAP3 POP SWAP3 JUMP JUMPDEST PUSH1 0x0 PUSH1 0x20 DUP3 DUP5 SUB SLT ISZERO PUSH2 0xDE0 JUMPI PUSH2 0xDDF PUSH2 0x1420 JUMP JUMPDEST JUMPDEST PUSH1 0x0 PUSH2 0xDEE DUP5 DUP3 DUP6 ADD PUSH2 0xD19 JUMP JUMPDEST SWAP2 POP POP SWAP3 SWAP2 POP POP JUMP JUMPDEST PUSH2 0xE00 DUP2 PUSH2 0x121F JUMP JUMPDEST DUP3 MSTORE POP POP JUMP JUMPDEST PUSH2 0xE0F DUP2 PUSH2 0x120D JUMP JUMPDEST DUP3 MSTORE POP POP JUMP JUMPDEST PUSH2 0xE1E DUP2 PUSH2 0x1231 JUMP JUMPDEST DUP3 MSTORE POP POP JUMP JUMPDEST PUSH1 0x0 PUSH2 0xE2F DUP3 PUSH2 0x116A JUMP JUMPDEST PUSH2 0xE39 DUP2 DUP6 PUSH2 0x1175 JUMP JUMPDEST SWAP4 POP PUSH2 0xE49 DUP2 DUP6 PUSH1 0x20 DUP7 ADD PUSH2 0x1276 JUMP JUMPDEST PUSH2 0xE52 DUP2 PUSH2 0x1425 JUMP JUMPDEST DUP5 ADD SWAP2 POP POP SWAP3 SWAP2 POP POP JUMP JUMPDEST PUSH1 0x0 PUSH2 0xE6A PUSH1 0x1F DUP4 PUSH2 0x1175 JUMP JUMPDEST SWAP2 POP PUSH2 0xE75 DUP3 PUSH2 0x1436 JUMP JUMPDEST PUSH1 0x20 DUP3 ADD SWAP1 POP SWAP2 SWAP1 POP JUMP JUMPDEST PUSH1 0x0 PUSH2 0xE8D PUSH1 0x16 DUP4 PUSH2 0x1175 JUMP JUMPDEST SWAP2 POP PUSH2 0xE98 DUP3 PUSH2 0x145F JUMP JUMPDEST PUSH1 0x20 DUP3 ADD SWAP1 POP SWAP2 SWAP1 POP JUMP JUMPDEST PUSH1 0x0 PUSH2 0xEB0 PUSH1 0x17 DUP4 PUSH2 0x1175 JUMP JUMPDEST SWAP2 POP PUSH2 0xEBB DUP3 PUSH2 0x1488 JUMP JUMPDEST PUSH1 0x20 DUP3 ADD SWAP1 POP SWAP2 SWAP1 POP JUMP JUMPDEST PUSH1 0x0 PUSH2 0xED3 PUSH1 0x16 DUP4 PUSH2 0x1175 JUMP JUMPDEST SWAP2 POP PUSH2 0xEDE DUP3 PUSH2 0x14B1 JUMP JUMPDEST PUSH1 0x20 DUP3 ADD SWAP1 POP SWAP2 SWAP1 POP JUMP JUMPDEST PUSH1 0x0 PUSH2 0xEF6 PUSH1 0x23 DUP4 PUSH2 0x1175 JUMP JUMPDEST SWAP2 POP PUSH2 0xF01 DUP3 PUSH2 0x14DA JUMP JUMPDEST PUSH1 0x40 DUP3 ADD SWAP1 POP SWAP2 SWAP1 POP JUMP JUMPDEST PUSH1 0x0 PUSH2 0xF19 PUSH1 0x11 DUP4 PUSH2 0x1175 JUMP JUMPDEST SWAP2 POP PUSH2 0xF24 DUP3 PUSH2 0x1529 JUMP JUMPDEST PUSH1 0x20 DUP3 ADD SWAP1 POP SWAP2 SWAP1 POP JUMP JUMPDEST PUSH1 0x0 PUSH2 0xF3C PUSH1 0x1E DUP4 PUSH2 0x1175 JUMP JUMPDEST SWAP2 POP PUSH2 0xF47 DUP3 PUSH2 0x1552 JUMP JUMPDEST PUSH1 0x20 DUP3 ADD SWAP1 POP SWAP2 SWAP1 POP JUMP JUMPDEST PUSH1 0x0 PUSH2 0xF5F PUSH1 0x1F DUP4 PUSH2 0x1175 JUMP JUMPDEST SWAP2 POP PUSH2 0xF6A DUP3 PUSH2 0x157B JUMP JUMPDEST PUSH1 0x20 DUP3 ADD SWAP1 POP SWAP2 SWAP1 POP JUMP JUMPDEST PUSH2 0xF7E DUP2 PUSH2 0x125D JUMP JUMPDEST DUP3 MSTORE POP POP JUMP JUMPDEST PUSH1 0x0 PUSH1 0x20 DUP3 ADD SWAP1 POP PUSH2 0xF99 PUSH1 0x0 DUP4 ADD DUP5 PUSH2 0xE06 JUMP JUMPDEST SWAP3 SWAP2 POP POP JUMP JUMPDEST PUSH1 0x0 PUSH1 0xA0 DUP3 ADD SWAP1 POP DUP2 DUP2 SUB PUSH1 0x0 DUP4 ADD MSTORE PUSH2 0xFB9 DUP2 DUP9 PUSH2 0xE24 JUMP JUMPDEST SWAP1 POP PUSH2 0xFC8 PUSH1 0x20 DUP4 ADD DUP8 PUSH2 0xDF7 JUMP JUMPDEST PUSH2 0xFD5 PUSH1 0x40 DUP4 ADD DUP7 PUSH2 0xF75 JUMP JUMPDEST PUSH2 0xFE2 PUSH1 0x60 DUP4 ADD DUP6 PUSH2 0xE15 JUMP JUMPDEST PUSH2 0xFEF PUSH1 0x80 DUP4 ADD DUP5 PUSH2 0xF75 JUMP JUMPDEST SWAP7 SWAP6 POP POP POP POP POP POP JUMP JUMPDEST PUSH1 0x0 PUSH1 0x20 DUP3 ADD SWAP1 POP DUP2 DUP2 SUB PUSH1 0x0 DUP4 ADD MSTORE PUSH2 0x1012 DUP2 PUSH2 0xE5D JUMP JUMPDEST SWAP1 POP SWAP2 SWAP1 POP JUMP JUMPDEST PUSH1 0x0 PUSH1 0x20 DUP3 ADD SWAP1 POP DUP2 DUP2 SUB PUSH1 0x0 DUP4 ADD MSTORE PUSH2 0x1032 DUP2 PUSH2 0xE80 JUMP JUMPDEST SWAP1 POP SWAP2 SWAP1 POP JUMP JUMPDEST PUSH1 0x0 PUSH1 0x20 DUP3 ADD SWAP1 POP DUP2 DUP2 SUB PUSH1 0x0 DUP4 ADD MSTORE PUSH2 0x1052 DUP2 PUSH2 0xEA3 JUMP JUMPDEST SWAP1 POP SWAP2 SWAP1 POP JUMP JUMPDEST PUSH1 0x0 PUSH1 0x20 DUP3 ADD SWAP1 POP DUP2 DUP2 SUB PUSH1 0x0 DUP4 ADD MSTORE PUSH2 0x1072 DUP2 PUSH2 0xEC6 JUMP JUMPDEST SWAP1 POP SWAP2 SWAP1 POP JUMP JUMPDEST PUSH1 0x0 PUSH1 0x20 DUP3 ADD SWAP1 POP DUP2 DUP2 SUB PUSH1 0x0 DUP4 ADD MSTORE PUSH2 0x1092 DUP2 PUSH2 0xEE9 JUMP JUMPDEST SWAP1 POP SWAP2 SWAP1 POP JUMP JUMPDEST PUSH1 0x0 PUSH1 0x20 DUP3 ADD SWAP1 POP DUP2 DUP2 SUB PUSH1 0x0 DUP4 ADD MSTORE PUSH2 0x10B2 DUP2 PUSH2 0xF0C JUMP JUMPDEST SWAP1 POP SWAP2 SWAP1 POP JUMP JUMPDEST PUSH1 0x0 PUSH1 0x20 DUP3 ADD SWAP1 POP DUP2 DUP2 SUB PUSH1 0x0 DUP4 ADD MSTORE PUSH2 0x10D2 DUP2 PUSH2 0xF2F JUMP JUMPDEST SWAP1 POP SWAP2 SWAP1 POP JUMP JUMPDEST PUSH1 0x0 PUSH1 0x20 DUP3 ADD SWAP1 POP DUP2 DUP2 SUB PUSH1 0x0 DUP4 ADD MSTORE PUSH2 0x10F2 DUP2 PUSH2 0xF52 JUMP JUMPDEST SWAP1 POP SWAP2 SWAP1 POP JUMP JUMPDEST PUSH1 0x0 PUSH1 0x20 DUP3 ADD SWAP1 POP PUSH2 0x110E PUSH1 0x0 DUP4 ADD DUP5 PUSH2 0xF75 JUMP JUMPDEST SWAP3 SWAP2 POP POP JUMP JUMPDEST PUSH1 0x0 PUSH2 0x111E PUSH2 0x112F JUMP JUMPDEST SWAP1 POP PUSH2 0x112A DUP3 DUP3 PUSH2 0x12DB JUMP JUMPDEST SWAP2 SWAP1 POP JUMP JUMPDEST PUSH1 0x0 PUSH1 0x40 MLOAD SWAP1 POP SWAP1 JUMP JUMPDEST PUSH1 0x0 PUSH8 0xFFFFFFFFFFFFFFFF DUP3 GT ISZERO PUSH2 0x1154 JUMPI PUSH2 0x1153 PUSH2 0x13E2 JUMP JUMPDEST JUMPDEST PUSH2 0x115D DUP3 PUSH2 0x1425 JUMP JUMPDEST SWAP1 POP PUSH1 0x20 DUP2 ADD SWAP1 POP SWAP2 SWAP1 POP JUMP JUMPDEST PUSH1 0x0 DUP2 MLOAD SWAP1 POP SWAP2 SWAP1 POP JUMP JUMPDEST PUSH1 0x0 DUP3 DUP3 MSTORE PUSH1 0x20 DUP3 ADD SWAP1 POP SWAP3 SWAP2 POP POP JUMP JUMPDEST PUSH1 0x0 PUSH2 0x1191 DUP3 PUSH2 0x125D JUMP JUMPDEST SWAP2 POP PUSH2 0x119C DUP4 PUSH2 0x125D JUMP JUMPDEST SWAP3 POP DUP3 PUSH32 0xFFFFFFFFFFFFFFFFFFFFFFFFFFFFFFFFFFFFFFFFFFFFFFFFFFFFFFFFFFFFFFFF SUB DUP3 GT ISZERO PUSH2 0x11D1 JUMPI PUSH2 0x11D0 PUSH2 0x1355 JUMP JUMPDEST JUMPDEST DUP3 DUP3 ADD SWAP1 POP SWAP3 SWAP2 POP POP JUMP JUMPDEST PUSH1 0x0 PUSH2 0x11E7 DUP3 PUSH2 0x125D JUMP JUMPDEST SWAP2 POP PUSH2 0x11F2 DUP4 PUSH2 0x125D JUMP JUMPDEST SWAP3 POP DUP3 PUSH2 0x1202 JUMPI PUSH2 0x1201 PUSH2 0x1384 JUMP JUMPDEST JUMPDEST DUP3 DUP3 DIV SWAP1 POP SWAP3 SWAP2 POP POP JUMP JUMPDEST PUSH1 0x0 PUSH2 0x1218 DUP3 PUSH2 0x123D JUMP JUMPDEST SWAP1 POP SWAP2 SWAP1 POP JUMP JUMPDEST PUSH1 0x0 PUSH2 0x122A DUP3 PUSH2 0x123D JUMP JUMPDEST SWAP1 POP SWAP2 SWAP1 POP JUMP JUMPDEST PUSH1 0x0 DUP2 ISZERO ISZERO SWAP1 POP SWAP2 SWAP1 POP JUMP JUMPDEST PUSH1 0x0 PUSH20 0xFFFFFFFFFFFFFFFFFFFFFFFFFFFFFFFFFFFFFFFF DUP3 AND SWAP1 POP SWAP2 SWAP1 POP JUMP JUMPDEST PUSH1 0x0 DUP2 SWAP1 POP SWAP2 SWAP1 POP JUMP JUMPDEST DUP3 DUP2 DUP4 CALLDATACOPY PUSH1 0x0 DUP4 DUP4 ADD MSTORE POP POP POP JUMP JUMPDEST PUSH1 0x0 JUMPDEST DUP4 DUP2 LT ISZERO PUSH2 0x1294 JUMPI DUP1 DUP3 ADD MLOAD DUP2 DUP5 ADD MSTORE PUSH1 0x20 DUP2 ADD SWAP1 POP PUSH2 0x1279 JUMP JUMPDEST DUP4 DUP2 GT ISZERO PUSH2 0x12A3 JUMPI PUSH1 0x0 DUP5 DUP5 ADD MSTORE JUMPDEST POP POP POP POP JUMP JUMPDEST PUSH1 0x0 PUSH1 0x2 DUP3 DIV SWAP1 POP PUSH1 0x1 DUP3 AND DUP1 PUSH2 0x12C1 JUMPI PUSH1 0x7F DUP3 AND SWAP2 POP JUMPDEST PUSH1 0x20 DUP3 LT DUP2 EQ ISZERO PUSH2 0x12D5 JUMPI PUSH2 0x12D4 PUSH2 0x13B3 JUMP JUMPDEST JUMPDEST POP SWAP2 SWAP1 POP JUMP JUMPDEST PUSH2 0x12E4 DUP3 PUSH2 0x1425 JUMP JUMPDEST DUP2 ADD DUP2 DUP2 LT PUSH8 0xFFFFFFFFFFFFFFFF DUP3 GT OR ISZERO PUSH2 0x1303 JUMPI PUSH2 0x1302 PUSH2 0x13E2 JUMP JUMPDEST JUMPDEST DUP1 PUSH1 0x40 MSTORE POP POP POP JUMP JUMPDEST PUSH1 0x0 PUSH2 0x1317 DUP3 PUSH2 0x125D JUMP JUMPDEST SWAP2 POP PUSH32 0xFFFFFFFFFFFFFFFFFFFFFFFFFFFFFFFFFFFFFFFFFFFFFFFFFFFFFFFFFFFFFFFF DUP3 EQ ISZERO PUSH2 0x134A JUMPI PUSH2 0x1349 PUSH2 0x1355 JUMP JUMPDEST JUMPDEST PUSH1 0x1 DUP3 ADD SWAP1 POP SWAP2 SWAP1 POP JUMP JUMPDEST PUSH32 0x4E487B7100000000000000000000000000000000000000000000000000000000 PUSH1 0x0 MSTORE PUSH1 0x11 PUSH1 0x4 MSTORE PUSH1 0x24 PUSH1 0x0 REVERT JUMPDEST PUSH32 0x4E487B7100000000000000000000000000000000000000000000000000000000 PUSH1 0x0 MSTORE PUSH1 0x12 PUSH1 0x4 MSTORE PUSH1 0x24 PUSH1 0x0 REVERT JUMPDEST PUSH32 0x4E487B7100000000000000000000000000000000000000000000000000000000 PUSH1 0x0 MSTORE PUSH1 0x22 PUSH1 0x4 MSTORE PUSH1 0x24 PUSH1 0x0 REVERT JUMPDEST PUSH32 0x4E487B7100000000000000000000000000000000000000000000000000000000 PUSH1 0x0 MSTORE PUSH1 0x41 PUSH1 0x4 MSTORE PUSH1 0x24 PUSH1 0x0 REVERT JUMPDEST PUSH1 0x0 DUP1 REVERT JUMPDEST PUSH1 0x0 DUP1 REVERT JUMPDEST PUSH1 0x0 DUP1 REVERT JUMPDEST PUSH1 0x0 DUP1 REVERT JUMPDEST PUSH1 0x0 PUSH1 0x1F NOT PUSH1 0x1F DUP4 ADD AND SWAP1 POP SWAP2 SWAP1 POP JUMP JUMPDEST PUSH32 0x4D696E696D756D20436F6E747269627574696F6E206973206E6F74206D657400 PUSH1 0x0 DUP3 ADD MSTORE POP JUMP JUMPDEST PUSH32 0x796F75206861766520616C726561647920766F74656400000000000000000000 PUSH1 0x0 DUP3 ADD MSTORE POP JUMP JUMPDEST PUSH32 0x796F75206D75737420626520636F6E7472696275746F72000000000000000000 PUSH1 0x0 DUP3 ADD MSTORE POP JUMP JUMPDEST PUSH32 0x6D616A6F7269747920646F6573206E6F74207375707000000000000000000000 PUSH1 0x0 DUP3 ADD MSTORE POP JUMP JUMPDEST PUSH32 0x6F6E6C79206D616E616765722063616E2063616C6C20746869732066756E6374 PUSH1 0x0 DUP3 ADD MSTORE PUSH32 0x696F6E0000000000000000000000000000000000000000000000000000000000 PUSH1 0x20 DUP3 ADD MSTORE POP JUMP JUMPDEST PUSH32 0x446561646C696E6520686173206F766572000000000000000000000000000000 PUSH1 0x0 DUP3 ADD MSTORE POP JUMP JUMPDEST PUSH32 0x746865207265717565737420686173206265656E20636F6D706C697465640000 PUSH1 0x0 DUP3 ADD MSTORE POP JUMP JUMPDEST PUSH32 0x796F7520617265206E6F7420656C696769626C6520666F7220726566756E6400 PUSH1 0x0 DUP3 ADD MSTORE POP JUMP JUMPDEST PUSH2 0x15AD DUP2 PUSH2 0x120D JUMP JUMPDEST DUP2 EQ PUSH2 0x15B8 JUMPI PUSH1 0x0 DUP1 REVERT JUMPDEST POP JUMP JUMPDEST PUSH2 0x15C4 DUP2 PUSH2 0x121F JUMP JUMPDEST DUP2 EQ PUSH2 0x15CF JUMPI PUSH1 0x0 DUP1 REVERT JUMPDEST POP JUMP JUMPDEST PUSH2 0x15DB DUP2 PUSH2 0x125D JUMP JUMPDEST DUP2 EQ PUSH2 0x15E6 JUMPI PUSH1 0x0 DUP1 REVERT JUMPDEST POP JUMP INVALID LOG2 PUSH5 0x6970667358 0x22 SLT KECCAK256 0xBB STOP PUSH23 0xD8E81A0DD14B8A6DF52CCB5F730A414BBD13AC5C3DA4E8 0xBC 0xF 0xB1 PUSH24 0x4A9F64736F6C634300080700330000000000000000000000 "
				},
				"gasEstimates": {
					"creation": {
						"codeDepositCost": "1132600",
						"executionCost": "infinite",
						"totalCost": "infinite"
					},
					"external": {
						"contributors(address)": "2860",
						"creteRequests(string,address,uint256)": "infinite",
						"deadline()": "2497",
						"getContractBalance()": "406",
						"makePayment(uint256)": "infinite",
						"manager()": "2537",
						"minimumContribution()": "2451",
						"noOfContributors()": "2496",
						"numRequests()": "2473",
						"raisedAmount()": "2495",
						"refund()": "infinite",
						"requests(uint256)": "infinite",
						"sendEth()": "infinite",
						"target()": "2517",
						"voteRequest(uint256)": "infinite"
					}
				},
				"methodIdentifiers": {
					"contributors(address)": "1f6d4942",
					"creteRequests(string,address,uint256)": "5957df98",
					"deadline()": "29dcb0cf",
					"getContractBalance()": "6f9fb98a",
					"makePayment(uint256)": "5114cb52",
					"manager()": "481c6a75",
					"minimumContribution()": "937e09b1",
					"noOfContributors()": "4e260f6f",
					"numRequests()": "9fb42b1f",
					"raisedAmount()": "c59ee1dc",
					"refund()": "590e1ae3",
					"requests(uint256)": "81d12c58",
					"sendEth()": "06e99fef",
					"target()": "d4b83992",
					"voteRequest(uint256)": "4cb6f4a5"
				}
			},
			"storageLayout": {
				"storage": [
					{
						"astId": 5,
						"contract": "contracts/CrowdFunding.sol:CrowdFunding",
						"label": "contributors",
						"offset": 0,
						"slot": "0",
						"type": "t_mapping(t_address,t_uint256)"
					},
					{
						"astId": 7,
						"contract": "contracts/CrowdFunding.sol:CrowdFunding",
						"label": "manager",
						"offset": 0,
						"slot": "1",
						"type": "t_address"
					},
					{
						"astId": 9,
						"contract": "contracts/CrowdFunding.sol:CrowdFunding",
						"label": "minimumContribution",
						"offset": 0,
						"slot": "2",
						"type": "t_uint256"
					},
					{
						"astId": 11,
						"contract": "contracts/CrowdFunding.sol:CrowdFunding",
						"label": "deadline",
						"offset": 0,
						"slot": "3",
						"type": "t_uint256"
					},
					{
						"astId": 13,
						"contract": "contracts/CrowdFunding.sol:CrowdFunding",
						"label": "target",
						"offset": 0,
						"slot": "4",
						"type": "t_uint256"
					},
					{
						"astId": 15,
						"contract": "contracts/CrowdFunding.sol:CrowdFunding",
						"label": "raisedAmount",
						"offset": 0,
						"slot": "5",
						"type": "t_uint256"
					},
					{
						"astId": 17,
						"contract": "contracts/CrowdFunding.sol:CrowdFunding",
						"label": "noOfContributors",
						"offset": 0,
						"slot": "6",
						"type": "t_uint256"
					},
					{
						"astId": 37,
						"contract": "contracts/CrowdFunding.sol:CrowdFunding",
						"label": "requests",
						"offset": 0,
						"slot": "7",
						"type": "t_mapping(t_uint256,t_struct(Request)32_storage)"
					},
					{
						"astId": 39,
						"contract": "contracts/CrowdFunding.sol:CrowdFunding",
						"label": "numRequests",
						"offset": 0,
						"slot": "8",
						"type": "t_uint256"
					}
				],
				"types": {
					"t_address": {
						"encoding": "inplace",
						"label": "address",
						"numberOfBytes": "20"
					},
					"t_address_payable": {
						"encoding": "inplace",
						"label": "address payable",
						"numberOfBytes": "20"
					},
					"t_bool": {
						"encoding": "inplace",
						"label": "bool",
						"numberOfBytes": "1"
					},
					"t_mapping(t_address,t_bool)": {
						"encoding": "mapping",
						"key": "t_address",
						"label": "mapping(address => bool)",
						"numberOfBytes": "32",
						"value": "t_bool"
					},
					"t_mapping(t_address,t_uint256)": {
						"encoding": "mapping",
						"key": "t_address",
						"label": "mapping(address => uint256)",
						"numberOfBytes": "32",
						"value": "t_uint256"
					},
					"t_mapping(t_uint256,t_struct(Request)32_storage)": {
						"encoding": "mapping",
						"key": "t_uint256",
						"label": "mapping(uint256 => struct CrowdFunding.Request)",
						"numberOfBytes": "32",
						"value": "t_struct(Request)32_storage"
					},
					"t_string_storage": {
						"encoding": "bytes",
						"label": "string",
						"numberOfBytes": "32"
					},
					"t_struct(Request)32_storage": {
						"encoding": "inplace",
						"label": "struct CrowdFunding.Request",
						"members": [
							{
								"astId": 19,
								"contract": "contracts/CrowdFunding.sol:CrowdFunding",
								"label": "description",
								"offset": 0,
								"slot": "0",
								"type": "t_string_storage"
							},
							{
								"astId": 21,
								"contract": "contracts/CrowdFunding.sol:CrowdFunding",
								"label": "recipient",
								"offset": 0,
								"slot": "1",
								"type": "t_address_payable"
							},
							{
								"astId": 23,
								"contract": "contracts/CrowdFunding.sol:CrowdFunding",
								"label": "value",
								"offset": 0,
								"slot": "2",
								"type": "t_uint256"
							},
							{
								"astId": 25,
								"contract": "contracts/CrowdFunding.sol:CrowdFunding",
								"label": "completed",
								"offset": 0,
								"slot": "3",
								"type": "t_bool"
							},
							{
								"astId": 27,
								"contract": "contracts/CrowdFunding.sol:CrowdFunding",
								"label": "noOfVotors",
								"offset": 0,
								"slot": "4",
								"type": "t_uint256"
							},
							{
								"astId": 31,
								"contract": "contracts/CrowdFunding.sol:CrowdFunding",
								"label": "voters",
								"offset": 0,
								"slot": "5",
								"type": "t_mapping(t_address,t_bool)"
							}
						],
						"numberOfBytes": "192"
					},
					"t_uint256": {
						"encoding": "inplace",
						"label": "uint256",
						"numberOfBytes": "32"
					}
				}
			},
			"userdoc": {
				"kind": "user",
				"methods": {},
				"version": 1
			}
		}
	}
}